{
  "contractName": "Order",
  "abi": [
    {
      "inputs": [
        {
          "internalType": "address",
          "name": "_ownerAddress",
          "type": "address"
        },
        {
          "internalType": "address",
          "name": "_seller",
          "type": "address"
        },
        {
          "internalType": "uint256",
          "name": "_totalPrice",
          "type": "uint256"
        },
        {
          "internalType": "uint256",
          "name": "_totalProduct",
          "type": "uint256"
        }
      ],
      "stateMutability": "nonpayable",
      "type": "constructor"
    },
    {
      "anonymous": false,
      "inputs": [
        {
          "indexed": false,
          "internalType": "address",
          "name": "from",
          "type": "address"
        },
        {
          "indexed": false,
          "internalType": "address payable",
          "name": "to",
          "type": "address"
        },
        {
          "indexed": false,
          "internalType": "uint256",
          "name": "value",
          "type": "uint256"
        },
        {
          "indexed": false,
          "internalType": "enum Order.order_status",
          "name": "state",
          "type": "uint8"
        }
      ],
      "name": "cancelOrder",
      "type": "event"
    },
    {
      "anonymous": false,
      "inputs": [
        {
          "indexed": false,
          "internalType": "address",
          "name": "from",
          "type": "address"
        },
        {
          "indexed": false,
          "internalType": "address payable",
          "name": "to",
          "type": "address"
        },
        {
          "indexed": false,
          "internalType": "uint256",
          "name": "value",
          "type": "uint256"
        },
        {
          "indexed": false,
          "internalType": "enum Order.order_status",
          "name": "state",
          "type": "uint8"
        }
      ],
      "name": "confirmPaymentToSeller",
      "type": "event"
    },
    {
      "inputs": [],
      "name": "cancelTime",
      "outputs": [
        {
          "internalType": "uint256",
          "name": "",
          "type": "uint256"
        }
      ],
      "stateMutability": "view",
      "type": "function"
    },
    {
      "inputs": [],
      "name": "dealine",
      "outputs": [
        {
          "internalType": "uint256",
          "name": "",
          "type": "uint256"
        }
      ],
      "stateMutability": "view",
      "type": "function"
    },
    {
      "inputs": [],
      "name": "paymentTime",
      "outputs": [
        {
          "internalType": "uint256",
          "name": "",
          "type": "uint256"
        }
      ],
      "stateMutability": "view",
      "type": "function"
    },
    {
      "inputs": [],
      "name": "state",
      "outputs": [
        {
          "internalType": "enum Order.order_status",
          "name": "",
          "type": "uint8"
        }
      ],
      "stateMutability": "view",
      "type": "function"
    },
    {
      "inputs": [],
      "name": "totalPrice",
      "outputs": [
        {
          "internalType": "uint256",
          "name": "",
          "type": "uint256"
        }
      ],
      "stateMutability": "view",
      "type": "function"
    },
    {
      "inputs": [],
      "name": "totalProduct",
      "outputs": [
        {
          "internalType": "uint256",
          "name": "",
          "type": "uint256"
        }
      ],
      "stateMutability": "view",
      "type": "function"
    },
    {
      "inputs": [],
      "name": "tranferTotalPriceToOrder",
      "outputs": [],
      "stateMutability": "payable",
      "type": "function"
    },
    {
      "inputs": [],
      "name": "getAddress",
      "outputs": [
        {
          "internalType": "address",
          "name": "",
          "type": "address"
        }
      ],
      "stateMutability": "view",
      "type": "function"
    },
    {
      "inputs": [],
      "name": "getBalance",
      "outputs": [
        {
          "internalType": "uint256",
          "name": "",
          "type": "uint256"
        }
      ],
      "stateMutability": "view",
      "type": "function"
    },
    {
      "inputs": [],
      "name": "handleConfirmPayment",
      "outputs": [],
      "stateMutability": "nonpayable",
      "type": "function"
    },
    {
      "inputs": [],
      "name": "handleCancelOrder",
      "outputs": [],
      "stateMutability": "nonpayable",
      "type": "function"
    },
    {
      "inputs": [],
      "name": "getOrderInfo",
      "outputs": [
        {
          "components": [
            {
              "internalType": "address",
              "name": "orderAddress",
              "type": "address"
            },
            {
              "internalType": "address",
              "name": "buyer",
              "type": "address"
            },
            {
              "internalType": "address",
              "name": "seller",
              "type": "address"
            },
            {
              "internalType": "uint256",
              "name": "totalPrice",
              "type": "uint256"
            },
            {
              "internalType": "uint256",
              "name": "totalProduct",
              "type": "uint256"
            }
          ],
          "internalType": "struct Order.OrderInfo",
          "name": "",
          "type": "tuple"
        }
      ],
      "stateMutability": "view",
      "type": "function"
    }
  ],
  "bytecode": "0x60806040523480156200001157600080fd5b5060405162000c2438038062000c248339818101604052810190620000379190620001a3565b836000806101000a81548173ffffffffffffffffffffffffffffffffffffffff021916908373ffffffffffffffffffffffffffffffffffffffff16021790555082600160006101000a81548173ffffffffffffffffffffffffffffffffffffffff021916908373ffffffffffffffffffffffffffffffffffffffff16021790555081600281905550806003819055506000600760006101000a81548160ff02191690836002811115620000ef57620000ee62000215565b5b02179055505050505062000244565b600080fd5b600073ffffffffffffffffffffffffffffffffffffffff82169050919050565b6000620001308262000103565b9050919050565b620001428162000123565b81146200014e57600080fd5b50565b600081519050620001628162000137565b92915050565b6000819050919050565b6200017d8162000168565b81146200018957600080fd5b50565b6000815190506200019d8162000172565b92915050565b60008060008060808587031215620001c057620001bf620000fe565b5b6000620001d08782880162000151565b9450506020620001e38782880162000151565b9350506040620001f6878288016200018c565b925050606062000209878288016200018c565b91505092959194509250565b7f4e487b7100000000000000000000000000000000000000000000000000000000600052602160045260246000fd5b6109d080620002546000396000f3fe6080604052600436106100a75760003560e01c806363c9717e1161006457806363c9717e146101ae578063908087e1146101b85780639e0cd599146101cf578063a911715c146101e6578063ab0d92dd14610211578063c19d93fb1461023c576100a7565b806301efb6c8146100ac5780630419677c146100d757806312065fe0146101025780631325e9b81461012d57806338cc483114610158578063566bceef14610183575b600080fd5b3480156100b857600080fd5b506100c1610267565b6040516100ce91906107b6565b60405180910390f35b3480156100e357600080fd5b506100ec61032a565b6040516100f991906107e0565b60405180910390f35b34801561010e57600080fd5b50610117610330565b60405161012491906107e0565b60405180910390f35b34801561013957600080fd5b50610142610338565b60405161014f91906107e0565b60405180910390f35b34801561016457600080fd5b5061016d61033e565b60405161017a919061080a565b60405180910390f35b34801561018f57600080fd5b50610198610346565b6040516101a591906107e0565b60405180910390f35b6101b661034c565b005b3480156101c457600080fd5b506101cd61034e565b005b3480156101db57600080fd5b506101e46104db565b005b3480156101f257600080fd5b506101fb610664565b60405161020891906107e0565b60405180910390f35b34801561021d57600080fd5b5061022661066a565b60405161023391906107e0565b60405180910390f35b34801561024857600080fd5b50610251610670565b60405161025e919061089c565b60405180910390f35b61026f610683565b6040518060a0016040528061028261033e565b73ffffffffffffffffffffffffffffffffffffffff16815260200160008054906101000a900473ffffffffffffffffffffffffffffffffffffffff1673ffffffffffffffffffffffffffffffffffffffff168152602001600160009054906101000a900473ffffffffffffffffffffffffffffffffffffffff1673ffffffffffffffffffffffffffffffffffffffff1681526020016002548152602001600354815250905090565b60045481565b600047905090565b60065481565b600030905090565b60035481565b565b60008054906101000a900473ffffffffffffffffffffffffffffffffffffffff1673ffffffffffffffffffffffffffffffffffffffff163373ffffffffffffffffffffffffffffffffffffffff16146103dc576040517f08c379a00000000000000000000000000000000000000000000000000000000081526004016103d390610914565b60405180910390fd5b600160009054906101000a900473ffffffffffffffffffffffffffffffffffffffff1673ffffffffffffffffffffffffffffffffffffffff166108fc479081150290604051600060405180830381858888f19350505050158015610444573d6000803e3d6000fd5b506001600760006101000a81548160ff0219169083600281111561046b5761046a610825565b5b0217905550426004819055507f93896f6557f98b3ef25ef74326ae597b365304080197f8556634338a12c164a330600160009054906101000a900473ffffffffffffffffffffffffffffffffffffffff1660025460016040516104d19493929190610955565b60405180910390a1565b60008054906101000a900473ffffffffffffffffffffffffffffffffffffffff1673ffffffffffffffffffffffffffffffffffffffff163373ffffffffffffffffffffffffffffffffffffffff1614610569576040517f08c379a000000000000000000000000000000000000000000000000000000000815260040161056090610914565b60405180910390fd5b60008054906101000a900473ffffffffffffffffffffffffffffffffffffffff1673ffffffffffffffffffffffffffffffffffffffff166108fc479081150290604051600060405180830381858888f193505050501580156105cf573d6000803e3d6000fd5b506002600760006101000a81548160ff021916908360028111156105f6576105f5610825565b5b0217905550426005819055507f93896f6557f98b3ef25ef74326ae597b365304080197f8556634338a12c164a33060008054906101000a900473ffffffffffffffffffffffffffffffffffffffff16600254600260405161065a9493929190610955565b60405180910390a1565b60055481565b60025481565b600760009054906101000a900460ff1681565b6040518060a00160405280600073ffffffffffffffffffffffffffffffffffffffff168152602001600073ffffffffffffffffffffffffffffffffffffffff168152602001600073ffffffffffffffffffffffffffffffffffffffff16815260200160008152602001600081525090565b600073ffffffffffffffffffffffffffffffffffffffff82169050919050565b600061071f826106f4565b9050919050565b61072f81610714565b82525050565b6000819050919050565b61074881610735565b82525050565b60a0820160008201516107646000850182610726565b5060208201516107776020850182610726565b50604082015161078a6040850182610726565b50606082015161079d606085018261073f565b5060808201516107b0608085018261073f565b50505050565b600060a0820190506107cb600083018461074e565b92915050565b6107da81610735565b82525050565b60006020820190506107f560008301846107d1565b92915050565b61080481610714565b82525050565b600060208201905061081f60008301846107fb565b92915050565b7f4e487b7100000000000000000000000000000000000000000000000000000000600052602160045260246000fd5b6003811061086557610864610825565b5b50565b600081905061087682610854565b919050565b600061088682610868565b9050919050565b6108968161087b565b82525050565b60006020820190506108b1600083018461088d565b92915050565b600082825260208201905092915050565b7f4e6f74207065726d697373696f6e000000000000000000000000000000000000600082015250565b60006108fe600e836108b7565b9150610909826108c8565b602082019050919050565b6000602082019050818103600083015261092d816108f1565b9050919050565b600061093f826106f4565b9050919050565b61094f81610934565b82525050565b600060808201905061096a60008301876107fb565b6109776020830186610946565b61098460408301856107d1565b610991606083018461088d565b9594505050505056fea2646970667358221220797771d38e807357ccf9901a642eaaa2ac8efc2fa15425069889034ef8e154b964736f6c63430008110033",
  "immutableReferences": {},
  "source": "// SPDX-License-Identifier: GPL-3.0\r\n\r\npragma solidity >=0.7.0 <0.9.0;\r\n\r\ncontract Order {\r\n    struct OrderInfo {\r\n        address orderAddress;\r\n        address buyer;\r\n        address seller;\r\n        uint256 totalPrice;\r\n        uint256 totalProduct;\r\n    }\r\n\r\n    enum order_status {\r\n        PENDING,\r\n        SUCCESS,\r\n        ABORT\r\n    }\r\n\r\n    address payable owner;\r\n    address payable seller;\r\n    uint256 public totalPrice;\r\n    uint256 public totalProduct;\r\n    uint256 public paymentTime;\r\n    uint256 public cancelTime;\r\n    uint256 public dealine;\r\n    order_status public state;\r\n\r\n    constructor(\r\n        address _ownerAddress,\r\n        address _seller,\r\n        uint256 _totalPrice,\r\n        uint256 _totalProduct\r\n    ) {\r\n        owner = payable(_ownerAddress);\r\n        seller = payable(_seller);\r\n        totalPrice = _totalPrice;\r\n        totalProduct = _totalProduct;\r\n        state = order_status.PENDING;\r\n    }\r\n\r\n    event confirmPaymentToSeller(\r\n        address from,\r\n        address payable to,\r\n        uint256 value,\r\n        order_status state\r\n    );\r\n\r\n    event cancelOrder(\r\n        address from,\r\n        address payable to,\r\n        uint256 value,\r\n        order_status state\r\n    );\r\n\r\n    function tranferTotalPriceToOrder() public payable {\r\n        // require(msg.value == totalPrice, \"value must equal totalPrice\");\r\n    }\r\n\r\n    function getAddress() public view returns (address) {\r\n        return address(this);\r\n    }\r\n    \r\n    function getBalance() public view returns (uint256) {\r\n        return address(this).balance;\r\n    }\r\n\r\n    function handleConfirmPayment() public {\r\n        require(msg.sender == owner, \"Not permission\");\r\n        // require(\r\n        //     address(this).balance == totalPrice,\r\n        //     \"Balance not equal totalPrice\"\r\n        // );\r\n        seller.transfer(address(this).balance);\r\n        state = order_status.SUCCESS;\r\n        paymentTime = block.timestamp;\r\n        emit confirmPaymentToSeller(\r\n            address(this),\r\n            seller,\r\n            totalPrice,\r\n            order_status.SUCCESS\r\n        );\r\n    }\r\n\r\n    function handleCancelOrder() public {\r\n        require(msg.sender == owner, \"Not permission\");\r\n        // require(\r\n        //     address(this).balance == totalPrice,\r\n        //     \"Balance not equal totalPrice\"\r\n        // );\r\n        owner.transfer(address(this).balance);\r\n        state = order_status.ABORT;\r\n        cancelTime = block.timestamp;\r\n        emit confirmPaymentToSeller(\r\n            address(this),\r\n            owner,\r\n            totalPrice,\r\n            order_status.ABORT\r\n        );\r\n    }\r\n    function getOrderInfo() public view returns (OrderInfo memory) {\r\n        return\r\n            OrderInfo(\r\n                getAddress(),\r\n                owner,\r\n                seller,\r\n                totalPrice,\r\n                totalProduct\r\n            );\r\n    }\r\n}",
  "sourcePath": "E:\\ATN-2022\\Warehouse-Protection\\warehouse-fe-blockchain\\contracts\\Order.sol",
  "compiler": {
    "name": "solc",
    "version": "0.8.17+commit.8df45f5f.Emscripten.clang"
  },
  "schemaVersion": "3.4.10",
  "updatedAt": "2022-11-24T07:25:19.180Z",
  "devdoc": {
    "kind": "dev",
    "methods": {},
    "version": 1
  },
  "userdoc": {
    "kind": "user",
    "methods": {},
    "version": 1
  }
}