{
  "contractName": "Order",
  "abi": [
    {
      "inputs": [
        {
          "internalType": "address",
          "name": "_ownerAddress",
          "type": "address"
        },
        {
          "internalType": "address",
          "name": "_seller",
          "type": "address"
        },
        {
          "internalType": "uint256",
          "name": "_shippingPrice",
          "type": "uint256"
        },
        {
          "internalType": "uint256",
          "name": "_totalProduct",
          "type": "uint256"
        },
        {
          "internalType": "uint256",
          "name": "_deadline",
          "type": "uint256"
        }
      ],
      "stateMutability": "nonpayable",
      "type": "constructor"
    },
    {
      "anonymous": false,
      "inputs": [
        {
          "indexed": false,
          "internalType": "enum Order.order_status",
          "name": "state",
          "type": "uint8"
        }
      ],
      "name": "confirmCancelOrderEvent",
      "type": "event"
    },
    {
      "anonymous": false,
      "inputs": [
        {
          "indexed": false,
          "internalType": "enum Order.order_status",
          "name": "state",
          "type": "uint8"
        }
      ],
      "name": "confirmOrderEvent",
      "type": "event"
    },
    {
      "anonymous": false,
      "inputs": [
        {
          "indexed": false,
          "internalType": "address",
          "name": "from",
          "type": "address"
        },
        {
          "indexed": false,
          "internalType": "address payable",
          "name": "to",
          "type": "address"
        },
        {
          "indexed": false,
          "internalType": "uint256",
          "name": "value",
          "type": "uint256"
        },
        {
          "indexed": false,
          "internalType": "enum Order.order_status",
          "name": "state",
          "type": "uint8"
        }
      ],
      "name": "confirmPaymentToSellerEvent",
      "type": "event"
    },
    {
      "anonymous": false,
      "inputs": [
        {
          "indexed": false,
          "internalType": "address",
          "name": "from",
          "type": "address"
        },
        {
          "indexed": false,
          "internalType": "address",
          "name": "to",
          "type": "address"
        },
        {
          "indexed": false,
          "internalType": "uint256",
          "name": "value",
          "type": "uint256"
        },
        {
          "indexed": false,
          "internalType": "enum Order.order_status",
          "name": "state",
          "type": "uint8"
        }
      ],
      "name": "confirmPurchaseEvent",
      "type": "event"
    },
    {
      "anonymous": false,
      "inputs": [
        {
          "indexed": false,
          "internalType": "enum Order.order_status",
          "name": "state",
          "type": "uint8"
        }
      ],
      "name": "confirmReturnOrderEvent",
      "type": "event"
    },
    {
      "anonymous": false,
      "inputs": [
        {
          "indexed": false,
          "internalType": "address",
          "name": "from",
          "type": "address"
        },
        {
          "indexed": false,
          "internalType": "address payable",
          "name": "toBuyer",
          "type": "address"
        },
        {
          "indexed": false,
          "internalType": "uint256",
          "name": "valueToBuyer",
          "type": "uint256"
        },
        {
          "indexed": false,
          "internalType": "address payable",
          "name": "toSeller",
          "type": "address"
        },
        {
          "indexed": false,
          "internalType": "uint256",
          "name": "valueToSeller",
          "type": "uint256"
        },
        {
          "indexed": false,
          "internalType": "enum Order.order_status",
          "name": "state",
          "type": "uint8"
        }
      ],
      "name": "confirmReturnedOrderEvent",
      "type": "event"
    },
    {
      "inputs": [],
      "name": "cancelTime",
      "outputs": [
        {
          "internalType": "uint256",
          "name": "",
          "type": "uint256"
        }
      ],
      "stateMutability": "view",
      "type": "function"
    },
    {
      "inputs": [],
      "name": "confirmedTime",
      "outputs": [
        {
          "internalType": "uint256",
          "name": "",
          "type": "uint256"
        }
      ],
      "stateMutability": "view",
      "type": "function"
    },
    {
      "inputs": [],
      "name": "deadline",
      "outputs": [
        {
          "internalType": "uint256",
          "name": "",
          "type": "uint256"
        }
      ],
      "stateMutability": "view",
      "type": "function"
    },
    {
      "inputs": [],
      "name": "paymentTime",
      "outputs": [
        {
          "internalType": "uint256",
          "name": "",
          "type": "uint256"
        }
      ],
      "stateMutability": "view",
      "type": "function"
    },
    {
      "inputs": [],
      "name": "purchaseTime",
      "outputs": [
        {
          "internalType": "uint256",
          "name": "",
          "type": "uint256"
        }
      ],
      "stateMutability": "view",
      "type": "function"
    },
    {
      "inputs": [],
      "name": "returnTime",
      "outputs": [
        {
          "internalType": "uint256",
          "name": "",
          "type": "uint256"
        }
      ],
      "stateMutability": "view",
      "type": "function"
    },
    {
      "inputs": [],
      "name": "returnedTime",
      "outputs": [
        {
          "internalType": "uint256",
          "name": "",
          "type": "uint256"
        }
      ],
      "stateMutability": "view",
      "type": "function"
    },
    {
      "inputs": [],
      "name": "shippingPrice",
      "outputs": [
        {
          "internalType": "uint256",
          "name": "",
          "type": "uint256"
        }
      ],
      "stateMutability": "view",
      "type": "function"
    },
    {
      "inputs": [],
      "name": "state",
      "outputs": [
        {
          "internalType": "enum Order.order_status",
          "name": "",
          "type": "uint8"
        }
      ],
      "stateMutability": "view",
      "type": "function"
    },
    {
      "inputs": [],
      "name": "totalPrice",
      "outputs": [
        {
          "internalType": "uint256",
          "name": "",
          "type": "uint256"
        }
      ],
      "stateMutability": "view",
      "type": "function"
    },
    {
      "inputs": [],
      "name": "totalProduct",
      "outputs": [
        {
          "internalType": "uint256",
          "name": "",
          "type": "uint256"
        }
      ],
      "stateMutability": "view",
      "type": "function"
    },
    {
      "inputs": [
        {
          "internalType": "uint256",
          "name": "",
          "type": "uint256"
        }
      ],
      "name": "transactionOrders",
      "outputs": [
        {
          "internalType": "address",
          "name": "beneficiaryAccount",
          "type": "address"
        },
        {
          "internalType": "uint256",
          "name": "amount",
          "type": "uint256"
        },
        {
          "internalType": "enum Order.order_status",
          "name": "state",
          "type": "uint8"
        },
        {
          "internalType": "uint256",
          "name": "timestamp",
          "type": "uint256"
        }
      ],
      "stateMutability": "view",
      "type": "function"
    },
    {
      "inputs": [],
      "name": "getAddress",
      "outputs": [
        {
          "internalType": "address",
          "name": "",
          "type": "address"
        }
      ],
      "stateMutability": "view",
      "type": "function"
    },
    {
      "inputs": [],
      "name": "getBalance",
      "outputs": [
        {
          "internalType": "uint256",
          "name": "",
          "type": "uint256"
        }
      ],
      "stateMutability": "view",
      "type": "function"
    },
    {
      "inputs": [],
      "name": "confirmPurchase",
      "outputs": [],
      "stateMutability": "payable",
      "type": "function"
    },
    {
      "inputs": [
        {
          "internalType": "uint256",
          "name": "_newDeadline",
          "type": "uint256"
        }
      ],
      "name": "confirmOrder",
      "outputs": [],
      "stateMutability": "nonpayable",
      "type": "function"
    },
    {
      "inputs": [],
      "name": "confirmCancelOrder",
      "outputs": [],
      "stateMutability": "nonpayable",
      "type": "function"
    },
    {
      "inputs": [],
      "name": "handleWithDrawForBuyerWhenSellerNotConfirm",
      "outputs": [],
      "stateMutability": "nonpayable",
      "type": "function"
    },
    {
      "inputs": [],
      "name": "handleWithDrawForSellerWhenDeliveryExpired",
      "outputs": [],
      "stateMutability": "nonpayable",
      "type": "function"
    },
    {
      "inputs": [],
      "name": "confirmPaymentToSeller",
      "outputs": [],
      "stateMutability": "nonpayable",
      "type": "function"
    },
    {
      "inputs": [
        {
          "internalType": "uint256",
          "name": "_newDeadline",
          "type": "uint256"
        }
      ],
      "name": "confirmReturnOrder",
      "outputs": [],
      "stateMutability": "nonpayable",
      "type": "function"
    },
    {
      "inputs": [],
      "name": "confirmReturnedOrder",
      "outputs": [],
      "stateMutability": "nonpayable",
      "type": "function"
    },
    {
      "inputs": [],
      "name": "handleWithDrawForBuyerWhenReturnExpired",
      "outputs": [],
      "stateMutability": "nonpayable",
      "type": "function"
    },
    {
      "inputs": [],
      "name": "getOrderInfo",
      "outputs": [
        {
          "components": [
            {
              "internalType": "address",
              "name": "orderAddress",
              "type": "address"
            },
            {
              "internalType": "address",
              "name": "buyer",
              "type": "address"
            },
            {
              "internalType": "address",
              "name": "seller",
              "type": "address"
            },
            {
              "internalType": "uint256",
              "name": "totalPrice",
              "type": "uint256"
            },
            {
              "internalType": "uint256",
              "name": "shippingPrice",
              "type": "uint256"
            },
            {
              "internalType": "uint256",
              "name": "totalProduct",
              "type": "uint256"
            },
            {
              "internalType": "enum Order.order_status",
              "name": "state",
              "type": "uint8"
            },
            {
              "internalType": "uint256",
              "name": "purchaseTime",
              "type": "uint256"
            },
            {
              "internalType": "uint256",
              "name": "confirmedTime",
              "type": "uint256"
            },
            {
              "internalType": "uint256",
              "name": "cancelTime",
              "type": "uint256"
            },
            {
              "internalType": "uint256",
              "name": "paymentTime",
              "type": "uint256"
            },
            {
              "internalType": "uint256",
              "name": "returnTime",
              "type": "uint256"
            },
            {
              "internalType": "uint256",
              "name": "returnedTime",
              "type": "uint256"
            },
            {
              "internalType": "uint256",
              "name": "dealine",
              "type": "uint256"
            },
            {
              "internalType": "uint256",
              "name": "balance",
              "type": "uint256"
            }
          ],
          "internalType": "struct Order.OrderInfo",
          "name": "",
          "type": "tuple"
        }
      ],
      "stateMutability": "view",
      "type": "function"
    },
    {
      "inputs": [],
      "name": "getAllTransactionOrder",
      "outputs": [
        {
          "components": [
            {
              "internalType": "address",
              "name": "beneficiaryAccount",
              "type": "address"
            },
            {
              "internalType": "uint256",
              "name": "amount",
              "type": "uint256"
            },
            {
              "internalType": "enum Order.order_status",
              "name": "state",
              "type": "uint8"
            },
            {
              "internalType": "uint256",
              "name": "timestamp",
              "type": "uint256"
            }
          ],
          "internalType": "struct Order.TransactionOrder[]",
          "name": "",
          "type": "tuple[]"
        }
      ],
      "stateMutability": "view",
      "type": "function"
    }
  ],
  "bytecode": "0x60806040523480156200001157600080fd5b50604051620037053803806200370583398181016040528101906200003791906200017d565b846000806101000a81548173ffffffffffffffffffffffffffffffffffffffff021916908373ffffffffffffffffffffffffffffffffffffffff16021790555083600160006101000a81548173ffffffffffffffffffffffffffffffffffffffff021916908373ffffffffffffffffffffffffffffffffffffffff160217905550826003819055508160048190555080600b81905550505050505062000205565b600080fd5b600073ffffffffffffffffffffffffffffffffffffffff82169050919050565b60006200010a82620000dd565b9050919050565b6200011c81620000fd565b81146200012857600080fd5b50565b6000815190506200013c8162000111565b92915050565b6000819050919050565b620001578162000142565b81146200016357600080fd5b50565b60008151905062000177816200014c565b92915050565b600080600080600060a086880312156200019c576200019b620000d8565b5b6000620001ac888289016200012b565b9550506020620001bf888289016200012b565b9450506040620001d28882890162000166565b9350506060620001e58882890162000166565b9250506080620001f88882890162000166565b9150509295509295909350565b6134f080620002156000396000f3fe6080604052600436106101665760003560e01c80638ac7d79c116100d1578063ab0d92dd1161008a578063cfe97dc411610064578063cfe97dc41461049e578063d6960697146104b5578063f710809b146104bf578063ff408833146104ff57610166565b8063ab0d92dd14610431578063b1988acf1461045c578063c19d93fb1461047357610166565b80638ac7d79c146103315780638e4b70101461035a578063921862a61461038557806398568366146103b0578063a6854f8e146103db578063a911715c1461040657610166565b8063566bceef11610123578063566bceef1461026d57806357b36929146102985780636f674685146102c157806370715030146102d857806381e4313914610303578063826ebf761461031a57610166565b806301efb6c81461016b5780630419677c1461019657806312065fe0146101c157806329dcb0cf146101ec57806338cc4831146102175780634e3cc1fe14610242575b600080fd5b34801561017757600080fd5b50610180610516565b60405161018d9190612c9d565b60405180910390f35b3480156101a257600080fd5b506101ab61064e565b6040516101b89190612cc8565b60405180910390f35b3480156101cd57600080fd5b506101d6610654565b6040516101e39190612cc8565b60405180910390f35b3480156101f857600080fd5b5061020161065c565b60405161020e9190612cc8565b60405180910390f35b34801561022357600080fd5b5061022c610662565b6040516102399190612cf2565b60405180910390f35b34801561024e57600080fd5b5061025761066a565b6040516102649190612cc8565b60405180910390f35b34801561027957600080fd5b50610282610670565b60405161028f9190612cc8565b60405180910390f35b3480156102a457600080fd5b506102bf60048036038101906102ba9190612d3e565b610676565b005b3480156102cd57600080fd5b506102d6610907565b005b3480156102e457600080fd5b506102ed610cdc565b6040516102fa9190612cc8565b60405180910390f35b34801561030f57600080fd5b50610318610ce2565b005b34801561032657600080fd5b5061032f6112a5565b005b34801561033d57600080fd5b5061035860048036038101906103539190612d3e565b611819565b005b34801561036657600080fd5b5061036f611aac565b60405161037c9190612cc8565b60405180910390f35b34801561039157600080fd5b5061039a611ab2565b6040516103a79190612e6f565b60405180910390f35b3480156103bc57600080fd5b506103c5611bbc565b6040516103d29190612cc8565b60405180910390f35b3480156103e757600080fd5b506103f0611bc2565b6040516103fd9190612cc8565b60405180910390f35b34801561041257600080fd5b5061041b611bc8565b6040516104289190612cc8565b60405180910390f35b34801561043d57600080fd5b50610446611bce565b6040516104539190612cc8565b60405180910390f35b34801561046857600080fd5b50610471611bd4565b005b34801561047f57600080fd5b50610488611f56565b6040516104959190612ea0565b60405180910390f35b3480156104aa57600080fd5b506104b3611f69565b005b6104bd61230e565b005b3480156104cb57600080fd5b506104e660048036038101906104e19190612d3e565b61264d565b6040516104f69493929190612ebb565b60405180910390f35b34801561050b57600080fd5b506105146126ba565b005b61051e6129cd565b604051806101e00160405280610532610662565b73ffffffffffffffffffffffffffffffffffffffff16815260200160008054906101000a900473ffffffffffffffffffffffffffffffffffffffff1673ffffffffffffffffffffffffffffffffffffffff168152602001600160009054906101000a900473ffffffffffffffffffffffffffffffffffffffff1673ffffffffffffffffffffffffffffffffffffffff168152602001600254815260200160035481526020016004548152602001600d60009054906101000a900460ff16600581111561060157610600612af1565b5b815260200160055481526020016006548152602001600754815260200160085481526020016009548152602001600a548152602001600b548152602001610646610654565b815250905090565b60085481565b600047905090565b600b5481565b600030905090565b600a5481565b60045481565b60008054906101000a900473ffffffffffffffffffffffffffffffffffffffff1673ffffffffffffffffffffffffffffffffffffffff163373ffffffffffffffffffffffffffffffffffffffff1614610704576040517f08c379a00000000000000000000000000000000000000000000000000000000081526004016106fb90612f5d565b60405180910390fd5b6001600581111561071857610717612af1565b5b600d60009054906101000a900460ff16600581111561073a57610739612af1565b5b1461077a576040517f08c379a000000000000000000000000000000000000000000000000000000000815260040161077190612fef565b60405180910390fd5b6004600d60006101000a81548160ff021916908360058111156107a05761079f612af1565b5b02179055504260098190555080600b81905550600060405180608001604052803373ffffffffffffffffffffffffffffffffffffffff16815260200160008152602001600d60009054906101000a900460ff16600581111561080557610804612af1565b5b81526020016009548152509050600c81908060018154018082558091505060019003906000526020600020906004020160009091909190915060008201518160000160006101000a81548173ffffffffffffffffffffffffffffffffffffffff021916908373ffffffffffffffffffffffffffffffffffffffff1602179055506020820151816001015560408201518160020160006101000a81548160ff021916908360058111156108ba576108b9612af1565b5b02179055506060820151816003015550507facca1bfa13be050eb725ae7a93cb25004ee04e61475ec23f75c143ee54e4939f60046040516108fb9190612ea0565b60405180910390a15050565b600b546103e842610918919061303e565b11610958576040517f08c379a000000000000000000000000000000000000000000000000000000000815260040161094f906130f2565b60405180910390fd5b600160009054906101000a900473ffffffffffffffffffffffffffffffffffffffff1673ffffffffffffffffffffffffffffffffffffffff163373ffffffffffffffffffffffffffffffffffffffff16146109e8576040517f08c379a00000000000000000000000000000000000000000000000000000000081526004016109df90612f5d565b60405180910390fd5b600160058111156109fc576109fb612af1565b5b600d60009054906101000a900460ff166005811115610a1e57610a1d612af1565b5b14610a5e576040517f08c379a0000000000000000000000000000000000000000000000000000000008152600401610a5590612fef565b60405180910390fd5b60004711610aa1576040517f08c379a0000000000000000000000000000000000000000000000000000000008152600401610a989061315e565b60405180910390fd5b600160009054906101000a900473ffffffffffffffffffffffffffffffffffffffff1673ffffffffffffffffffffffffffffffffffffffff166108fc479081150290604051600060405180830381858888f19350505050158015610b09573d6000803e3d6000fd5b506003600d60006101000a81548160ff02191690836005811115610b3057610b2f612af1565b5b02179055504260058190555060006040518060800160405280600160009054906101000a900473ffffffffffffffffffffffffffffffffffffffff1673ffffffffffffffffffffffffffffffffffffffff1681526020016002548152602001600d60009054906101000a900460ff166005811115610bb157610bb0612af1565b5b81526020016005548152509050600c81908060018154018082558091505060019003906000526020600020906004020160009091909190915060008201518160000160006101000a81548173ffffffffffffffffffffffffffffffffffffffff021916908373ffffffffffffffffffffffffffffffffffffffff1602179055506020820151816001015560408201518160020160006101000a81548160ff02191690836005811115610c6657610c65612af1565b5b02179055506060820151816003015550507fce244a866e4105e01f5daf8b8de5810a6fdd632afd98f0d08499423441c1a31630600160009054906101000a900473ffffffffffffffffffffffffffffffffffffffff166002546003604051610cd1949392919061319f565b60405180910390a150565b60035481565b600b546103e842610cf3919061303e565b11610d33576040517f08c379a0000000000000000000000000000000000000000000000000000000008152600401610d2a906130f2565b60405180910390fd5b60008054906101000a900473ffffffffffffffffffffffffffffffffffffffff1673ffffffffffffffffffffffffffffffffffffffff163373ffffffffffffffffffffffffffffffffffffffff1614610dc1576040517f08c379a0000000000000000000000000000000000000000000000000000000008152600401610db890612f5d565b60405180910390fd5b60046005811115610dd557610dd4612af1565b5b600d60009054906101000a900460ff166005811115610df757610df6612af1565b5b14610e37576040517f08c379a0000000000000000000000000000000000000000000000000000000008152600401610e2e90613256565b60405180910390fd5b60004711610e7a576040517f08c379a0000000000000000000000000000000000000000000000000000000008152600401610e719061315e565b60405180910390fd5b6005600d60006101000a81548160ff02191690836005811115610ea057610e9f612af1565b5b021790555042600a81905550600160009054906101000a900473ffffffffffffffffffffffffffffffffffffffff1673ffffffffffffffffffffffffffffffffffffffff166108fc6003549081150290604051600060405180830381858888f19350505050158015610f16573d6000803e3d6000fd5b5060006040518060800160405280600160009054906101000a900473ffffffffffffffffffffffffffffffffffffffff1673ffffffffffffffffffffffffffffffffffffffff1681526020016003548152602001600d60009054906101000a900460ff166005811115610f8c57610f8b612af1565b5b8152602001600a548152509050600c81908060018154018082558091505060019003906000526020600020906004020160009091909190915060008201518160000160006101000a81548173ffffffffffffffffffffffffffffffffffffffff021916908373ffffffffffffffffffffffffffffffffffffffff1602179055506020820151816001015560408201518160020160006101000a81548160ff0219169083600581111561104157611040612af1565b5b021790555060608201518160030155505060008054906101000a900473ffffffffffffffffffffffffffffffffffffffff1673ffffffffffffffffffffffffffffffffffffffff166108fc6003544761109a9190613276565b9081150290604051600060405180830381858888f193505050501580156110c5573d6000803e3d6000fd5b506000604051806080016040528060008054906101000a900473ffffffffffffffffffffffffffffffffffffffff1673ffffffffffffffffffffffffffffffffffffffff16815260200160035460025461111f9190613276565b8152602001600d60009054906101000a900460ff16600581111561114657611145612af1565b5b8152602001600a548152509050600c81908060018154018082558091505060019003906000526020600020906004020160009091909190915060008201518160000160006101000a81548173ffffffffffffffffffffffffffffffffffffffff021916908373ffffffffffffffffffffffffffffffffffffffff1602179055506020820151816001015560408201518160020160006101000a81548160ff021916908360058111156111fb576111fa612af1565b5b02179055506060820151816003015550507fab7091e501a850216686bfcc48e21aeb92fd7ad3e559933b25e6b98f4a502e6c3060008054906101000a900473ffffffffffffffffffffffffffffffffffffffff1660035460025461125f9190613276565b600160009054906101000a900473ffffffffffffffffffffffffffffffffffffffff166003546005604051611299969594939291906132aa565b60405180910390a15050565b600160009054906101000a900473ffffffffffffffffffffffffffffffffffffffff1673ffffffffffffffffffffffffffffffffffffffff163373ffffffffffffffffffffffffffffffffffffffff1614611335576040517f08c379a000000000000000000000000000000000000000000000000000000000815260040161132c90612f5d565b60405180910390fd5b60004711611378576040517f08c379a000000000000000000000000000000000000000000000000000000000815260040161136f9061315e565b60405180910390fd5b6004600581111561138c5761138b612af1565b5b600d60009054906101000a900460ff1660058111156113ae576113ad612af1565b5b146113ee576040517f08c379a00000000000000000000000000000000000000000000000000000000081526004016113e590613256565b60405180910390fd5b6005600d60006101000a81548160ff0219169083600581111561141457611413612af1565b5b021790555042600a81905550600160009054906101000a900473ffffffffffffffffffffffffffffffffffffffff1673ffffffffffffffffffffffffffffffffffffffff166108fc6003549081150290604051600060405180830381858888f1935050505015801561148a573d6000803e3d6000fd5b5060006040518060800160405280600160009054906101000a900473ffffffffffffffffffffffffffffffffffffffff1673ffffffffffffffffffffffffffffffffffffffff1681526020016003548152602001600d60009054906101000a900460ff166005811115611500576114ff612af1565b5b8152602001600a548152509050600c81908060018154018082558091505060019003906000526020600020906004020160009091909190915060008201518160000160006101000a81548173ffffffffffffffffffffffffffffffffffffffff021916908373ffffffffffffffffffffffffffffffffffffffff1602179055506020820151816001015560408201518160020160006101000a81548160ff021916908360058111156115b5576115b4612af1565b5b021790555060608201518160030155505060008054906101000a900473ffffffffffffffffffffffffffffffffffffffff1673ffffffffffffffffffffffffffffffffffffffff166108fc6003544761160e9190613276565b9081150290604051600060405180830381858888f19350505050158015611639573d6000803e3d6000fd5b506000604051806080016040528060008054906101000a900473ffffffffffffffffffffffffffffffffffffffff1673ffffffffffffffffffffffffffffffffffffffff1681526020016003546002546116939190613276565b8152602001600d60009054906101000a900460ff1660058111156116ba576116b9612af1565b5b8152602001600a548152509050600c81908060018154018082558091505060019003906000526020600020906004020160009091909190915060008201518160000160006101000a81548173ffffffffffffffffffffffffffffffffffffffff021916908373ffffffffffffffffffffffffffffffffffffffff1602179055506020820151816001015560408201518160020160006101000a81548160ff0219169083600581111561176f5761176e612af1565b5b02179055506060820151816003015550507fab7091e501a850216686bfcc48e21aeb92fd7ad3e559933b25e6b98f4a502e6c3060008054906101000a900473ffffffffffffffffffffffffffffffffffffffff166003546002546117d39190613276565b600160009054906101000a900473ffffffffffffffffffffffffffffffffffffffff16600354600560405161180d969594939291906132aa565b60405180910390a15050565b600160009054906101000a900473ffffffffffffffffffffffffffffffffffffffff1673ffffffffffffffffffffffffffffffffffffffff163373ffffffffffffffffffffffffffffffffffffffff16146118a9576040517f08c379a00000000000000000000000000000000000000000000000000000000081526004016118a090612f5d565b60405180910390fd5b600060058111156118bd576118bc612af1565b5b600d60009054906101000a900460ff1660058111156118df576118de612af1565b5b1461191f576040517f08c379a00000000000000000000000000000000000000000000000000000000081526004016119169061337d565b60405180910390fd5b6001600d60006101000a81548160ff0219169083600581111561194557611944612af1565b5b02179055504260068190555080600b81905550600060405180608001604052803373ffffffffffffffffffffffffffffffffffffffff16815260200160008152602001600d60009054906101000a900460ff1660058111156119aa576119a9612af1565b5b81526020016006548152509050600c81908060018154018082558091505060019003906000526020600020906004020160009091909190915060008201518160000160006101000a81548173ffffffffffffffffffffffffffffffffffffffff021916908373ffffffffffffffffffffffffffffffffffffffff1602179055506020820151816001015560408201518160020160006101000a81548160ff02191690836005811115611a5f57611a5e612af1565b5b02179055506060820151816003015550507f9da956bcab8fa91336320efb87c683b4536b21e701ba93b99780cd10c11d0dcd6001604051611aa09190612ea0565b60405180910390a15050565b60055481565b60606000600c805480602002602001604051908101604052809291908181526020016000905b82821015611baf57838290600052602060002090600402016040518060800160405290816000820160009054906101000a900473ffffffffffffffffffffffffffffffffffffffff1673ffffffffffffffffffffffffffffffffffffffff1673ffffffffffffffffffffffffffffffffffffffff168152602001600182015481526020016002820160009054906101000a900460ff166005811115611b8057611b7f612af1565b5b6005811115611b9257611b91612af1565b5b815260200160038201548152505081526020019060010190611ad8565b5050505090508091505090565b60095481565b60065481565b60075481565b60025481565b60008054906101000a900473ffffffffffffffffffffffffffffffffffffffff1673ffffffffffffffffffffffffffffffffffffffff163373ffffffffffffffffffffffffffffffffffffffff1614611c62576040517f08c379a0000000000000000000000000000000000000000000000000000000008152600401611c5990612f5d565b60405180910390fd5b60004711611ca5576040517f08c379a0000000000000000000000000000000000000000000000000000000008152600401611c9c9061315e565b60405180910390fd5b60016005811115611cb957611cb8612af1565b5b600d60009054906101000a900460ff166005811115611cdb57611cda612af1565b5b14611d1b576040517f08c379a0000000000000000000000000000000000000000000000000000000008152600401611d1290612fef565b60405180910390fd5b600160009054906101000a900473ffffffffffffffffffffffffffffffffffffffff1673ffffffffffffffffffffffffffffffffffffffff166108fc479081150290604051600060405180830381858888f19350505050158015611d83573d6000803e3d6000fd5b506003600d60006101000a81548160ff02191690836005811115611daa57611da9612af1565b5b02179055504260088190555060006040518060800160405280600160009054906101000a900473ffffffffffffffffffffffffffffffffffffffff1673ffffffffffffffffffffffffffffffffffffffff1681526020016002548152602001600d60009054906101000a900460ff166005811115611e2b57611e2a612af1565b5b81526020016008548152509050600c81908060018154018082558091505060019003906000526020600020906004020160009091909190915060008201518160000160006101000a81548173ffffffffffffffffffffffffffffffffffffffff021916908373ffffffffffffffffffffffffffffffffffffffff1602179055506020820151816001015560408201518160020160006101000a81548160ff02191690836005811115611ee057611edf612af1565b5b02179055506060820151816003015550507fce244a866e4105e01f5daf8b8de5810a6fdd632afd98f0d08499423441c1a31630600160009054906101000a900473ffffffffffffffffffffffffffffffffffffffff166002546003604051611f4b949392919061319f565b60405180910390a150565b600d60009054906101000a900460ff1681565b600b546103e842611f7a919061303e565b11611fba576040517f08c379a0000000000000000000000000000000000000000000000000000000008152600401611fb1906130f2565b60405180910390fd5b60008054906101000a900473ffffffffffffffffffffffffffffffffffffffff1673ffffffffffffffffffffffffffffffffffffffff163373ffffffffffffffffffffffffffffffffffffffff1614612048576040517f08c379a000000000000000000000000000000000000000000000000000000000815260040161203f90612f5d565b60405180910390fd5b6000600581111561205c5761205b612af1565b5b600d60009054906101000a900460ff16600581111561207e5761207d612af1565b5b146120be576040517f08c379a00000000000000000000000000000000000000000000000000000000081526004016120b59061337d565b60405180910390fd5b60004711612101576040517f08c379a00000000000000000000000000000000000000000000000000000000081526004016120f89061315e565b60405180910390fd5b60008054906101000a900473ffffffffffffffffffffffffffffffffffffffff1673ffffffffffffffffffffffffffffffffffffffff166108fc479081150290604051600060405180830381858888f19350505050158015612167573d6000803e3d6000fd5b506002600d60006101000a81548160ff0219169083600581111561218e5761218d612af1565b5b0217905550426007819055506000604051806080016040528060008054906101000a900473ffffffffffffffffffffffffffffffffffffffff1673ffffffffffffffffffffffffffffffffffffffff1681526020016002548152602001600d60009054906101000a900460ff16600581111561220d5761220c612af1565b5b81526020016007548152509050600c81908060018154018082558091505060019003906000526020600020906004020160009091909190915060008201518160000160006101000a81548173ffffffffffffffffffffffffffffffffffffffff021916908373ffffffffffffffffffffffffffffffffffffffff1602179055506020820151816001015560408201518160020160006101000a81548160ff021916908360058111156122c2576122c1612af1565b5b02179055506060820151816003015550507f39b22c6fe987e72c777e4ce25a6e4e9a473cc255b6a6cc6ff01b6bc56982eea460026040516123039190612ea0565b60405180910390a150565b60008054906101000a900473ffffffffffffffffffffffffffffffffffffffff1673ffffffffffffffffffffffffffffffffffffffff163373ffffffffffffffffffffffffffffffffffffffff161461239c576040517f08c379a000000000000000000000000000000000000000000000000000000000815260040161239390612f5d565b60405180910390fd5b600060058111156123b0576123af612af1565b5b600d60009054906101000a900460ff1660058111156123d2576123d1612af1565b5b14612412576040517f08c379a00000000000000000000000000000000000000000000000000000000081526004016124099061337d565b60405180910390fd5b60003411612455576040517f08c379a000000000000000000000000000000000000000000000000000000000815260040161244c906133e9565b60405180910390fd5b343373ffffffffffffffffffffffffffffffffffffffff1631116124ae576040517f08c379a00000000000000000000000000000000000000000000000000000000081526004016124a590613455565b60405180910390fd5b34600281905550426005819055506000600d60006101000a81548160ff021916908360058111156124e2576124e1612af1565b5b0217905550600060405180608001604052806124fc610662565b73ffffffffffffffffffffffffffffffffffffffff168152602001348152602001600d60009054906101000a900460ff16600581111561253f5761253e612af1565b5b81526020016005548152509050600c81908060018154018082558091505060019003906000526020600020906004020160009091909190915060008201518160000160006101000a81548173ffffffffffffffffffffffffffffffffffffffff021916908373ffffffffffffffffffffffffffffffffffffffff1602179055506020820151816001015560408201518160020160006101000a81548160ff021916908360058111156125f4576125f3612af1565b5b02179055506060820151816003015550507fc20bc9ac6bb8fd7d3c66da8c0a5b5828a145aca18b25f4b2843562a2146650d23361262f610662565b3460006040516126429493929190613475565b60405180910390a150565b600c818154811061265d57600080fd5b90600052602060002090600402016000915090508060000160009054906101000a900473ffffffffffffffffffffffffffffffffffffffff16908060010154908060020160009054906101000a900460ff16908060030154905084565b600160009054906101000a900473ffffffffffffffffffffffffffffffffffffffff1673ffffffffffffffffffffffffffffffffffffffff163373ffffffffffffffffffffffffffffffffffffffff161461274a576040517f08c379a000000000000000000000000000000000000000000000000000000000815260040161274190612f5d565b60405180910390fd5b6000600581111561275e5761275d612af1565b5b600d60009054906101000a900460ff1660058111156127805761277f612af1565b5b146127c0576040517f08c379a00000000000000000000000000000000000000000000000000000000081526004016127b79061337d565b60405180910390fd5b60008054906101000a900473ffffffffffffffffffffffffffffffffffffffff1673ffffffffffffffffffffffffffffffffffffffff166108fc479081150290604051600060405180830381858888f19350505050158015612826573d6000803e3d6000fd5b506002600d60006101000a81548160ff0219169083600581111561284d5761284c612af1565b5b0217905550426007819055506000604051806080016040528060008054906101000a900473ffffffffffffffffffffffffffffffffffffffff1673ffffffffffffffffffffffffffffffffffffffff1681526020016002548152602001600d60009054906101000a900460ff1660058111156128cc576128cb612af1565b5b81526020016007548152509050600c81908060018154018082558091505060019003906000526020600020906004020160009091909190915060008201518160000160006101000a81548173ffffffffffffffffffffffffffffffffffffffff021916908373ffffffffffffffffffffffffffffffffffffffff1602179055506020820151816001015560408201518160020160006101000a81548160ff0219169083600581111561298157612980612af1565b5b02179055506060820151816003015550507f39b22c6fe987e72c777e4ce25a6e4e9a473cc255b6a6cc6ff01b6bc56982eea460026040516129c29190612ea0565b60405180910390a150565b604051806101e00160405280600073ffffffffffffffffffffffffffffffffffffffff168152602001600073ffffffffffffffffffffffffffffffffffffffff168152602001600073ffffffffffffffffffffffffffffffffffffffff16815260200160008152602001600081526020016000815260200160006005811115612a5957612a58612af1565b5b815260200160008152602001600081526020016000815260200160008152602001600081526020016000815260200160008152602001600081525090565b600073ffffffffffffffffffffffffffffffffffffffff82169050919050565b6000612ac282612a97565b9050919050565b612ad281612ab7565b82525050565b6000819050919050565b612aeb81612ad8565b82525050565b7f4e487b7100000000000000000000000000000000000000000000000000000000600052602160045260246000fd5b60068110612b3157612b30612af1565b5b50565b6000819050612b4282612b20565b919050565b6000612b5282612b34565b9050919050565b612b6281612b47565b82525050565b6101e082016000820151612b7f6000850182612ac9565b506020820151612b926020850182612ac9565b506040820151612ba56040850182612ac9565b506060820151612bb86060850182612ae2565b506080820151612bcb6080850182612ae2565b5060a0820151612bde60a0850182612ae2565b5060c0820151612bf160c0850182612b59565b5060e0820151612c0460e0850182612ae2565b50610100820151612c19610100850182612ae2565b50610120820151612c2e610120850182612ae2565b50610140820151612c43610140850182612ae2565b50610160820151612c58610160850182612ae2565b50610180820151612c6d610180850182612ae2565b506101a0820151612c826101a0850182612ae2565b506101c0820151612c976101c0850182612ae2565b50505050565b60006101e082019050612cb36000830184612b68565b92915050565b612cc281612ad8565b82525050565b6000602082019050612cdd6000830184612cb9565b92915050565b612cec81612ab7565b82525050565b6000602082019050612d076000830184612ce3565b92915050565b600080fd5b612d1b81612ad8565b8114612d2657600080fd5b50565b600081359050612d3881612d12565b92915050565b600060208284031215612d5457612d53612d0d565b5b6000612d6284828501612d29565b91505092915050565b600081519050919050565b600082825260208201905092915050565b6000819050602082019050919050565b608082016000820151612dad6000850182612ac9565b506020820151612dc06020850182612ae2565b506040820151612dd36040850182612b59565b506060820151612de66060850182612ae2565b50505050565b6000612df88383612d97565b60808301905092915050565b6000602082019050919050565b6000612e1c82612d6b565b612e268185612d76565b9350612e3183612d87565b8060005b83811015612e62578151612e498882612dec565b9750612e5483612e04565b925050600181019050612e35565b5085935050505092915050565b60006020820190508181036000830152612e898184612e11565b905092915050565b612e9a81612b47565b82525050565b6000602082019050612eb56000830184612e91565b92915050565b6000608082019050612ed06000830187612ce3565b612edd6020830186612cb9565b612eea6040830185612e91565b612ef76060830184612cb9565b95945050505050565b600082825260208201905092915050565b7f4e6f74207065726d697373696f6e000000000000000000000000000000000000600082015250565b6000612f47600e83612f00565b9150612f5282612f11565b602082019050919050565b60006020820190508181036000830152612f7681612f3a565b9050919050565b7f4f7264657220737461747573206d7573742062652073746174757320434f4e4660008201527f49524d4544000000000000000000000000000000000000000000000000000000602082015250565b6000612fd9602583612f00565b9150612fe482612f7d565b604082019050919050565b6000602082019050818103600083015261300881612fcc565b9050919050565b7f4e487b7100000000000000000000000000000000000000000000000000000000600052601160045260246000fd5b600061304982612ad8565b915061305483612ad8565b925082820261306281612ad8565b915082820484148315176130795761307861300f565b5b5092915050565b7f50726573656e742074696d65206d75737420626520677265617465722064656160008201527f646c696e65000000000000000000000000000000000000000000000000000000602082015250565b60006130dc602583612f00565b91506130e782613080565b604082019050919050565b6000602082019050818103600083015261310b816130cf565b9050919050565b7f42616c616e6365206f66206f72646572206973206e6f7420656e6f7567680000600082015250565b6000613148601e83612f00565b915061315382613112565b602082019050919050565b600060208201905081810360008301526131778161313b565b9050919050565b600061318982612a97565b9050919050565b6131998161317e565b82525050565b60006080820190506131b46000830187612ce3565b6131c16020830186613190565b6131ce6040830185612cb9565b6131db6060830184612e91565b95945050505050565b7f4f7264657220737461747573206d75737420626520737461747573205245545560008201527f524e000000000000000000000000000000000000000000000000000000000000602082015250565b6000613240602283612f00565b915061324b826131e4565b604082019050919050565b6000602082019050818103600083015261326f81613233565b9050919050565b600061328182612ad8565b915061328c83612ad8565b92508282039050818111156132a4576132a361300f565b5b92915050565b600060c0820190506132bf6000830189612ce3565b6132cc6020830188613190565b6132d96040830187612cb9565b6132e66060830186613190565b6132f36080830185612cb9565b61330060a0830184612e91565b979650505050505050565b7f4f7264657220737461747573206d757374206265207374617475732050454e4460008201527f494e470000000000000000000000000000000000000000000000000000000000602082015250565b6000613367602383612f00565b91506133728261330b565b604082019050919050565b600060208201905081810360008301526133968161335a565b9050919050565b7f56616c7565206d75737420626520677265617465722030000000000000000000600082015250565b60006133d3601783612f00565b91506133de8261339d565b602082019050919050565b60006020820190508181036000830152613402816133c6565b9050919050565b7f42616c616e6365206f66206163636f756e74206973206e6f7420656e6f756768600082015250565b600061343f602083612f00565b915061344a82613409565b602082019050919050565b6000602082019050818103600083015261346e81613432565b9050919050565b600060808201905061348a6000830187612ce3565b6134976020830186612ce3565b6134a46040830185612cb9565b6134b16060830184612e91565b9594505050505056fea2646970667358221220e3b4691c8c58f691536bebcbc66abc1d6bed976833615a6b442a16278e7fc7df64736f6c63430008110033",
  "immutableReferences": {},
  "source": "// SPDX-License-Identifier: GPL-3.0\r\n\r\npragma solidity >=0.7.0 <0.9.0;\r\n\r\ncontract Order {\r\n    struct OrderInfo {\r\n        address orderAddress;\r\n        address buyer;\r\n        address seller;\r\n        uint256 totalPrice;\r\n        uint256 shippingPrice;\r\n        uint256 totalProduct;\r\n        order_status state;\r\n        uint256 purchaseTime;\r\n        uint256 confirmedTime;\r\n        uint256 cancelTime;\r\n        uint256 paymentTime;\r\n        uint256 returnTime;\r\n        uint256 returnedTime;\r\n        uint256 dealine;\r\n        uint256 balance;\r\n    }\r\n    \r\n    struct TransactionOrder {\r\n        address beneficiaryAccount;\r\n        uint256 amount;\r\n        order_status state;\r\n        uint256 timestamp;\r\n    }\r\n\r\n    enum order_status {\r\n        PENDING,\r\n        CONFIRMED,\r\n        CANCEL,\r\n        SUCCESS,\r\n        RETURN,\r\n        RETURNED\r\n    }\r\n\r\n    address payable owner;\r\n    address payable seller;\r\n    uint256 public totalPrice;\r\n    uint256 public shippingPrice;\r\n    uint256 public totalProduct;\r\n\r\n    uint256 public purchaseTime;\r\n    uint256 public confirmedTime;\r\n    uint256 public cancelTime;\r\n    uint256 public paymentTime;\r\n    uint256 public returnTime;\r\n    uint256 public returnedTime;\r\n\r\n    uint256 public deadline;\r\n\r\n    TransactionOrder[] public transactionOrders;\r\n    order_status public state;\r\n\r\n    constructor(\r\n        address _ownerAddress,\r\n        address _seller,\r\n        uint256 _shippingPrice,\r\n        uint256 _totalProduct,\r\n        uint256 _deadline\r\n    ) {\r\n        owner = payable(_ownerAddress);\r\n        seller = payable(_seller);\r\n        shippingPrice = _shippingPrice;\r\n        totalProduct = _totalProduct;\r\n        deadline = _deadline;\r\n    }\r\n\r\n    event confirmPurchaseEvent(\r\n        address from,\r\n        address to,\r\n        uint256 value,\r\n        order_status state\r\n    );\r\n\r\n    event confirmOrderEvent(\r\n        order_status state\r\n    );\r\n\r\n    event confirmCancelOrderEvent(\r\n        order_status state\r\n    );\r\n\r\n    event confirmPaymentToSellerEvent(\r\n        address from,\r\n        address payable to,\r\n        uint256 value,\r\n        order_status state\r\n    );\r\n\r\n    event confirmReturnOrderEvent(\r\n        order_status state\r\n    );\r\n\r\n    event confirmReturnedOrderEvent(\r\n        address from,\r\n        address payable toBuyer,\r\n        uint256 valueToBuyer,\r\n        address payable toSeller,\r\n        uint256 valueToSeller,\r\n        order_status state\r\n    );\r\n\r\n    function getAddress() public view returns (address) {\r\n        return address(this);\r\n    }\r\n\r\n    function getBalance() public view returns (uint256) {\r\n        return address(this).balance;\r\n    }\r\n\r\n    function confirmPurchase() public payable {\r\n        require(msg.sender == owner, \"Not permission\");\r\n        require(\r\n            state == order_status.PENDING,\r\n            \"Order status must be status PENDING\"\r\n        );\r\n        require(\r\n            msg.value > 0,\r\n            \"Value must be greater 0\"\r\n        );\r\n        require(\r\n            msg.sender.balance > msg.value,\r\n            \"Balance of account is not enough\"\r\n        );\r\n        totalPrice = msg.value;\r\n        purchaseTime = block.timestamp;\r\n        state = order_status.PENDING;\r\n        TransactionOrder memory transaction = TransactionOrder(\r\n            getAddress(),\r\n            msg.value,\r\n            state,\r\n            purchaseTime\r\n        );\r\n        transactionOrders.push(transaction);\r\n\r\n        emit confirmPurchaseEvent(\r\n            msg.sender,\r\n            getAddress(),\r\n            msg.value,\r\n            order_status.PENDING\r\n        );\r\n    }\r\n\r\n    function confirmOrder(uint256 _newDeadline) public {\r\n        require(msg.sender == seller, \"Not permission\");\r\n        require(\r\n            state == order_status.PENDING,\r\n            \"Order status must be status PENDING\"\r\n        );\r\n        state = order_status.CONFIRMED;\r\n        confirmedTime = block.timestamp;\r\n        deadline = _newDeadline;\r\n        TransactionOrder memory transaction = TransactionOrder(\r\n            msg.sender,\r\n            0,\r\n            state,\r\n            confirmedTime\r\n        );\r\n        transactionOrders.push(transaction);\r\n\r\n        emit confirmOrderEvent(\r\n            order_status.CONFIRMED\r\n        );\r\n    }\r\n\r\n    function confirmCancelOrder() public {\r\n        require(msg.sender == seller, \"Not permission\");\r\n        require(\r\n            state == order_status.PENDING,\r\n            \"Order status must be status PENDING\"\r\n        );\r\n        owner.transfer(address(this).balance);\r\n        state = order_status.CANCEL;\r\n        cancelTime = block.timestamp;\r\n        TransactionOrder memory transaction = TransactionOrder(\r\n            owner,\r\n            totalPrice,\r\n            state,\r\n            cancelTime\r\n        );\r\n        transactionOrders.push(transaction);\r\n\r\n        emit confirmCancelOrderEvent(\r\n            order_status.CANCEL\r\n        );\r\n    }\r\n\r\n    function handleWithDrawForBuyerWhenSellerNotConfirm() public {\r\n        require((block.timestamp)*1000 > deadline, \"Present time must be greater deadline\");\r\n        require(msg.sender == owner, \"Not permission\");\r\n        require(\r\n            state == order_status.PENDING,\r\n            \"Order status must be status PENDING\"\r\n        );\r\n        require(\r\n            address(this).balance > 0,\r\n            \"Balance of order is not enough\"\r\n        );\r\n        owner.transfer(address(this).balance);\r\n        state = order_status.CANCEL;\r\n        cancelTime = block.timestamp;\r\n        TransactionOrder memory transaction = TransactionOrder(\r\n            owner,\r\n            totalPrice,\r\n            state,\r\n            cancelTime\r\n        );\r\n        transactionOrders.push(transaction);\r\n\r\n        emit confirmCancelOrderEvent(\r\n            order_status.CANCEL\r\n        );\r\n    }\r\n\r\n    function handleWithDrawForSellerWhenDeliveryExpired() public {\r\n        require((block.timestamp)*1000 > deadline, \"Present time must be greater deadline\");\r\n        require(msg.sender == seller, \"Not permission\");\r\n        require(\r\n            state == order_status.CONFIRMED,\r\n            \"Order status must be status CONFIRMED\"\r\n        );\r\n        require(\r\n            address(this).balance > 0,\r\n            \"Balance of order is not enough\"\r\n        );\r\n        seller.transfer(address(this).balance);\r\n        state = order_status.SUCCESS;\r\n        purchaseTime = block.timestamp;\r\n        TransactionOrder memory transaction = TransactionOrder(\r\n            seller,\r\n            totalPrice,\r\n            state,\r\n            purchaseTime\r\n        );\r\n        transactionOrders.push(transaction);\r\n\r\n        emit confirmPaymentToSellerEvent(\r\n            address(this),\r\n            seller,\r\n            totalPrice,\r\n            order_status.SUCCESS\r\n        );\r\n    }\r\n\r\n    function confirmPaymentToSeller() public {\r\n        require(msg.sender == owner, \"Not permission\");\r\n        require(\r\n            address(this).balance > 0,\r\n            \"Balance of order is not enough\"\r\n        );\r\n        require(\r\n            state == order_status.CONFIRMED,\r\n            \"Order status must be status CONFIRMED\"\r\n        );\r\n        seller.transfer(address(this).balance);\r\n        state = order_status.SUCCESS;\r\n        paymentTime = block.timestamp;\r\n\r\n        TransactionOrder memory transaction = TransactionOrder(\r\n            seller,\r\n            totalPrice,\r\n            state,\r\n            paymentTime\r\n        );\r\n        transactionOrders.push(transaction);\r\n\r\n        emit confirmPaymentToSellerEvent(\r\n            address(this),\r\n            seller,\r\n            totalPrice,\r\n            order_status.SUCCESS\r\n        );\r\n    }\r\n\r\n    function confirmReturnOrder(uint256 _newDeadline) public {\r\n        require(msg.sender == owner, \"Not permission\");\r\n        require(\r\n            state == order_status.CONFIRMED,\r\n            \"Order status must be status CONFIRMED\"\r\n        );\r\n        state = order_status.RETURN;\r\n        returnTime = block.timestamp;\r\n        deadline = _newDeadline;\r\n        TransactionOrder memory transaction = TransactionOrder(\r\n            msg.sender,\r\n            0,\r\n            state,\r\n            returnTime\r\n        );\r\n        transactionOrders.push(transaction);\r\n\r\n        emit confirmReturnOrderEvent(\r\n            order_status.RETURN\r\n        );\r\n    }\r\n\r\n    function confirmReturnedOrder() public {\r\n        require(msg.sender == seller, \"Not permission\");\r\n        require(\r\n            address(this).balance > 0,\r\n            \"Balance of order is not enough\"\r\n        );\r\n        require(\r\n            state == order_status.RETURN,\r\n            \"Order status must be status RETURN\"\r\n        );\r\n\r\n        state = order_status.RETURNED;\r\n        returnedTime = block.timestamp;\r\n        \r\n        // return shipping price to seller\r\n        seller.transfer(shippingPrice);\r\n        TransactionOrder memory transactionReturnShippingPrice = TransactionOrder(\r\n            seller,\r\n            shippingPrice,\r\n            state,\r\n            returnedTime\r\n        );\r\n        transactionOrders.push(transactionReturnShippingPrice);\r\n\r\n        // return total price to buyer\r\n        owner.transfer(address(this).balance - shippingPrice);\r\n        TransactionOrder memory transactionReturnTotalPrice = TransactionOrder(\r\n            owner,\r\n            totalPrice - shippingPrice,\r\n            state,\r\n            returnedTime\r\n        );\r\n        transactionOrders.push(transactionReturnTotalPrice);\r\n\r\n\r\n        emit confirmReturnedOrderEvent(     \r\n            address(this),\r\n            owner,\r\n            totalPrice - shippingPrice,\r\n            seller,\r\n            shippingPrice,\r\n            order_status.RETURNED\r\n        );\r\n    }\r\n\r\n    function handleWithDrawForBuyerWhenReturnExpired() public {\r\n        require((block.timestamp)*1000 > deadline, \"Present time must be greater deadline\");\r\n        require(msg.sender == owner, \"Not permission\");\r\n        require(\r\n            state == order_status.RETURN,\r\n            \"Order status must be status RETURN\"\r\n        );\r\n        require(\r\n            address(this).balance > 0,\r\n            \"Balance of order is not enough\"\r\n        );\r\n\r\n        state = order_status.RETURNED;\r\n        returnedTime = block.timestamp;\r\n        // return shipping price to seller\r\n        seller.transfer(shippingPrice);\r\n        TransactionOrder memory transactionReturnShippingPrice = TransactionOrder(\r\n            seller,\r\n            shippingPrice,\r\n            state,\r\n            returnedTime\r\n        );\r\n        transactionOrders.push(transactionReturnShippingPrice);\r\n\r\n        // return total price to buyer\r\n        owner.transfer(address(this).balance - shippingPrice);\r\n        TransactionOrder memory transactionReturnTotalPrice = TransactionOrder(\r\n            owner,\r\n            totalPrice - shippingPrice,\r\n            state,\r\n            returnedTime\r\n        );\r\n        transactionOrders.push(transactionReturnTotalPrice);\r\n\r\n        emit confirmReturnedOrderEvent(     \r\n            address(this),\r\n            owner,\r\n            totalPrice - shippingPrice,\r\n            seller,\r\n            shippingPrice,\r\n            order_status.RETURNED\r\n        );\r\n    }\r\n\r\n    function getOrderInfo() public view returns (OrderInfo memory) {\r\n        return\r\n            OrderInfo(\r\n                getAddress(),\r\n                owner,\r\n                seller,\r\n                totalPrice,\r\n                shippingPrice,\r\n                totalProduct,\r\n                state,\r\n                purchaseTime, \r\n                confirmedTime,\r\n                cancelTime,\r\n                paymentTime,\r\n                returnTime,\r\n                returnedTime,\r\n                deadline,\r\n                getBalance()\r\n            );\r\n    }\r\n\r\n    function getAllTransactionOrder()\r\n        public\r\n        view\r\n        returns (TransactionOrder[] memory)\r\n    {\r\n        TransactionOrder[] memory t = transactionOrders;\r\n        return t;\r\n    }\r\n}",
  "sourcePath": "E:\\ATN-2022\\Warehouse-Protection\\warehouse-fe-blockchain\\contracts\\Order.sol",
  "compiler": {
    "name": "solc",
    "version": "0.8.17+commit.8df45f5f.Emscripten.clang"
  },
  "schemaVersion": "3.4.10",
  "updatedAt": "2022-12-14T17:07:06.451Z",
  "devdoc": {
    "kind": "dev",
    "methods": {},
    "version": 1
  },
  "userdoc": {
    "kind": "user",
    "methods": {},
    "version": 1
  }
}