{
  "contractName": "Order",
  "abi": [
    {
      "inputs": [
        {
          "internalType": "address",
          "name": "_ownerAddress",
          "type": "address"
        },
        {
          "internalType": "address",
          "name": "_seller",
          "type": "address"
        },
        {
          "internalType": "uint256",
          "name": "_totalPrice",
          "type": "uint256"
        },
        {
          "internalType": "uint256",
          "name": "_totalProduct",
          "type": "uint256"
        }
      ],
      "stateMutability": "nonpayable",
      "type": "constructor"
    },
    {
      "anonymous": false,
      "inputs": [
        {
          "indexed": false,
          "internalType": "address",
          "name": "from",
          "type": "address"
        },
        {
          "indexed": false,
          "internalType": "address payable",
          "name": "to",
          "type": "address"
        },
        {
          "indexed": false,
          "internalType": "uint256",
          "name": "value",
          "type": "uint256"
        },
        {
          "indexed": false,
          "internalType": "enum Order.order_status",
          "name": "state",
          "type": "uint8"
        }
      ],
      "name": "confirmCancelOrderEvent",
      "type": "event"
    },
    {
      "anonymous": false,
      "inputs": [
        {
          "indexed": false,
          "internalType": "address",
          "name": "from",
          "type": "address"
        },
        {
          "indexed": false,
          "internalType": "address payable",
          "name": "to",
          "type": "address"
        },
        {
          "indexed": false,
          "internalType": "uint256",
          "name": "value",
          "type": "uint256"
        },
        {
          "indexed": false,
          "internalType": "enum Order.order_status",
          "name": "state",
          "type": "uint8"
        }
      ],
      "name": "confirmPaymentToSellerEvent",
      "type": "event"
    },
    {
      "anonymous": false,
      "inputs": [
        {
          "indexed": false,
          "internalType": "address",
          "name": "from",
          "type": "address"
        },
        {
          "indexed": false,
          "internalType": "address",
          "name": "to",
          "type": "address"
        },
        {
          "indexed": false,
          "internalType": "uint256",
          "name": "value",
          "type": "uint256"
        },
        {
          "indexed": false,
          "internalType": "enum Order.order_status",
          "name": "state",
          "type": "uint8"
        }
      ],
      "name": "confirmPurchaseEvent",
      "type": "event"
    },
    {
      "anonymous": false,
      "inputs": [
        {
          "indexed": false,
          "internalType": "enum Order.order_status",
          "name": "state",
          "type": "uint8"
        }
      ],
      "name": "confirmReturnOrderEvent",
      "type": "event"
    },
    {
      "inputs": [],
      "name": "cancelTime",
      "outputs": [
        {
          "internalType": "uint256",
          "name": "",
          "type": "uint256"
        }
      ],
      "stateMutability": "view",
      "type": "function"
    },
    {
      "inputs": [],
      "name": "dealine",
      "outputs": [
        {
          "internalType": "uint256",
          "name": "",
          "type": "uint256"
        }
      ],
      "stateMutability": "view",
      "type": "function"
    },
    {
      "inputs": [],
      "name": "paymentTime",
      "outputs": [
        {
          "internalType": "uint256",
          "name": "",
          "type": "uint256"
        }
      ],
      "stateMutability": "view",
      "type": "function"
    },
    {
      "inputs": [],
      "name": "returnTime",
      "outputs": [
        {
          "internalType": "uint256",
          "name": "",
          "type": "uint256"
        }
      ],
      "stateMutability": "view",
      "type": "function"
    },
    {
      "inputs": [],
      "name": "state",
      "outputs": [
        {
          "internalType": "enum Order.order_status",
          "name": "",
          "type": "uint8"
        }
      ],
      "stateMutability": "view",
      "type": "function"
    },
    {
      "inputs": [],
      "name": "totalPrice",
      "outputs": [
        {
          "internalType": "uint256",
          "name": "",
          "type": "uint256"
        }
      ],
      "stateMutability": "view",
      "type": "function"
    },
    {
      "inputs": [],
      "name": "totalProduct",
      "outputs": [
        {
          "internalType": "uint256",
          "name": "",
          "type": "uint256"
        }
      ],
      "stateMutability": "view",
      "type": "function"
    },
    {
      "inputs": [
        {
          "internalType": "uint256",
          "name": "",
          "type": "uint256"
        }
      ],
      "name": "transactionTransfers",
      "outputs": [
        {
          "internalType": "address",
          "name": "beneficiaryAccount",
          "type": "address"
        },
        {
          "internalType": "uint256",
          "name": "amount",
          "type": "uint256"
        },
        {
          "internalType": "uint256",
          "name": "timestamp",
          "type": "uint256"
        }
      ],
      "stateMutability": "view",
      "type": "function"
    },
    {
      "inputs": [],
      "name": "getAddress",
      "outputs": [
        {
          "internalType": "address",
          "name": "",
          "type": "address"
        }
      ],
      "stateMutability": "view",
      "type": "function"
    },
    {
      "inputs": [],
      "name": "confirmPurchase",
      "outputs": [],
      "stateMutability": "payable",
      "type": "function"
    },
    {
      "inputs": [],
      "name": "getBalance",
      "outputs": [
        {
          "internalType": "uint256",
          "name": "",
          "type": "uint256"
        }
      ],
      "stateMutability": "view",
      "type": "function"
    },
    {
      "inputs": [],
      "name": "confirmPaymentToSeller",
      "outputs": [],
      "stateMutability": "payable",
      "type": "function"
    },
    {
      "inputs": [],
      "name": "confirmReturnOrder",
      "outputs": [],
      "stateMutability": "payable",
      "type": "function"
    },
    {
      "inputs": [],
      "name": "confirmCancelOrder",
      "outputs": [],
      "stateMutability": "payable",
      "type": "function"
    },
    {
      "inputs": [],
      "name": "getOrderInfo",
      "outputs": [
        {
          "components": [
            {
              "internalType": "address",
              "name": "orderAddress",
              "type": "address"
            },
            {
              "internalType": "address",
              "name": "buyer",
              "type": "address"
            },
            {
              "internalType": "address",
              "name": "seller",
              "type": "address"
            },
            {
              "internalType": "uint256",
              "name": "totalPrice",
              "type": "uint256"
            },
            {
              "internalType": "uint256",
              "name": "totalProduct",
              "type": "uint256"
            },
            {
              "internalType": "enum Order.order_status",
              "name": "state",
              "type": "uint8"
            }
          ],
          "internalType": "struct Order.OrderInfo",
          "name": "",
          "type": "tuple"
        }
      ],
      "stateMutability": "view",
      "type": "function"
    }
  ],
  "bytecode": "0x60806040523480156200001157600080fd5b5060405162001635380380620016358339818101604052810190620000379190620001a3565b836000806101000a81548173ffffffffffffffffffffffffffffffffffffffff021916908373ffffffffffffffffffffffffffffffffffffffff16021790555082600160006101000a81548173ffffffffffffffffffffffffffffffffffffffff021916908373ffffffffffffffffffffffffffffffffffffffff16021790555081600281905550806003819055506000600960006101000a81548160ff02191690836003811115620000ef57620000ee62000215565b5b02179055505050505062000244565b600080fd5b600073ffffffffffffffffffffffffffffffffffffffff82169050919050565b6000620001308262000103565b9050919050565b620001428162000123565b81146200014e57600080fd5b50565b600081519050620001628162000137565b92915050565b6000819050919050565b6200017d8162000168565b81146200018957600080fd5b50565b6000815190506200019d8162000172565b92915050565b60008060008060808587031215620001c057620001bf620000fe565b5b6000620001d08782880162000151565b9450506020620001e38782880162000151565b9350506040620001f6878288016200018c565b925050606062000209878288016200018c565b91505092959194509250565b7f4e487b7100000000000000000000000000000000000000000000000000000000600052602160045260246000fd5b6113e180620002546000396000f3fe6080604052600436106100e85760003560e01c806372e94f221161008a578063b1988acf11610059578063b1988acf146102b9578063c19d93fb146102c3578063d6960697146102ee578063ff408833146102f8576100e8565b806372e94f22146101f95780639856836614610238578063a911715c14610263578063ab0d92dd1461028e576100e8565b80631325e9b8116100c65780631325e9b81461016e578063365ace611461019957806338cc4831146101a3578063566bceef146101ce576100e8565b806301efb6c8146100ed5780630419677c1461011857806312065fe014610143575b600080fd5b3480156100f957600080fd5b50610102610302565b60405161010f9190610feb565b60405180910390f35b34801561012457600080fd5b5061012d6103ec565b60405161013a9190611015565b60405180910390f35b34801561014f57600080fd5b506101586103f2565b6040516101659190611015565b60405180910390f35b34801561017a57600080fd5b506101836103fa565b6040516101909190611015565b60405180910390f35b6101a1610400565b005b3480156101af57600080fd5b506101b86105bc565b6040516101c5919061103f565b60405180910390f35b3480156101da57600080fd5b506101e36105c4565b6040516101f09190611015565b60405180910390f35b34801561020557600080fd5b50610220600480360381019061021b919061108b565b6105ca565b60405161022f939291906110b8565b60405180910390f35b34801561024457600080fd5b5061024d610624565b60405161025a9190611015565b60405180910390f35b34801561026f57600080fd5b5061027861062a565b6040516102859190611015565b60405180910390f35b34801561029a57600080fd5b506102a3610630565b6040516102b09190611015565b60405180910390f35b6102c1610636565b005b3480156102cf57600080fd5b506102d86108e9565b6040516102e591906110fe565b60405180910390f35b6102f66108fc565b005b610300610b66565b005b61030a610e15565b6040518060c0016040528061031d6105bc565b73ffffffffffffffffffffffffffffffffffffffff16815260200160008054906101000a900473ffffffffffffffffffffffffffffffffffffffff1673ffffffffffffffffffffffffffffffffffffffff168152602001600160009054906101000a900473ffffffffffffffffffffffffffffffffffffffff1673ffffffffffffffffffffffffffffffffffffffff16815260200160025481526020016003548152602001600960009054906101000a900460ff1660038111156103e4576103e3610ef9565b5b815250905090565b60045481565b600047905090565b60075481565b60008054906101000a900473ffffffffffffffffffffffffffffffffffffffff1673ffffffffffffffffffffffffffffffffffffffff163373ffffffffffffffffffffffffffffffffffffffff161461048e576040517f08c379a000000000000000000000000000000000000000000000000000000000815260040161048590611176565b60405180910390fd5b6001600960006101000a81548160ff021916908360038111156104b4576104b3610ef9565b5b021790555042600581905550600060405180606001604052803373ffffffffffffffffffffffffffffffffffffffff168152602001600081526020016005548152509050600881908060018154018082558091505060019003906000526020600020906003020160009091909190915060008201518160000160006101000a81548173ffffffffffffffffffffffffffffffffffffffff021916908373ffffffffffffffffffffffffffffffffffffffff160217905550602082015181600101556040820151816002015550507facca1bfa13be050eb725ae7a93cb25004ee04e61475ec23f75c143ee54e4939f60016040516105b191906110fe565b60405180910390a150565b600030905090565b60035481565b600881815481106105da57600080fd5b90600052602060002090600302016000915090508060000160009054906101000a900473ffffffffffffffffffffffffffffffffffffffff16908060010154908060020154905083565b60055481565b60065481565b60025481565b60008054906101000a900473ffffffffffffffffffffffffffffffffffffffff1673ffffffffffffffffffffffffffffffffffffffff163373ffffffffffffffffffffffffffffffffffffffff16146106c4576040517f08c379a00000000000000000000000000000000000000000000000000000000081526004016106bb90611176565b60405180910390fd5b60004711610707576040517f08c379a00000000000000000000000000000000000000000000000000000000081526004016106fe906111e2565b60405180910390fd5b600160009054906101000a900473ffffffffffffffffffffffffffffffffffffffff1673ffffffffffffffffffffffffffffffffffffffff166108fc479081150290604051600060405180830381858888f1935050505015801561076f573d6000803e3d6000fd5b506002600960006101000a81548160ff0219169083600381111561079657610795610ef9565b5b02179055504260048190555060006040518060600160405280600160009054906101000a900473ffffffffffffffffffffffffffffffffffffffff1673ffffffffffffffffffffffffffffffffffffffff1681526020014781526020016004548152509050600881908060018154018082558091505060019003906000526020600020906003020160009091909190915060008201518160000160006101000a81548173ffffffffffffffffffffffffffffffffffffffff021916908373ffffffffffffffffffffffffffffffffffffffff160217905550602082015181600101556040820151816002015550507fce244a866e4105e01f5daf8b8de5810a6fdd632afd98f0d08499423441c1a31630600160009054906101000a900473ffffffffffffffffffffffffffffffffffffffff1660025460026040516108de9493929190611223565b60405180910390a150565b600960009054906101000a900460ff1681565b60008054906101000a900473ffffffffffffffffffffffffffffffffffffffff1673ffffffffffffffffffffffffffffffffffffffff163373ffffffffffffffffffffffffffffffffffffffff161461098a576040517f08c379a000000000000000000000000000000000000000000000000000000000815260040161098190611176565b60405180910390fd5b6000600381111561099e5761099d610ef9565b5b600960009054906101000a900460ff1660038111156109c0576109bf610ef9565b5b14610a00576040517f08c379a00000000000000000000000000000000000000000000000000000000081526004016109f7906112da565b60405180910390fd5b343373ffffffffffffffffffffffffffffffffffffffff163111610a59576040517f08c379a0000000000000000000000000000000000000000000000000000000008152600401610a5090611346565b60405180910390fd5b60006040518060600160405280610a6e6105bc565b73ffffffffffffffffffffffffffffffffffffffff168152602001348152602001428152509050600881908060018154018082558091505060019003906000526020600020906003020160009091909190915060008201518160000160006101000a81548173ffffffffffffffffffffffffffffffffffffffff021916908373ffffffffffffffffffffffffffffffffffffffff160217905550602082015181600101556040820151816002015550507fc20bc9ac6bb8fd7d3c66da8c0a5b5828a145aca18b25f4b2843562a2146650d233610b486105bc565b346000604051610b5b9493929190611366565b60405180910390a150565b600160009054906101000a900473ffffffffffffffffffffffffffffffffffffffff1673ffffffffffffffffffffffffffffffffffffffff163373ffffffffffffffffffffffffffffffffffffffff1614610bf6576040517f08c379a0000000000000000000000000000000000000000000000000000000008152600401610bed90611176565b60405180910390fd5b60004711610c39576040517f08c379a0000000000000000000000000000000000000000000000000000000008152600401610c30906111e2565b60405180910390fd5b60008054906101000a900473ffffffffffffffffffffffffffffffffffffffff1673ffffffffffffffffffffffffffffffffffffffff166108fc479081150290604051600060405180830381858888f19350505050158015610c9f573d6000803e3d6000fd5b506003600960006101000a81548160ff02191690836003811115610cc657610cc5610ef9565b5b0217905550426006819055506000604051806060016040528060008054906101000a900473ffffffffffffffffffffffffffffffffffffffff1673ffffffffffffffffffffffffffffffffffffffff1681526020014781526020016004548152509050600881908060018154018082558091505060019003906000526020600020906003020160009091909190915060008201518160000160006101000a81548173ffffffffffffffffffffffffffffffffffffffff021916908373ffffffffffffffffffffffffffffffffffffffff160217905550602082015181600101556040820151816002015550507f7ae9f96b79f09efde094247ad4506ada398b84c64f2bf7df593d3e3484c38a3b3060008054906101000a900473ffffffffffffffffffffffffffffffffffffffff166002546003604051610e0a9493929190611223565b60405180910390a150565b6040518060c00160405280600073ffffffffffffffffffffffffffffffffffffffff168152602001600073ffffffffffffffffffffffffffffffffffffffff168152602001600073ffffffffffffffffffffffffffffffffffffffff168152602001600081526020016000815260200160006003811115610e9957610e98610ef9565b5b81525090565b600073ffffffffffffffffffffffffffffffffffffffff82169050919050565b6000610eca82610e9f565b9050919050565b610eda81610ebf565b82525050565b6000819050919050565b610ef381610ee0565b82525050565b7f4e487b7100000000000000000000000000000000000000000000000000000000600052602160045260246000fd5b60048110610f3957610f38610ef9565b5b50565b6000819050610f4a82610f28565b919050565b6000610f5a82610f3c565b9050919050565b610f6a81610f4f565b82525050565b60c082016000820151610f866000850182610ed1565b506020820151610f996020850182610ed1565b506040820151610fac6040850182610ed1565b506060820151610fbf6060850182610eea565b506080820151610fd26080850182610eea565b5060a0820151610fe560a0850182610f61565b50505050565b600060c0820190506110006000830184610f70565b92915050565b61100f81610ee0565b82525050565b600060208201905061102a6000830184611006565b92915050565b61103981610ebf565b82525050565b60006020820190506110546000830184611030565b92915050565b600080fd5b61106881610ee0565b811461107357600080fd5b50565b6000813590506110858161105f565b92915050565b6000602082840312156110a1576110a061105a565b5b60006110af84828501611076565b91505092915050565b60006060820190506110cd6000830186611030565b6110da6020830185611006565b6110e76040830184611006565b949350505050565b6110f881610f4f565b82525050565b600060208201905061111360008301846110ef565b92915050565b600082825260208201905092915050565b7f4e6f74207065726d697373696f6e000000000000000000000000000000000000600082015250565b6000611160600e83611119565b915061116b8261112a565b602082019050919050565b6000602082019050818103600083015261118f81611153565b9050919050565b7f42616c616e6365206f66206f72646572206973206e6f7420656e6f7567680000600082015250565b60006111cc601e83611119565b91506111d782611196565b602082019050919050565b600060208201905081810360008301526111fb816111bf565b9050919050565b600061120d82610e9f565b9050919050565b61121d81611202565b82525050565b60006080820190506112386000830187611030565b6112456020830186611214565b6112526040830185611006565b61125f60608301846110ef565b95945050505050565b7f4f7264657220737461747573206d757374206265207374617475732050454e4460008201527f494e470000000000000000000000000000000000000000000000000000000000602082015250565b60006112c4602383611119565b91506112cf82611268565b604082019050919050565b600060208201905081810360008301526112f3816112b7565b9050919050565b7f42616c616e6365206f66206163636f756e74206973206e6f7420656e6f756768600082015250565b6000611330602083611119565b915061133b826112fa565b602082019050919050565b6000602082019050818103600083015261135f81611323565b9050919050565b600060808201905061137b6000830187611030565b6113886020830186611030565b6113956040830185611006565b6113a260608301846110ef565b9594505050505056fea2646970667358221220f69c0e4c4edc53c2172cb7d20574b4c1e17de42b7d277f5bec306a4fa6efd8f264736f6c63430008110033",
  "immutableReferences": {},
  "source": "// SPDX-License-Identifier: GPL-3.0\r\n\r\npragma solidity >=0.7.0 <0.9.0;\r\n\r\ncontract Order {\r\n    struct OrderInfo {\r\n        address orderAddress;\r\n        address buyer;\r\n        address seller;\r\n        uint256 totalPrice;\r\n        uint256 totalProduct;\r\n        order_status state;\r\n    }\r\n    \r\n    struct TransactionTransfer {\r\n        address beneficiaryAccount;\r\n        uint256 amount;\r\n        uint256 timestamp;\r\n    }\r\n\r\n    enum order_status {\r\n        PENDING,\r\n        RETURN,\r\n        SUCCESS,\r\n        CANCEL\r\n    }\r\n\r\n    address payable owner;\r\n    address payable seller;\r\n    uint256 public totalPrice;\r\n    uint256 public totalProduct;\r\n\r\n    uint256 public paymentTime;\r\n    uint256 public returnTime;\r\n    uint256 public cancelTime;\r\n    uint256 public dealine;\r\n\r\n    TransactionTransfer[] public transactionTransfers;\r\n    order_status public state;\r\n\r\n    constructor(\r\n        address _ownerAddress,\r\n        address _seller,\r\n        uint256 _totalPrice,\r\n        uint256 _totalProduct\r\n    ) {\r\n        owner = payable(_ownerAddress);\r\n        seller = payable(_seller);\r\n        totalPrice = _totalPrice;\r\n        totalProduct = _totalProduct;\r\n        state = order_status.PENDING;\r\n    }\r\n\r\n    event confirmPurchaseEvent(\r\n        address from,\r\n        address to,\r\n        uint256 value,\r\n        order_status state\r\n    );\r\n\r\n    event confirmPaymentToSellerEvent(\r\n        address from,\r\n        address payable to,\r\n        uint256 value,\r\n        order_status state\r\n    );\r\n\r\n    event confirmReturnOrderEvent(\r\n        order_status state\r\n    );\r\n\r\n    event confirmCancelOrderEvent(\r\n        address from,\r\n        address payable to,\r\n        uint256 value,\r\n        order_status state\r\n    );\r\n\r\n    function getAddress() public view returns (address) {\r\n        return address(this);\r\n    }\r\n\r\n    function confirmPurchase() public payable {\r\n        require(msg.sender == owner, \"Not permission\");\r\n        require(\r\n            state == order_status.PENDING,\r\n            \"Order status must be status PENDING\"\r\n        );\r\n        require(\r\n            msg.sender.balance > msg.value,\r\n            \"Balance of account is not enough\"\r\n        );\r\n        TransactionTransfer memory transaction = TransactionTransfer(\r\n            getAddress(),\r\n            msg.value,\r\n            block.timestamp\r\n        );\r\n        transactionTransfers.push(transaction);\r\n\r\n        emit confirmPurchaseEvent(\r\n            msg.sender,\r\n            getAddress(),\r\n            msg.value,\r\n            order_status.PENDING\r\n        );\r\n    }\r\n    \r\n    function getBalance() public view returns (uint256) {\r\n        return address(this).balance;\r\n    }\r\n\r\n    function confirmPaymentToSeller() public payable {\r\n        require(msg.sender == owner, \"Not permission\");\r\n        require(\r\n            address(this).balance > 0,\r\n            \"Balance of order is not enough\"\r\n        );\r\n        seller.transfer(address(this).balance);\r\n        state = order_status.SUCCESS;\r\n        paymentTime = block.timestamp;\r\n\r\n        TransactionTransfer memory transaction = TransactionTransfer(\r\n            seller,\r\n            address(this).balance,\r\n            paymentTime\r\n        );\r\n        transactionTransfers.push(transaction);\r\n\r\n        emit confirmPaymentToSellerEvent(\r\n            address(this),\r\n            seller,\r\n            totalPrice,\r\n            order_status.SUCCESS\r\n        );\r\n    }\r\n\r\n    function confirmReturnOrder() public payable {\r\n        require(msg.sender == owner, \"Not permission\");\r\n        state = order_status.RETURN;\r\n        returnTime = block.timestamp;\r\n\r\n        TransactionTransfer memory transaction = TransactionTransfer(\r\n            msg.sender,\r\n            0,\r\n            returnTime\r\n        );\r\n        transactionTransfers.push(transaction);\r\n\r\n        emit confirmReturnOrderEvent(\r\n            order_status.RETURN\r\n        );\r\n    }\r\n\r\n    function confirmCancelOrder() public payable {\r\n        require(msg.sender == seller, \"Not permission\");\r\n        require(\r\n            address(this).balance > 0,\r\n            \"Balance of order is not enough\"\r\n        );\r\n        owner.transfer(address(this).balance);\r\n        state = order_status.CANCEL;\r\n        cancelTime = block.timestamp;\r\n\r\n        TransactionTransfer memory transaction = TransactionTransfer(\r\n            owner,\r\n            address(this).balance,\r\n            paymentTime\r\n        );\r\n        transactionTransfers.push(transaction);\r\n        emit confirmCancelOrderEvent(     \r\n            address(this),\r\n            owner,\r\n            totalPrice,\r\n            order_status.CANCEL\r\n        );\r\n    }\r\n    function getOrderInfo() public view returns (OrderInfo memory) {\r\n        return\r\n            OrderInfo(\r\n                getAddress(),\r\n                owner,\r\n                seller,\r\n                totalPrice,\r\n                totalProduct,\r\n                state\r\n            );\r\n    }\r\n}",
  "sourcePath": "E:\\ATN-2022\\Warehouse-Protection\\warehouse-fe-blockchain\\contracts\\Order.sol",
  "compiler": {
    "name": "solc",
    "version": "0.8.17+commit.8df45f5f.Emscripten.clang"
  },
  "schemaVersion": "3.4.10",
  "updatedAt": "2022-11-26T16:48:50.119Z",
  "devdoc": {
    "kind": "dev",
    "methods": {},
    "version": 1
  },
  "userdoc": {
    "kind": "user",
    "methods": {},
    "version": 1
  }
}