{
  "contractName": "PurchaseAgreement",
  "abi": [
    {
      "inputs": [],
      "stateMutability": "payable",
      "type": "constructor"
    },
    {
      "inputs": [],
      "name": "InvalidState",
      "type": "error"
    },
    {
      "inputs": [],
      "name": "OnlyBuyer",
      "type": "error"
    },
    {
      "inputs": [],
      "name": "OnlySeller",
      "type": "error"
    },
    {
      "inputs": [],
      "name": "buyer",
      "outputs": [
        {
          "internalType": "address payable",
          "name": "",
          "type": "address"
        }
      ],
      "stateMutability": "view",
      "type": "function"
    },
    {
      "inputs": [],
      "name": "seller",
      "outputs": [
        {
          "internalType": "address payable",
          "name": "",
          "type": "address"
        }
      ],
      "stateMutability": "view",
      "type": "function"
    },
    {
      "inputs": [],
      "name": "state",
      "outputs": [
        {
          "internalType": "enum PurchaseAgreement.State",
          "name": "",
          "type": "uint8"
        }
      ],
      "stateMutability": "view",
      "type": "function"
    },
    {
      "inputs": [],
      "name": "value",
      "outputs": [
        {
          "internalType": "uint256",
          "name": "",
          "type": "uint256"
        }
      ],
      "stateMutability": "view",
      "type": "function"
    },
    {
      "inputs": [],
      "name": "confirmPurchase",
      "outputs": [],
      "stateMutability": "payable",
      "type": "function"
    },
    {
      "inputs": [],
      "name": "confirmRecevie",
      "outputs": [],
      "stateMutability": "nonpayable",
      "type": "function"
    },
    {
      "inputs": [],
      "name": "paySeller",
      "outputs": [],
      "stateMutability": "nonpayable",
      "type": "function"
    },
    {
      "inputs": [],
      "name": "abort",
      "outputs": [],
      "stateMutability": "nonpayable",
      "type": "function"
    }
  ],
  "bytecode": "0x608060405233600160006101000a81548173ffffffffffffffffffffffffffffffffffffffff021916908373ffffffffffffffffffffffffffffffffffffffff1602179055506002346100529190610096565b6000819055506100c7565b6000819050919050565b7f4e487b7100000000000000000000000000000000000000000000000000000000600052601260045260246000fd5b60006100a18261005d565b91506100ac8361005d565b9250826100bc576100bb610067565b5b828204905092915050565b610a2c806100d66000396000f3fe60806040526004361061007b5760003560e01c8063883c56861161004e578063883c568614610118578063a0c97bce1461012f578063c19d93fb14610146578063d6960697146101715761007b565b806308551a531461008057806335a063b4146100ab5780633fa4f245146100c25780637150d8ae146100ed575b600080fd5b34801561008c57600080fd5b5061009561017b565b6040516100a29190610801565b60405180910390f35b3480156100b757600080fd5b506100c06101a1565b005b3480156100ce57600080fd5b506100d761032d565b6040516100e49190610835565b60405180910390f35b3480156100f957600080fd5b50610102610333565b60405161010f9190610801565b60405180910390f35b34801561012457600080fd5b5061012d610359565b005b34801561013b57600080fd5b506101446104e6565b005b34801561015257600080fd5b5061015b610680565b60405161016891906108c7565b60405180910390f35b610179610693565b005b600160009054906101000a900473ffffffffffffffffffffffffffffffffffffffff1681565b600160009054906101000a900473ffffffffffffffffffffffffffffffffffffffff1673ffffffffffffffffffffffffffffffffffffffff163373ffffffffffffffffffffffffffffffffffffffff1614610228576040517f85d1f72600000000000000000000000000000000000000000000000000000000815260040160405180910390fd5b600080600381111561023d5761023c610850565b5b600260149054906101000a900460ff16600381111561025f5761025e610850565b5b14610296576040517fbaf3f0f700000000000000000000000000000000000000000000000000000000815260040160405180910390fd5b6003600260146101000a81548160ff021916908360038111156102bc576102bb610850565b5b0217905550600160009054906101000a900473ffffffffffffffffffffffffffffffffffffffff1673ffffffffffffffffffffffffffffffffffffffff166108fc479081150290604051600060405180830381858888f19350505050158015610329573d6000803e3d6000fd5b5050565b60005481565b600260009054906101000a900473ffffffffffffffffffffffffffffffffffffffff1681565b600260009054906101000a900473ffffffffffffffffffffffffffffffffffffffff1673ffffffffffffffffffffffffffffffffffffffff163373ffffffffffffffffffffffffffffffffffffffff16146103e0576040517f86efbb5500000000000000000000000000000000000000000000000000000000815260040160405180910390fd5b60018060038111156103f5576103f4610850565b5b600260149054906101000a900460ff16600381111561041757610416610850565b5b1461044e576040517fbaf3f0f700000000000000000000000000000000000000000000000000000000815260040160405180910390fd5b60028060146101000a81548160ff0219169083600381111561047357610472610850565b5b0217905550600260009054906101000a900473ffffffffffffffffffffffffffffffffffffffff1673ffffffffffffffffffffffffffffffffffffffff166108fc6000549081150290604051600060405180830381858888f193505050501580156104e2573d6000803e3d6000fd5b5050565b600160009054906101000a900473ffffffffffffffffffffffffffffffffffffffff1673ffffffffffffffffffffffffffffffffffffffff163373ffffffffffffffffffffffffffffffffffffffff161461056d576040517f85d1f72600000000000000000000000000000000000000000000000000000000815260040160405180910390fd5b600180600381111561058257610581610850565b5b600260149054906101000a900460ff1660038111156105a4576105a3610850565b5b146105db576040517fbaf3f0f700000000000000000000000000000000000000000000000000000000815260040160405180910390fd5b6003600260146101000a81548160ff0219169083600381111561060157610600610850565b5b0217905550600160009054906101000a900473ffffffffffffffffffffffffffffffffffffffff1673ffffffffffffffffffffffffffffffffffffffff166108fc60005460036106519190610911565b9081150290604051600060405180830381858888f1935050505015801561067c573d6000803e3d6000fd5b5050565b600260149054906101000a900460ff1681565b60008060038111156106a8576106a7610850565b5b600260149054906101000a900460ff1660038111156106ca576106c9610850565b5b14610701576040517fbaf3f0f700000000000000000000000000000000000000000000000000000000815260040160405180910390fd5b60005460026107109190610911565b3414610751576040517f08c379a0000000000000000000000000000000000000000000000000000000008152600401610748906109d6565b60405180910390fd5b33600260006101000a81548173ffffffffffffffffffffffffffffffffffffffff021916908373ffffffffffffffffffffffffffffffffffffffff1602179055506001600260146101000a81548160ff021916908360038111156107b8576107b7610850565b5b021790555050565b600073ffffffffffffffffffffffffffffffffffffffff82169050919050565b60006107eb826107c0565b9050919050565b6107fb816107e0565b82525050565b600060208201905061081660008301846107f2565b92915050565b6000819050919050565b61082f8161081c565b82525050565b600060208201905061084a6000830184610826565b92915050565b7f4e487b7100000000000000000000000000000000000000000000000000000000600052602160045260246000fd5b600481106108905761088f610850565b5b50565b60008190506108a18261087f565b919050565b60006108b182610893565b9050919050565b6108c1816108a6565b82525050565b60006020820190506108dc60008301846108b8565b92915050565b7f4e487b7100000000000000000000000000000000000000000000000000000000600052601160045260246000fd5b600061091c8261081c565b91506109278361081c565b92508282026109358161081c565b9150828204841483151761094c5761094b6108e2565b5b5092915050565b600082825260208201905092915050565b7f706c656173652073656e6420696e20327820707572636861736520616d6f756e60008201527f7400000000000000000000000000000000000000000000000000000000000000602082015250565b60006109c0602183610953565b91506109cb82610964565b604082019050919050565b600060208201905081810360008301526109ef816109b3565b905091905056fea2646970667358221220c5227d4607acb288f7058f6b1dfd0acd347ee8d3d9465a040256fd66c76d923764736f6c63430008110033",
  "immutableReferences": {},
  "source": "// SPDX-License-Identifier: GPL-3.0\r\n\r\npragma solidity >=0.7.0 <0.9.0;\r\n\r\ncontract PurchaseAgreement {\r\n    uint public value;\r\n    address payable public seller;\r\n    address payable public buyer;\r\n\r\n    enum State { Created, Locked, Release, Inactive }\r\n    State public state;\r\n\r\n    constructor() payable {\r\n        seller = payable(msg.sender);\r\n        value = msg.value / 2;\r\n    }\r\n    \r\n    error InvalidState();\r\n\r\n    error OnlyBuyer();\r\n\r\n    error OnlySeller();\r\n\r\n\r\n    modifier inState(State state_) {\r\n        if(state != state_) {\r\n            revert InvalidState();\r\n        }\r\n        _;\r\n    }\r\n    \r\n    modifier onlyBuyer() {\r\n        if(msg.sender != buyer) {\r\n            revert OnlyBuyer();\r\n        }\r\n        _;\r\n    }\r\n\r\n    modifier onlySeller() {\r\n        if(msg.sender != seller) {\r\n            revert OnlySeller();\r\n        }\r\n        _;\r\n    }\r\n\r\n    function confirmPurchase() external inState(State.Created) payable {\r\n        require(msg.value == (2*value), \"please send in 2x purchase amount\");\r\n        buyer = payable(msg.sender);\r\n        state = State.Locked;\r\n    }\r\n     \r\n    function confirmRecevie() external onlyBuyer() inState(State.Locked) {\r\n        state = State.Release;\r\n        buyer.transfer(value);\r\n    }\r\n\r\n    function paySeller() external onlySeller inState(State.Locked) {\r\n        state = State.Inactive;\r\n        seller.transfer(3*value);\r\n    }\r\n\r\n    function abort() external onlySeller inState(State.Created) {\r\n        state = State.Inactive;\r\n        seller.transfer(address(this).balance);\r\n    }\r\n}",
  "sourcePath": "E:\\ATN-2022\\Warehouse-Protection\\warehouse-fe-blockchain\\contracts\\PurchaseAgreement.sol",
  "compiler": {
    "name": "solc",
    "version": "0.8.17+commit.8df45f5f.Emscripten.clang"
  },
  "schemaVersion": "3.4.10",
  "updatedAt": "2022-11-19T19:16:11.255Z",
  "devdoc": {
    "kind": "dev",
    "methods": {},
    "version": 1
  },
  "userdoc": {
    "kind": "user",
    "methods": {},
    "version": 1
  }
}