{
  "contractName": "Warehouse",
  "abi": [
    {
      "inputs": [],
      "stateMutability": "payable",
      "type": "constructor",
      "payable": true
    },
    {
      "anonymous": false,
      "inputs": [
        {
          "indexed": false,
          "internalType": "address",
          "name": "orderAddress",
          "type": "address"
        },
        {
          "indexed": false,
          "internalType": "address",
          "name": "owner",
          "type": "address"
        },
        {
          "indexed": false,
          "internalType": "address",
          "name": "seller",
          "type": "address"
        }
      ],
      "name": "createOrder",
      "type": "event"
    },
    {
      "inputs": [
        {
          "internalType": "uint256",
          "name": "",
          "type": "uint256"
        }
      ],
      "name": "listOrder",
      "outputs": [
        {
          "internalType": "address",
          "name": "",
          "type": "address"
        }
      ],
      "stateMutability": "view",
      "type": "function",
      "constant": true
    },
    {
      "inputs": [],
      "name": "owner",
      "outputs": [
        {
          "internalType": "address",
          "name": "",
          "type": "address"
        }
      ],
      "stateMutability": "view",
      "type": "function",
      "constant": true
    },
    {
      "inputs": [],
      "name": "getOwner",
      "outputs": [
        {
          "internalType": "address",
          "name": "",
          "type": "address"
        }
      ],
      "stateMutability": "view",
      "type": "function",
      "constant": true
    },
    {
      "inputs": [
        {
          "internalType": "address",
          "name": "seller",
          "type": "address"
        },
        {
          "internalType": "uint256",
          "name": "totalProduct",
          "type": "uint256"
        },
        {
          "internalType": "uint256",
          "name": "shippingPrice",
          "type": "uint256"
        },
        {
          "internalType": "uint256",
          "name": "deadline",
          "type": "uint256"
        }
      ],
      "name": "addOrder",
      "outputs": [
        {
          "internalType": "bool",
          "name": "",
          "type": "bool"
        }
      ],
      "stateMutability": "nonpayable",
      "type": "function"
    },
    {
      "inputs": [],
      "name": "getAllOrder",
      "outputs": [
        {
          "internalType": "address[]",
          "name": "",
          "type": "address[]"
        }
      ],
      "stateMutability": "view",
      "type": "function",
      "constant": true
    },
    {
      "inputs": [
        {
          "internalType": "address",
          "name": "_addressCompany",
          "type": "address"
        }
      ],
      "name": "getOrderPerCompany",
      "outputs": [
        {
          "components": [
            {
              "internalType": "address",
              "name": "orderAddress",
              "type": "address"
            },
            {
              "internalType": "address",
              "name": "buyer",
              "type": "address"
            },
            {
              "internalType": "address",
              "name": "seller",
              "type": "address"
            },
            {
              "internalType": "uint256",
              "name": "totalPrice",
              "type": "uint256"
            },
            {
              "internalType": "uint256",
              "name": "shippingPrice",
              "type": "uint256"
            },
            {
              "internalType": "uint256",
              "name": "totalProduct",
              "type": "uint256"
            },
            {
              "internalType": "enum Order.order_status",
              "name": "state",
              "type": "uint8"
            },
            {
              "internalType": "uint256",
              "name": "purchaseTime",
              "type": "uint256"
            },
            {
              "internalType": "uint256",
              "name": "confirmedTime",
              "type": "uint256"
            },
            {
              "internalType": "uint256",
              "name": "cancelTime",
              "type": "uint256"
            },
            {
              "internalType": "uint256",
              "name": "paymentTime",
              "type": "uint256"
            },
            {
              "internalType": "uint256",
              "name": "returnTime",
              "type": "uint256"
            },
            {
              "internalType": "uint256",
              "name": "returnedTime",
              "type": "uint256"
            },
            {
              "internalType": "uint256",
              "name": "dealine",
              "type": "uint256"
            },
            {
              "internalType": "uint256",
              "name": "balance",
              "type": "uint256"
            }
          ],
          "internalType": "struct Order.OrderInfo[]",
          "name": "",
          "type": "tuple[]"
        }
      ],
      "stateMutability": "view",
      "type": "function",
      "constant": true
    }
  ],
  "bytecode": "0x608060405233600160006101000a81548173ffffffffffffffffffffffffffffffffffffffff021916908373ffffffffffffffffffffffffffffffffffffffff160217905550614ba4806100546000396000f3fe60806040523480156200001157600080fd5b50600436106200006a5760003560e01c80633dfbbad4146200006f578063893d20e814620000915780638aa1136114620000b35780638da5cb5b14620000e9578063980dc482146200010b578063b12966271462000141575b600080fd5b6200007962000177565b604051620000889190620009d5565b60405180910390f35b6200009b62000207565b604051620000aa919062000a0a565b60405180910390f35b620000d16004803603810190620000cb919062000a71565b62000231565b604051620000e0919062000a0a565b60405180910390f35b620000f362000271565b60405162000102919062000a0a565b60405180910390f35b62000129600480360381019062000123919062000ad4565b62000297565b60405162000138919062000b63565b60405180910390f35b6200015f600480360381019062000159919062000b80565b620004cd565b6040516200016e919062000e54565b60405180910390f35b60606000805480602002602001604051908101604052809291908181526020018280548015620001fd57602002820191906000526020600020905b8160009054906101000a900473ffffffffffffffffffffffffffffffffffffffff1673ffffffffffffffffffffffffffffffffffffffff1681526020019060010190808311620001b2575b5050505050905090565b6000600160009054906101000a900473ffffffffffffffffffffffffffffffffffffffff16905090565b600081815481106200024257600080fd5b906000526020600020016000915054906101000a900473ffffffffffffffffffffffffffffffffffffffff1681565b600160009054906101000a900473ffffffffffffffffffffffffffffffffffffffff1681565b6000808411620002de576040517f08c379a0000000000000000000000000000000000000000000000000000000008152600401620002d59062000eff565b60405180910390fd5b6000831162000324576040517f08c379a00000000000000000000000000000000000000000000000000000000081526004016200031b9062000f97565b60405180910390fd5b600082116200036a576040517f08c379a000000000000000000000000000000000000000000000000000000000815260040162000361906200102f565b60405180910390fd5b600033868587866040516200037f90620007f8565b6200038f95949392919062001062565b604051809103906000f080158015620003ac573d6000803e3d6000fd5b5090506000819080600181540180825580915050600190039060005260206000200160009091909190916101000a81548173ffffffffffffffffffffffffffffffffffffffff021916908373ffffffffffffffffffffffffffffffffffffffff1602179055507f0cd3b2b4dda61e83de32d8fc2aee1fdec98027921248ae4889c27e8ba949cd7a8173ffffffffffffffffffffffffffffffffffffffff166338cc48316040518163ffffffff1660e01b8152600401602060405180830381865afa1580156200047f573d6000803e3d6000fd5b505050506040513d601f19601f82011682018060405250810190620004a59190620010d6565b3388604051620004b89392919062001108565b60405180910390a16001915050949350505050565b6060600080600080549050905060005b81811015620005da57620004f062000806565b6200053c600083815481106200050b576200050a62001145565b5b9060005260206000200160009054906101000a900473ffffffffffffffffffffffffffffffffffffffff166200076e565b90508573ffffffffffffffffffffffffffffffffffffffff16816040015173ffffffffffffffffffffffffffffffffffffffff161480620005ac57508573ffffffffffffffffffffffffffffffffffffffff16816020015173ffffffffffffffffffffffffffffffffffffffff16145b15620005c3578380620005bf90620011a3565b9450505b508080620005d190620011a3565b915050620004dd565b5060008267ffffffffffffffff811115620005fa57620005f9620011f0565b5b6040519080825280602002602001820160405280156200063757816020015b6200062362000806565b815260200190600190039081620006195790505b509050600080600090505b8381101562000761576200065562000806565b620006a16000838154811062000670576200066f62001145565b5b9060005260206000200160009054906101000a900473ffffffffffffffffffffffffffffffffffffffff166200076e565b90508773ffffffffffffffffffffffffffffffffffffffff16816040015173ffffffffffffffffffffffffffffffffffffffff1614806200071157508773ffffffffffffffffffffffffffffffffffffffff16816020015173ffffffffffffffffffffffffffffffffffffffff16145b156200074a57808484815181106200072e576200072d62001145565b5b602002602001018190525082806200074690620011a3565b9350505b5080806200075890620011a3565b91505062000642565b5081945050505050919050565b6200077862000806565b60008290508073ffffffffffffffffffffffffffffffffffffffff166301efb6c86040518163ffffffff1660e01b81526004016101e060405180830381865afa158015620007ca573d6000803e3d6000fd5b505050506040513d601f19601f82011682018060405250810190620007f0919062001450565b915050919050565b6136eb806200148483390190565b604051806101e00160405280600073ffffffffffffffffffffffffffffffffffffffff168152602001600073ffffffffffffffffffffffffffffffffffffffff168152602001600073ffffffffffffffffffffffffffffffffffffffff1681526020016000815260200160008152602001600081526020016000600581111562000895576200089462000bef565b5b815260200160008152602001600081526020016000815260200160008152602001600081526020016000815260200160008152602001600081525090565b600081519050919050565b600082825260208201905092915050565b6000819050602082019050919050565b600073ffffffffffffffffffffffffffffffffffffffff82169050919050565b60006200092c82620008ff565b9050919050565b6200093e816200091f565b82525050565b600062000952838362000933565b60208301905092915050565b6000602082019050919050565b60006200097882620008d3565b620009848185620008de565b93506200099183620008ef565b8060005b83811015620009c8578151620009ac888262000944565b9750620009b9836200095e565b92505060018101905062000995565b5085935050505092915050565b60006020820190508181036000830152620009f181846200096b565b905092915050565b62000a04816200091f565b82525050565b600060208201905062000a216000830184620009f9565b92915050565b6000604051905090565b600080fd5b6000819050919050565b62000a4b8162000a36565b811462000a5757600080fd5b50565b60008135905062000a6b8162000a40565b92915050565b60006020828403121562000a8a5762000a8962000a31565b5b600062000a9a8482850162000a5a565b91505092915050565b62000aae816200091f565b811462000aba57600080fd5b50565b60008135905062000ace8162000aa3565b92915050565b6000806000806080858703121562000af15762000af062000a31565b5b600062000b018782880162000abd565b945050602062000b148782880162000a5a565b935050604062000b278782880162000a5a565b925050606062000b3a8782880162000a5a565b91505092959194509250565b60008115159050919050565b62000b5d8162000b46565b82525050565b600060208201905062000b7a600083018462000b52565b92915050565b60006020828403121562000b995762000b9862000a31565b5b600062000ba98482850162000abd565b91505092915050565b600081519050919050565b600082825260208201905092915050565b6000819050602082019050919050565b62000be98162000a36565b82525050565b7f4e487b7100000000000000000000000000000000000000000000000000000000600052602160045260246000fd5b6006811062000c325762000c3162000bef565b5b50565b600081905062000c458262000c1e565b919050565b600062000c578262000c35565b9050919050565b62000c698162000c4a565b82525050565b6101e08201600082015162000c88600085018262000933565b50602082015162000c9d602085018262000933565b50604082015162000cb2604085018262000933565b50606082015162000cc7606085018262000bde565b50608082015162000cdc608085018262000bde565b5060a082015162000cf160a085018262000bde565b5060c082015162000d0660c085018262000c5e565b5060e082015162000d1b60e085018262000bde565b5061010082015162000d3261010085018262000bde565b5061012082015162000d4961012085018262000bde565b5061014082015162000d6061014085018262000bde565b5061016082015162000d7761016085018262000bde565b5061018082015162000d8e61018085018262000bde565b506101a082015162000da56101a085018262000bde565b506101c082015162000dbc6101c085018262000bde565b50505050565b600062000dd0838362000c6f565b6101e08301905092915050565b6000602082019050919050565b600062000df78262000bb2565b62000e03818562000bbd565b935062000e108362000bce565b8060005b8381101562000e4757815162000e2b888262000dc2565b975062000e388362000ddd565b92505060018101905062000e14565b5085935050505092915050565b6000602082019050818103600083015262000e70818462000dea565b905092915050565b600082825260208201905092915050565b7f746f74616c50726f64756374206d75737420626520677265617465722074686160008201527f6e207a65726f0000000000000000000000000000000000000000000000000000602082015250565b600062000ee760268362000e78565b915062000ef48262000e89565b604082019050919050565b6000602082019050818103600083015262000f1a8162000ed8565b9050919050565b7f7368697070696e675072696365206d757374206265206772656174657220746860008201527f616e207a65726f00000000000000000000000000000000000000000000000000602082015250565b600062000f7f60278362000e78565b915062000f8c8262000f21565b604082019050919050565b6000602082019050818103600083015262000fb28162000f70565b9050919050565b7f646561646c696e65206d7573742062652067726561746572207468616e207a6560008201527f726f000000000000000000000000000000000000000000000000000000000000602082015250565b60006200101760228362000e78565b9150620010248262000fb9565b604082019050919050565b600060208201905081810360008301526200104a8162001008565b9050919050565b6200105c8162000a36565b82525050565b600060a082019050620010796000830188620009f9565b620010886020830187620009f9565b62001097604083018662001051565b620010a6606083018562001051565b620010b5608083018462001051565b9695505050505050565b600081519050620010d08162000aa3565b92915050565b600060208284031215620010ef57620010ee62000a31565b5b6000620010ff84828501620010bf565b91505092915050565b60006060820190506200111f6000830186620009f9565b6200112e6020830185620009f9565b6200113d6040830184620009f9565b949350505050565b7f4e487b7100000000000000000000000000000000000000000000000000000000600052603260045260246000fd5b7f4e487b7100000000000000000000000000000000000000000000000000000000600052601160045260246000fd5b6000620011b08262000a36565b91507fffffffffffffffffffffffffffffffffffffffffffffffffffffffffffffffff8203620011e557620011e462001174565b5b600182019050919050565b7f4e487b7100000000000000000000000000000000000000000000000000000000600052604160045260246000fd5b600080fd5b6000601f19601f8301169050919050565b620012408262001224565b810181811067ffffffffffffffff82111715620012625762001261620011f0565b5b80604052505050565b60006200127762000a27565b905062001285828262001235565b919050565b6000815190506200129b8162000a40565b92915050565b60068110620012af57600080fd5b50565b600081519050620012c381620012a1565b92915050565b60006101e08284031215620012e357620012e26200121f565b5b620012f06101e06200126b565b905060006200130284828501620010bf565b60008301525060206200131884828501620010bf565b60208301525060406200132e84828501620010bf565b604083015250606062001344848285016200128a565b60608301525060806200135a848285016200128a565b60808301525060a062001370848285016200128a565b60a08301525060c06200138684828501620012b2565b60c08301525060e06200139c848285016200128a565b60e083015250610100620013b3848285016200128a565b61010083015250610120620013cb848285016200128a565b61012083015250610140620013e3848285016200128a565b61014083015250610160620013fb848285016200128a565b6101608301525061018062001413848285016200128a565b610180830152506101a06200142b848285016200128a565b6101a0830152506101c062001443848285016200128a565b6101c08301525092915050565b60006101e082840312156200146a576200146962000a31565b5b60006200147a84828501620012c9565b9150509291505056fe60806040523480156200001157600080fd5b50604051620036eb380380620036eb83398181016040528101906200003791906200017d565b846000806101000a81548173ffffffffffffffffffffffffffffffffffffffff021916908373ffffffffffffffffffffffffffffffffffffffff16021790555083600160006101000a81548173ffffffffffffffffffffffffffffffffffffffff021916908373ffffffffffffffffffffffffffffffffffffffff160217905550826003819055508160048190555080600b81905550505050505062000205565b600080fd5b600073ffffffffffffffffffffffffffffffffffffffff82169050919050565b60006200010a82620000dd565b9050919050565b6200011c81620000fd565b81146200012857600080fd5b50565b6000815190506200013c8162000111565b92915050565b6000819050919050565b620001578162000142565b81146200016357600080fd5b50565b60008151905062000177816200014c565b92915050565b600080600080600060a086880312156200019c576200019b620000d8565b5b6000620001ac888289016200012b565b9550506020620001bf888289016200012b565b9450506040620001d28882890162000166565b9350506060620001e58882890162000166565b9250506080620001f88882890162000166565b9150509295509295909350565b6134d680620002156000396000f3fe6080604052600436106101665760003560e01c80638ac7d79c116100d1578063ab0d92dd1161008a578063cfe97dc411610064578063cfe97dc41461049e578063d6960697146104b5578063f710809b146104bf578063ff408833146104ff57610166565b8063ab0d92dd14610431578063b1988acf1461045c578063c19d93fb1461047357610166565b80638ac7d79c146103315780638e4b70101461035a578063921862a61461038557806398568366146103b0578063a6854f8e146103db578063a911715c1461040657610166565b8063566bceef11610123578063566bceef1461026d57806357b36929146102985780636f674685146102c157806370715030146102d857806381e4313914610303578063826ebf761461031a57610166565b806301efb6c81461016b5780630419677c1461019657806312065fe0146101c157806329dcb0cf146101ec57806338cc4831146102175780634e3cc1fe14610242575b600080fd5b34801561017757600080fd5b50610180610516565b60405161018d9190612c83565b60405180910390f35b3480156101a257600080fd5b506101ab61064e565b6040516101b89190612cae565b60405180910390f35b3480156101cd57600080fd5b506101d6610654565b6040516101e39190612cae565b60405180910390f35b3480156101f857600080fd5b5061020161065c565b60405161020e9190612cae565b60405180910390f35b34801561022357600080fd5b5061022c610662565b6040516102399190612cd8565b60405180910390f35b34801561024e57600080fd5b5061025761066a565b6040516102649190612cae565b60405180910390f35b34801561027957600080fd5b50610282610670565b60405161028f9190612cae565b60405180910390f35b3480156102a457600080fd5b506102bf60048036038101906102ba9190612d24565b610676565b005b3480156102cd57600080fd5b506102d6610907565b005b3480156102e457600080fd5b506102ed610cdc565b6040516102fa9190612cae565b60405180910390f35b34801561030f57600080fd5b50610318610ce2565b005b34801561032657600080fd5b5061032f611298565b005b34801561033d57600080fd5b5061035860048036038101906103539190612d24565b6117ff565b005b34801561036657600080fd5b5061036f611a92565b60405161037c9190612cae565b60405180910390f35b34801561039157600080fd5b5061039a611a98565b6040516103a79190612e55565b60405180910390f35b3480156103bc57600080fd5b506103c5611ba2565b6040516103d29190612cae565b60405180910390f35b3480156103e757600080fd5b506103f0611ba8565b6040516103fd9190612cae565b60405180910390f35b34801561041257600080fd5b5061041b611bae565b6040516104289190612cae565b60405180910390f35b34801561043d57600080fd5b50610446611bb4565b6040516104539190612cae565b60405180910390f35b34801561046857600080fd5b50610471611bba565b005b34801561047f57600080fd5b50610488611f3c565b6040516104959190612e86565b60405180910390f35b3480156104aa57600080fd5b506104b3611f4f565b005b6104bd6122f4565b005b3480156104cb57600080fd5b506104e660048036038101906104e19190612d24565b612633565b6040516104f69493929190612ea1565b60405180910390f35b34801561050b57600080fd5b506105146126a0565b005b61051e6129b3565b604051806101e00160405280610532610662565b73ffffffffffffffffffffffffffffffffffffffff16815260200160008054906101000a900473ffffffffffffffffffffffffffffffffffffffff1673ffffffffffffffffffffffffffffffffffffffff168152602001600160009054906101000a900473ffffffffffffffffffffffffffffffffffffffff1673ffffffffffffffffffffffffffffffffffffffff168152602001600254815260200160035481526020016004548152602001600d60009054906101000a900460ff16600581111561060157610600612ad7565b5b815260200160055481526020016006548152602001600754815260200160085481526020016009548152602001600a548152602001600b548152602001610646610654565b815250905090565b60085481565b600047905090565b600b5481565b600030905090565b600a5481565b60045481565b60008054906101000a900473ffffffffffffffffffffffffffffffffffffffff1673ffffffffffffffffffffffffffffffffffffffff163373ffffffffffffffffffffffffffffffffffffffff1614610704576040517f08c379a00000000000000000000000000000000000000000000000000000000081526004016106fb90612f43565b60405180910390fd5b6001600581111561071857610717612ad7565b5b600d60009054906101000a900460ff16600581111561073a57610739612ad7565b5b1461077a576040517f08c379a000000000000000000000000000000000000000000000000000000000815260040161077190612fd5565b60405180910390fd5b6004600d60006101000a81548160ff021916908360058111156107a05761079f612ad7565b5b02179055504260098190555080600b81905550600060405180608001604052803373ffffffffffffffffffffffffffffffffffffffff16815260200160008152602001600d60009054906101000a900460ff16600581111561080557610804612ad7565b5b81526020016009548152509050600c81908060018154018082558091505060019003906000526020600020906004020160009091909190915060008201518160000160006101000a81548173ffffffffffffffffffffffffffffffffffffffff021916908373ffffffffffffffffffffffffffffffffffffffff1602179055506020820151816001015560408201518160020160006101000a81548160ff021916908360058111156108ba576108b9612ad7565b5b02179055506060820151816003015550507facca1bfa13be050eb725ae7a93cb25004ee04e61475ec23f75c143ee54e4939f60046040516108fb9190612e86565b60405180910390a15050565b600b546103e8426109189190613024565b11610958576040517f08c379a000000000000000000000000000000000000000000000000000000000815260040161094f906130d8565b60405180910390fd5b600160009054906101000a900473ffffffffffffffffffffffffffffffffffffffff1673ffffffffffffffffffffffffffffffffffffffff163373ffffffffffffffffffffffffffffffffffffffff16146109e8576040517f08c379a00000000000000000000000000000000000000000000000000000000081526004016109df90612f43565b60405180910390fd5b600160058111156109fc576109fb612ad7565b5b600d60009054906101000a900460ff166005811115610a1e57610a1d612ad7565b5b14610a5e576040517f08c379a0000000000000000000000000000000000000000000000000000000008152600401610a5590612fd5565b60405180910390fd5b60004711610aa1576040517f08c379a0000000000000000000000000000000000000000000000000000000008152600401610a9890613144565b60405180910390fd5b600160009054906101000a900473ffffffffffffffffffffffffffffffffffffffff1673ffffffffffffffffffffffffffffffffffffffff166108fc479081150290604051600060405180830381858888f19350505050158015610b09573d6000803e3d6000fd5b506003600d60006101000a81548160ff02191690836005811115610b3057610b2f612ad7565b5b02179055504260058190555060006040518060800160405280600160009054906101000a900473ffffffffffffffffffffffffffffffffffffffff1673ffffffffffffffffffffffffffffffffffffffff1681526020016002548152602001600d60009054906101000a900460ff166005811115610bb157610bb0612ad7565b5b81526020016005548152509050600c81908060018154018082558091505060019003906000526020600020906004020160009091909190915060008201518160000160006101000a81548173ffffffffffffffffffffffffffffffffffffffff021916908373ffffffffffffffffffffffffffffffffffffffff1602179055506020820151816001015560408201518160020160006101000a81548160ff02191690836005811115610c6657610c65612ad7565b5b02179055506060820151816003015550507fce244a866e4105e01f5daf8b8de5810a6fdd632afd98f0d08499423441c1a31630600160009054906101000a900473ffffffffffffffffffffffffffffffffffffffff166002546003604051610cd19493929190613185565b60405180910390a150565b60035481565b600b546103e842610cf39190613024565b11610d33576040517f08c379a0000000000000000000000000000000000000000000000000000000008152600401610d2a906130d8565b60405180910390fd5b60008054906101000a900473ffffffffffffffffffffffffffffffffffffffff1673ffffffffffffffffffffffffffffffffffffffff163373ffffffffffffffffffffffffffffffffffffffff1614610dc1576040517f08c379a0000000000000000000000000000000000000000000000000000000008152600401610db890612f43565b60405180910390fd5b60046005811115610dd557610dd4612ad7565b5b600d60009054906101000a900460ff166005811115610df757610df6612ad7565b5b14610e37576040517f08c379a0000000000000000000000000000000000000000000000000000000008152600401610e2e9061323c565b60405180910390fd5b60004711610e7a576040517f08c379a0000000000000000000000000000000000000000000000000000000008152600401610e7190613144565b60405180910390fd5b6005600d60006101000a81548160ff02191690836005811115610ea057610e9f612ad7565b5b021790555042600a81905550600160009054906101000a900473ffffffffffffffffffffffffffffffffffffffff1673ffffffffffffffffffffffffffffffffffffffff166108fc6003549081150290604051600060405180830381858888f19350505050158015610f16573d6000803e3d6000fd5b5060006040518060800160405280600160009054906101000a900473ffffffffffffffffffffffffffffffffffffffff1673ffffffffffffffffffffffffffffffffffffffff1681526020016003548152602001600d60009054906101000a900460ff166005811115610f8c57610f8b612ad7565b5b8152602001600a548152509050600c81908060018154018082558091505060019003906000526020600020906004020160009091909190915060008201518160000160006101000a81548173ffffffffffffffffffffffffffffffffffffffff021916908373ffffffffffffffffffffffffffffffffffffffff1602179055506020820151816001015560408201518160020160006101000a81548160ff0219169083600581111561104157611040612ad7565b5b021790555060608201518160030155505060008054906101000a900473ffffffffffffffffffffffffffffffffffffffff1673ffffffffffffffffffffffffffffffffffffffff166108fc479081150290604051600060405180830381858888f193505050501580156110b8573d6000803e3d6000fd5b506000604051806080016040528060008054906101000a900473ffffffffffffffffffffffffffffffffffffffff1673ffffffffffffffffffffffffffffffffffffffff168152602001600354600254611112919061325c565b8152602001600d60009054906101000a900460ff16600581111561113957611138612ad7565b5b8152602001600a548152509050600c81908060018154018082558091505060019003906000526020600020906004020160009091909190915060008201518160000160006101000a81548173ffffffffffffffffffffffffffffffffffffffff021916908373ffffffffffffffffffffffffffffffffffffffff1602179055506020820151816001015560408201518160020160006101000a81548160ff021916908360058111156111ee576111ed612ad7565b5b02179055506060820151816003015550507fab7091e501a850216686bfcc48e21aeb92fd7ad3e559933b25e6b98f4a502e6c3060008054906101000a900473ffffffffffffffffffffffffffffffffffffffff16600354600254611252919061325c565b600160009054906101000a900473ffffffffffffffffffffffffffffffffffffffff16600354600560405161128c96959493929190613290565b60405180910390a15050565b600160009054906101000a900473ffffffffffffffffffffffffffffffffffffffff1673ffffffffffffffffffffffffffffffffffffffff163373ffffffffffffffffffffffffffffffffffffffff1614611328576040517f08c379a000000000000000000000000000000000000000000000000000000000815260040161131f90612f43565b60405180910390fd5b6000471161136b576040517f08c379a000000000000000000000000000000000000000000000000000000000815260040161136290613144565b60405180910390fd5b6004600581111561137f5761137e612ad7565b5b600d60009054906101000a900460ff1660058111156113a1576113a0612ad7565b5b146113e1576040517f08c379a00000000000000000000000000000000000000000000000000000000081526004016113d89061323c565b60405180910390fd5b6005600d60006101000a81548160ff0219169083600581111561140757611406612ad7565b5b021790555042600a81905550600160009054906101000a900473ffffffffffffffffffffffffffffffffffffffff1673ffffffffffffffffffffffffffffffffffffffff166108fc6003549081150290604051600060405180830381858888f1935050505015801561147d573d6000803e3d6000fd5b5060006040518060800160405280600160009054906101000a900473ffffffffffffffffffffffffffffffffffffffff1673ffffffffffffffffffffffffffffffffffffffff1681526020016003548152602001600d60009054906101000a900460ff1660058111156114f3576114f2612ad7565b5b8152602001600a548152509050600c81908060018154018082558091505060019003906000526020600020906004020160009091909190915060008201518160000160006101000a81548173ffffffffffffffffffffffffffffffffffffffff021916908373ffffffffffffffffffffffffffffffffffffffff1602179055506020820151816001015560408201518160020160006101000a81548160ff021916908360058111156115a8576115a7612ad7565b5b021790555060608201518160030155505060008054906101000a900473ffffffffffffffffffffffffffffffffffffffff1673ffffffffffffffffffffffffffffffffffffffff166108fc479081150290604051600060405180830381858888f1935050505015801561161f573d6000803e3d6000fd5b506000604051806080016040528060008054906101000a900473ffffffffffffffffffffffffffffffffffffffff1673ffffffffffffffffffffffffffffffffffffffff168152602001600354600254611679919061325c565b8152602001600d60009054906101000a900460ff1660058111156116a05761169f612ad7565b5b8152602001600a548152509050600c81908060018154018082558091505060019003906000526020600020906004020160009091909190915060008201518160000160006101000a81548173ffffffffffffffffffffffffffffffffffffffff021916908373ffffffffffffffffffffffffffffffffffffffff1602179055506020820151816001015560408201518160020160006101000a81548160ff0219169083600581111561175557611754612ad7565b5b02179055506060820151816003015550507fab7091e501a850216686bfcc48e21aeb92fd7ad3e559933b25e6b98f4a502e6c3060008054906101000a900473ffffffffffffffffffffffffffffffffffffffff166003546002546117b9919061325c565b600160009054906101000a900473ffffffffffffffffffffffffffffffffffffffff1660035460056040516117f396959493929190613290565b60405180910390a15050565b600160009054906101000a900473ffffffffffffffffffffffffffffffffffffffff1673ffffffffffffffffffffffffffffffffffffffff163373ffffffffffffffffffffffffffffffffffffffff161461188f576040517f08c379a000000000000000000000000000000000000000000000000000000000815260040161188690612f43565b60405180910390fd5b600060058111156118a3576118a2612ad7565b5b600d60009054906101000a900460ff1660058111156118c5576118c4612ad7565b5b14611905576040517f08c379a00000000000000000000000000000000000000000000000000000000081526004016118fc90613363565b60405180910390fd5b6001600d60006101000a81548160ff0219169083600581111561192b5761192a612ad7565b5b02179055504260068190555080600b81905550600060405180608001604052803373ffffffffffffffffffffffffffffffffffffffff16815260200160008152602001600d60009054906101000a900460ff1660058111156119905761198f612ad7565b5b81526020016006548152509050600c81908060018154018082558091505060019003906000526020600020906004020160009091909190915060008201518160000160006101000a81548173ffffffffffffffffffffffffffffffffffffffff021916908373ffffffffffffffffffffffffffffffffffffffff1602179055506020820151816001015560408201518160020160006101000a81548160ff02191690836005811115611a4557611a44612ad7565b5b02179055506060820151816003015550507f9da956bcab8fa91336320efb87c683b4536b21e701ba93b99780cd10c11d0dcd6001604051611a869190612e86565b60405180910390a15050565b60055481565b60606000600c805480602002602001604051908101604052809291908181526020016000905b82821015611b9557838290600052602060002090600402016040518060800160405290816000820160009054906101000a900473ffffffffffffffffffffffffffffffffffffffff1673ffffffffffffffffffffffffffffffffffffffff1673ffffffffffffffffffffffffffffffffffffffff168152602001600182015481526020016002820160009054906101000a900460ff166005811115611b6657611b65612ad7565b5b6005811115611b7857611b77612ad7565b5b815260200160038201548152505081526020019060010190611abe565b5050505090508091505090565b60095481565b60065481565b60075481565b60025481565b60008054906101000a900473ffffffffffffffffffffffffffffffffffffffff1673ffffffffffffffffffffffffffffffffffffffff163373ffffffffffffffffffffffffffffffffffffffff1614611c48576040517f08c379a0000000000000000000000000000000000000000000000000000000008152600401611c3f90612f43565b60405180910390fd5b60004711611c8b576040517f08c379a0000000000000000000000000000000000000000000000000000000008152600401611c8290613144565b60405180910390fd5b60016005811115611c9f57611c9e612ad7565b5b600d60009054906101000a900460ff166005811115611cc157611cc0612ad7565b5b14611d01576040517f08c379a0000000000000000000000000000000000000000000000000000000008152600401611cf890612fd5565b60405180910390fd5b600160009054906101000a900473ffffffffffffffffffffffffffffffffffffffff1673ffffffffffffffffffffffffffffffffffffffff166108fc479081150290604051600060405180830381858888f19350505050158015611d69573d6000803e3d6000fd5b506003600d60006101000a81548160ff02191690836005811115611d9057611d8f612ad7565b5b02179055504260088190555060006040518060800160405280600160009054906101000a900473ffffffffffffffffffffffffffffffffffffffff1673ffffffffffffffffffffffffffffffffffffffff1681526020016002548152602001600d60009054906101000a900460ff166005811115611e1157611e10612ad7565b5b81526020016008548152509050600c81908060018154018082558091505060019003906000526020600020906004020160009091909190915060008201518160000160006101000a81548173ffffffffffffffffffffffffffffffffffffffff021916908373ffffffffffffffffffffffffffffffffffffffff1602179055506020820151816001015560408201518160020160006101000a81548160ff02191690836005811115611ec657611ec5612ad7565b5b02179055506060820151816003015550507fce244a866e4105e01f5daf8b8de5810a6fdd632afd98f0d08499423441c1a31630600160009054906101000a900473ffffffffffffffffffffffffffffffffffffffff166002546003604051611f319493929190613185565b60405180910390a150565b600d60009054906101000a900460ff1681565b600b546103e842611f609190613024565b11611fa0576040517f08c379a0000000000000000000000000000000000000000000000000000000008152600401611f97906130d8565b60405180910390fd5b60008054906101000a900473ffffffffffffffffffffffffffffffffffffffff1673ffffffffffffffffffffffffffffffffffffffff163373ffffffffffffffffffffffffffffffffffffffff161461202e576040517f08c379a000000000000000000000000000000000000000000000000000000000815260040161202590612f43565b60405180910390fd5b6000600581111561204257612041612ad7565b5b600d60009054906101000a900460ff16600581111561206457612063612ad7565b5b146120a4576040517f08c379a000000000000000000000000000000000000000000000000000000000815260040161209b90613363565b60405180910390fd5b600047116120e7576040517f08c379a00000000000000000000000000000000000000000000000000000000081526004016120de90613144565b60405180910390fd5b60008054906101000a900473ffffffffffffffffffffffffffffffffffffffff1673ffffffffffffffffffffffffffffffffffffffff166108fc479081150290604051600060405180830381858888f1935050505015801561214d573d6000803e3d6000fd5b506002600d60006101000a81548160ff0219169083600581111561217457612173612ad7565b5b0217905550426007819055506000604051806080016040528060008054906101000a900473ffffffffffffffffffffffffffffffffffffffff1673ffffffffffffffffffffffffffffffffffffffff1681526020016002548152602001600d60009054906101000a900460ff1660058111156121f3576121f2612ad7565b5b81526020016007548152509050600c81908060018154018082558091505060019003906000526020600020906004020160009091909190915060008201518160000160006101000a81548173ffffffffffffffffffffffffffffffffffffffff021916908373ffffffffffffffffffffffffffffffffffffffff1602179055506020820151816001015560408201518160020160006101000a81548160ff021916908360058111156122a8576122a7612ad7565b5b02179055506060820151816003015550507f39b22c6fe987e72c777e4ce25a6e4e9a473cc255b6a6cc6ff01b6bc56982eea460026040516122e99190612e86565b60405180910390a150565b60008054906101000a900473ffffffffffffffffffffffffffffffffffffffff1673ffffffffffffffffffffffffffffffffffffffff163373ffffffffffffffffffffffffffffffffffffffff1614612382576040517f08c379a000000000000000000000000000000000000000000000000000000000815260040161237990612f43565b60405180910390fd5b6000600581111561239657612395612ad7565b5b600d60009054906101000a900460ff1660058111156123b8576123b7612ad7565b5b146123f8576040517f08c379a00000000000000000000000000000000000000000000000000000000081526004016123ef90613363565b60405180910390fd5b6000341161243b576040517f08c379a0000000000000000000000000000000000000000000000000000000008152600401612432906133cf565b60405180910390fd5b343373ffffffffffffffffffffffffffffffffffffffff163111612494576040517f08c379a000000000000000000000000000000000000000000000000000000000815260040161248b9061343b565b60405180910390fd5b34600281905550426005819055506000600d60006101000a81548160ff021916908360058111156124c8576124c7612ad7565b5b0217905550600060405180608001604052806124e2610662565b73ffffffffffffffffffffffffffffffffffffffff168152602001348152602001600d60009054906101000a900460ff16600581111561252557612524612ad7565b5b81526020016005548152509050600c81908060018154018082558091505060019003906000526020600020906004020160009091909190915060008201518160000160006101000a81548173ffffffffffffffffffffffffffffffffffffffff021916908373ffffffffffffffffffffffffffffffffffffffff1602179055506020820151816001015560408201518160020160006101000a81548160ff021916908360058111156125da576125d9612ad7565b5b02179055506060820151816003015550507fc20bc9ac6bb8fd7d3c66da8c0a5b5828a145aca18b25f4b2843562a2146650d233612615610662565b346000604051612628949392919061345b565b60405180910390a150565b600c818154811061264357600080fd5b90600052602060002090600402016000915090508060000160009054906101000a900473ffffffffffffffffffffffffffffffffffffffff16908060010154908060020160009054906101000a900460ff16908060030154905084565b600160009054906101000a900473ffffffffffffffffffffffffffffffffffffffff1673ffffffffffffffffffffffffffffffffffffffff163373ffffffffffffffffffffffffffffffffffffffff1614612730576040517f08c379a000000000000000000000000000000000000000000000000000000000815260040161272790612f43565b60405180910390fd5b6000600581111561274457612743612ad7565b5b600d60009054906101000a900460ff16600581111561276657612765612ad7565b5b146127a6576040517f08c379a000000000000000000000000000000000000000000000000000000000815260040161279d90613363565b60405180910390fd5b60008054906101000a900473ffffffffffffffffffffffffffffffffffffffff1673ffffffffffffffffffffffffffffffffffffffff166108fc479081150290604051600060405180830381858888f1935050505015801561280c573d6000803e3d6000fd5b506002600d60006101000a81548160ff0219169083600581111561283357612832612ad7565b5b0217905550426007819055506000604051806080016040528060008054906101000a900473ffffffffffffffffffffffffffffffffffffffff1673ffffffffffffffffffffffffffffffffffffffff1681526020016002548152602001600d60009054906101000a900460ff1660058111156128b2576128b1612ad7565b5b81526020016007548152509050600c81908060018154018082558091505060019003906000526020600020906004020160009091909190915060008201518160000160006101000a81548173ffffffffffffffffffffffffffffffffffffffff021916908373ffffffffffffffffffffffffffffffffffffffff1602179055506020820151816001015560408201518160020160006101000a81548160ff0219169083600581111561296757612966612ad7565b5b02179055506060820151816003015550507f39b22c6fe987e72c777e4ce25a6e4e9a473cc255b6a6cc6ff01b6bc56982eea460026040516129a89190612e86565b60405180910390a150565b604051806101e00160405280600073ffffffffffffffffffffffffffffffffffffffff168152602001600073ffffffffffffffffffffffffffffffffffffffff168152602001600073ffffffffffffffffffffffffffffffffffffffff16815260200160008152602001600081526020016000815260200160006005811115612a3f57612a3e612ad7565b5b815260200160008152602001600081526020016000815260200160008152602001600081526020016000815260200160008152602001600081525090565b600073ffffffffffffffffffffffffffffffffffffffff82169050919050565b6000612aa882612a7d565b9050919050565b612ab881612a9d565b82525050565b6000819050919050565b612ad181612abe565b82525050565b7f4e487b7100000000000000000000000000000000000000000000000000000000600052602160045260246000fd5b60068110612b1757612b16612ad7565b5b50565b6000819050612b2882612b06565b919050565b6000612b3882612b1a565b9050919050565b612b4881612b2d565b82525050565b6101e082016000820151612b656000850182612aaf565b506020820151612b786020850182612aaf565b506040820151612b8b6040850182612aaf565b506060820151612b9e6060850182612ac8565b506080820151612bb16080850182612ac8565b5060a0820151612bc460a0850182612ac8565b5060c0820151612bd760c0850182612b3f565b5060e0820151612bea60e0850182612ac8565b50610100820151612bff610100850182612ac8565b50610120820151612c14610120850182612ac8565b50610140820151612c29610140850182612ac8565b50610160820151612c3e610160850182612ac8565b50610180820151612c53610180850182612ac8565b506101a0820151612c686101a0850182612ac8565b506101c0820151612c7d6101c0850182612ac8565b50505050565b60006101e082019050612c996000830184612b4e565b92915050565b612ca881612abe565b82525050565b6000602082019050612cc36000830184612c9f565b92915050565b612cd281612a9d565b82525050565b6000602082019050612ced6000830184612cc9565b92915050565b600080fd5b612d0181612abe565b8114612d0c57600080fd5b50565b600081359050612d1e81612cf8565b92915050565b600060208284031215612d3a57612d39612cf3565b5b6000612d4884828501612d0f565b91505092915050565b600081519050919050565b600082825260208201905092915050565b6000819050602082019050919050565b608082016000820151612d936000850182612aaf565b506020820151612da66020850182612ac8565b506040820151612db96040850182612b3f565b506060820151612dcc6060850182612ac8565b50505050565b6000612dde8383612d7d565b60808301905092915050565b6000602082019050919050565b6000612e0282612d51565b612e0c8185612d5c565b9350612e1783612d6d565b8060005b83811015612e48578151612e2f8882612dd2565b9750612e3a83612dea565b925050600181019050612e1b565b5085935050505092915050565b60006020820190508181036000830152612e6f8184612df7565b905092915050565b612e8081612b2d565b82525050565b6000602082019050612e9b6000830184612e77565b92915050565b6000608082019050612eb66000830187612cc9565b612ec36020830186612c9f565b612ed06040830185612e77565b612edd6060830184612c9f565b95945050505050565b600082825260208201905092915050565b7f4e6f74207065726d697373696f6e000000000000000000000000000000000000600082015250565b6000612f2d600e83612ee6565b9150612f3882612ef7565b602082019050919050565b60006020820190508181036000830152612f5c81612f20565b9050919050565b7f4f7264657220737461747573206d7573742062652073746174757320434f4e4660008201527f49524d4544000000000000000000000000000000000000000000000000000000602082015250565b6000612fbf602583612ee6565b9150612fca82612f63565b604082019050919050565b60006020820190508181036000830152612fee81612fb2565b9050919050565b7f4e487b7100000000000000000000000000000000000000000000000000000000600052601160045260246000fd5b600061302f82612abe565b915061303a83612abe565b925082820261304881612abe565b9150828204841483151761305f5761305e612ff5565b5b5092915050565b7f50726573656e742074696d65206d75737420626520677265617465722064656160008201527f646c696e65000000000000000000000000000000000000000000000000000000602082015250565b60006130c2602583612ee6565b91506130cd82613066565b604082019050919050565b600060208201905081810360008301526130f1816130b5565b9050919050565b7f42616c616e6365206f66206f72646572206973206e6f7420656e6f7567680000600082015250565b600061312e601e83612ee6565b9150613139826130f8565b602082019050919050565b6000602082019050818103600083015261315d81613121565b9050919050565b600061316f82612a7d565b9050919050565b61317f81613164565b82525050565b600060808201905061319a6000830187612cc9565b6131a76020830186613176565b6131b46040830185612c9f565b6131c16060830184612e77565b95945050505050565b7f4f7264657220737461747573206d75737420626520737461747573205245545560008201527f524e000000000000000000000000000000000000000000000000000000000000602082015250565b6000613226602283612ee6565b9150613231826131ca565b604082019050919050565b6000602082019050818103600083015261325581613219565b9050919050565b600061326782612abe565b915061327283612abe565b925082820390508181111561328a57613289612ff5565b5b92915050565b600060c0820190506132a56000830189612cc9565b6132b26020830188613176565b6132bf6040830187612c9f565b6132cc6060830186613176565b6132d96080830185612c9f565b6132e660a0830184612e77565b979650505050505050565b7f4f7264657220737461747573206d757374206265207374617475732050454e4460008201527f494e470000000000000000000000000000000000000000000000000000000000602082015250565b600061334d602383612ee6565b9150613358826132f1565b604082019050919050565b6000602082019050818103600083015261337c81613340565b9050919050565b7f56616c7565206d75737420626520677265617465722030000000000000000000600082015250565b60006133b9601783612ee6565b91506133c482613383565b602082019050919050565b600060208201905081810360008301526133e8816133ac565b9050919050565b7f42616c616e6365206f66206163636f756e74206973206e6f7420656e6f756768600082015250565b6000613425602083612ee6565b9150613430826133ef565b602082019050919050565b6000602082019050818103600083015261345481613418565b9050919050565b60006080820190506134706000830187612cc9565b61347d6020830186612cc9565b61348a6040830185612c9f565b6134976060830184612e77565b9594505050505056fea2646970667358221220ecff87b8109bdb82066b8f44c87cbef31a760c6b5d84d634f14a339967a8497b64736f6c63430008110033a26469706673582212200e7286e00278139a9fee71645abf80ebee9cd739ea813f74cc5e5f2b18543a7764736f6c63430008110033",
  "immutableReferences": {},
  "source": "// SPDX-License-Identifier: GPL-3.0\r\n\r\npragma solidity >=0.7.0 <0.9.0;\r\nimport \"./Order.sol\";\r\n\r\ncontract Warehouse {\r\n    address[] public listOrder;\r\n    address public owner;\r\n\r\n    constructor() payable {\r\n        owner = msg.sender;\r\n    }\r\n\r\n    event createOrder(\r\n        address orderAddress, \r\n        address owner,\r\n        address seller\r\n    );\r\n\r\n    function getOwner() public view returns (address) {\r\n        return owner;\r\n    }\r\n\r\n    function addOrder(address seller, uint256 totalProduct, uint256 shippingPrice, uint256 deadline) \r\n        public \r\n        returns \r\n        (bool) \r\n    {\r\n        require(totalProduct > 0, \"totalProduct must be greater than zero\");\r\n        require(shippingPrice > 0, \"shippingPrice must be greater than zero\");\r\n        require(deadline > 0, \"deadline must be greater than zero\");\r\n        Order order = new Order(msg.sender, seller, shippingPrice, totalProduct, deadline);\r\n        listOrder.push(address(order));\r\n        emit createOrder(\r\n            order.getAddress(),\r\n            msg.sender,\r\n            seller\r\n        );\r\n        return true;\r\n    }\r\n\r\n    function getAllOrder() public view returns (address[] memory) {\r\n        return listOrder;\r\n    }\r\n\r\n    function getOrderInfo(address _address)\r\n        private\r\n        view\r\n        returns (Order.OrderInfo memory)\r\n    {\r\n        Order order = Order(_address);\r\n        return order.getOrderInfo();\r\n    }\r\n\r\n    function getOrderPerCompany(address _addressCompany) public view returns (Order.OrderInfo[] memory) {\r\n        uint256 totalResult;\r\n        uint256 totalOrder = listOrder.length;\r\n\r\n        for (uint256 i = 0; i < totalOrder; i++) {\r\n            Order.OrderInfo memory orderDetail;\r\n            orderDetail = getOrderInfo(listOrder[i]);\r\n            if(orderDetail.seller == _addressCompany || orderDetail.buyer == _addressCompany) {\r\n                totalResult++; \r\n            }\r\n        }\r\n        Order.OrderInfo[] memory orderPerCompany = new Order.OrderInfo[](totalResult);\r\n        uint256 j;\r\n        for (uint256 i = 0; i < totalOrder; i++) {\r\n            Order.OrderInfo memory orderDetail;\r\n            orderDetail = getOrderInfo(listOrder[i]);\r\n            if(orderDetail.seller == _addressCompany || orderDetail.buyer == _addressCompany) {\r\n                orderPerCompany[j] = orderDetail;\r\n                j++;\r\n            }\r\n        }\r\n\r\n        return orderPerCompany;\r\n    }\r\n}",
  "sourcePath": "E:\\ATN-2022\\Warehouse-Protection\\warehouse-fe-blockchain\\contracts\\Warehouse.sol",
  "compiler": {
    "name": "solc",
    "version": "0.8.17+commit.8df45f5f.Emscripten.clang"
  },
  "schemaVersion": "3.4.10",
  "updatedAt": "2022-12-25T15:57:28.401Z",
  "networkType": "ethereum",
  "devdoc": {
    "kind": "dev",
    "methods": {},
    "version": 1
  },
  "userdoc": {
    "kind": "user",
    "methods": {},
    "version": 1
  }
}