{
  "contractName": "Warehouse",
  "abi": [
    {
      "inputs": [],
      "stateMutability": "payable",
      "type": "constructor",
      "payable": true
    },
    {
      "anonymous": false,
      "inputs": [
        {
          "indexed": false,
          "internalType": "address",
          "name": "orderAddress",
          "type": "address"
        },
        {
          "indexed": false,
          "internalType": "address",
          "name": "owner",
          "type": "address"
        },
        {
          "indexed": false,
          "internalType": "address",
          "name": "seller",
          "type": "address"
        },
        {
          "indexed": false,
          "internalType": "uint256",
          "name": "totalPrice",
          "type": "uint256"
        },
        {
          "indexed": false,
          "internalType": "uint256",
          "name": "totalProduct",
          "type": "uint256"
        },
        {
          "indexed": false,
          "internalType": "string",
          "name": "details",
          "type": "string"
        }
      ],
      "name": "createOrder",
      "type": "event"
    },
    {
      "inputs": [
        {
          "internalType": "uint256",
          "name": "",
          "type": "uint256"
        }
      ],
      "name": "listOrder",
      "outputs": [
        {
          "internalType": "address",
          "name": "",
          "type": "address"
        }
      ],
      "stateMutability": "view",
      "type": "function",
      "constant": true
    },
    {
      "inputs": [],
      "name": "owner",
      "outputs": [
        {
          "internalType": "address",
          "name": "",
          "type": "address"
        }
      ],
      "stateMutability": "view",
      "type": "function",
      "constant": true
    },
    {
      "inputs": [],
      "name": "getOwner",
      "outputs": [
        {
          "internalType": "address",
          "name": "",
          "type": "address"
        }
      ],
      "stateMutability": "view",
      "type": "function",
      "constant": true
    },
    {
      "inputs": [
        {
          "internalType": "address",
          "name": "buyer",
          "type": "address"
        },
        {
          "internalType": "address",
          "name": "seller",
          "type": "address"
        },
        {
          "internalType": "uint256",
          "name": "totalPrice",
          "type": "uint256"
        },
        {
          "internalType": "uint256",
          "name": "totalProduct",
          "type": "uint256"
        },
        {
          "internalType": "string",
          "name": "details",
          "type": "string"
        }
      ],
      "name": "addOrder",
      "outputs": [
        {
          "internalType": "bool",
          "name": "",
          "type": "bool"
        }
      ],
      "stateMutability": "payable",
      "type": "function",
      "payable": true
    },
    {
      "inputs": [],
      "name": "getAllOrder",
      "outputs": [
        {
          "internalType": "address[]",
          "name": "",
          "type": "address[]"
        }
      ],
      "stateMutability": "view",
      "type": "function",
      "constant": true
    },
    {
      "inputs": [
        {
          "internalType": "address",
          "name": "_addressCompany",
          "type": "address"
        }
      ],
      "name": "getOrderPerCompany",
      "outputs": [
        {
          "components": [
            {
              "internalType": "address",
              "name": "orderAddress",
              "type": "address"
            },
            {
              "internalType": "address",
              "name": "buyer",
              "type": "address"
            },
            {
              "internalType": "address",
              "name": "seller",
              "type": "address"
            },
            {
              "internalType": "uint256",
              "name": "totalPrice",
              "type": "uint256"
            },
            {
              "internalType": "uint256",
              "name": "totalProduct",
              "type": "uint256"
            },
            {
              "internalType": "enum Order.order_status",
              "name": "state",
              "type": "uint8"
            }
          ],
          "internalType": "struct Order.OrderInfo[]",
          "name": "",
          "type": "tuple[]"
        }
      ],
      "stateMutability": "view",
      "type": "function",
      "constant": true
    }
  ],
  "bytecode": "0x608060405233600160006101000a81548173ffffffffffffffffffffffffffffffffffffffff021916908373ffffffffffffffffffffffffffffffffffffffff160217905550612930806100546000396000f3fe6080604052600436106200005c5760003560e01c80633dfbbad41462000061578063516cb9701462000091578063893d20e814620000c75780638aa1136114620000f75780638da5cb5b146200013b578063b1296627146200016b575b600080fd5b3480156200006e57600080fd5b5062000079620001af565b60405162000088919062000945565b60405180910390f35b620000af6004803603810190620000a9919062000b4b565b6200023f565b604051620000be919062000c0f565b60405180910390f35b348015620000d457600080fd5b50620000df620003ee565b604051620000ee919062000c3d565b60405180910390f35b3480156200010457600080fd5b506200012360048036038101906200011d919062000c5a565b62000418565b60405162000132919062000c3d565b60405180910390f35b3480156200014857600080fd5b506200015362000458565b60405162000162919062000c3d565b60405180910390f35b3480156200017857600080fd5b5062000197600480360381019062000191919062000c8c565b6200047e565b604051620001a6919062000e93565b60405180910390f35b606060008054806020026020016040519081016040528092919081815260200182805480156200023557602002820191906000526020600020905b8160009054906101000a900473ffffffffffffffffffffffffffffffffffffffff1673ffffffffffffffffffffffffffffffffffffffff1681526020019060010190808311620001ea575b5050505050905090565b600080841162000286576040517f08c379a00000000000000000000000000000000000000000000000000000000081526004016200027d9062000f3e565b60405180910390fd5b6000868686866040516200029a90620007a8565b620002a9949392919062000f71565b604051809103906000f080158015620002c6573d6000803e3d6000fd5b5090506000819080600181540180825580915050600190039060005260206000200160009091909190916101000a81548173ffffffffffffffffffffffffffffffffffffffff021916908373ffffffffffffffffffffffffffffffffffffffff1602179055507f6c7ca2bfa43c2c00512ee5a81d761ebee78eea6bfa3ad0a40099819c5347c3b48173ffffffffffffffffffffffffffffffffffffffff166338cc48316040518163ffffffff1660e01b8152600401602060405180830381865afa15801562000399573d6000803e3d6000fd5b505050506040513d601f19601f82011682018060405250810190620003bf919062000fd5565b3388888888604051620003d8969594939291906200107f565b60405180910390a1600191505095945050505050565b6000600160009054906101000a900473ffffffffffffffffffffffffffffffffffffffff16905090565b600081815481106200042957600080fd5b906000526020600020016000915054906101000a900473ffffffffffffffffffffffffffffffffffffffff1681565b600160009054906101000a900473ffffffffffffffffffffffffffffffffffffffff1681565b6060600080600080549050905060005b818110156200058b57620004a1620007b6565b620004ed60008381548110620004bc57620004bb620010f3565b5b9060005260206000200160009054906101000a900473ffffffffffffffffffffffffffffffffffffffff166200071f565b90508573ffffffffffffffffffffffffffffffffffffffff16816040015173ffffffffffffffffffffffffffffffffffffffff1614806200055d57508573ffffffffffffffffffffffffffffffffffffffff16816020015173ffffffffffffffffffffffffffffffffffffffff16145b1562000574578380620005709062001151565b9450505b508080620005829062001151565b9150506200048e565b5060008267ffffffffffffffff811115620005ab57620005aa62000a04565b5b604051908082528060200260200182016040528015620005e857816020015b620005d4620007b6565b815260200190600190039081620005ca5790505b509050600080600090505b83811015620007125762000606620007b6565b6200065260008381548110620006215762000620620010f3565b5b9060005260206000200160009054906101000a900473ffffffffffffffffffffffffffffffffffffffff166200071f565b90508773ffffffffffffffffffffffffffffffffffffffff16816040015173ffffffffffffffffffffffffffffffffffffffff161480620006c257508773ffffffffffffffffffffffffffffffffffffffff16816020015173ffffffffffffffffffffffffffffffffffffffff16145b15620006fb5780848481518110620006df57620006de620010f3565b5b60200260200101819052508280620006f79062001151565b9350505b508080620007099062001151565b915050620005f3565b5081945050505050919050565b62000729620007b6565b60008290508073ffffffffffffffffffffffffffffffffffffffff166301efb6c86040518163ffffffff1660e01b815260040160c060405180830381865afa1580156200077a573d6000803e3d6000fd5b505050506040513d601f19601f82011682018060405250810190620007a0919062001293565b915050919050565b61163580620012c683390190565b6040518060c00160405280600073ffffffffffffffffffffffffffffffffffffffff168152602001600073ffffffffffffffffffffffffffffffffffffffff168152602001600073ffffffffffffffffffffffffffffffffffffffff1681526020016000815260200160008152602001600060038111156200083d576200083c62000cfb565b5b81525090565b600081519050919050565b600082825260208201905092915050565b6000819050602082019050919050565b600073ffffffffffffffffffffffffffffffffffffffff82169050919050565b60006200089c826200086f565b9050919050565b620008ae816200088f565b82525050565b6000620008c28383620008a3565b60208301905092915050565b6000602082019050919050565b6000620008e88262000843565b620008f481856200084e565b935062000901836200085f565b8060005b83811015620009385781516200091c8882620008b4565b97506200092983620008ce565b92505060018101905062000905565b5085935050505092915050565b60006020820190508181036000830152620009618184620008db565b905092915050565b6000604051905090565b600080fd5b600080fd5b62000988816200088f565b81146200099457600080fd5b50565b600081359050620009a8816200097d565b92915050565b6000819050919050565b620009c381620009ae565b8114620009cf57600080fd5b50565b600081359050620009e381620009b8565b92915050565b600080fd5b600080fd5b6000601f19601f8301169050919050565b7f4e487b7100000000000000000000000000000000000000000000000000000000600052604160045260246000fd5b62000a3e82620009f3565b810181811067ffffffffffffffff8211171562000a605762000a5f62000a04565b5b80604052505050565b600062000a7562000969565b905062000a83828262000a33565b919050565b600067ffffffffffffffff82111562000aa65762000aa562000a04565b5b62000ab182620009f3565b9050602081019050919050565b82818337600083830152505050565b600062000ae462000ade8462000a88565b62000a69565b90508281526020810184848401111562000b035762000b02620009ee565b5b62000b1084828562000abe565b509392505050565b600082601f83011262000b305762000b2f620009e9565b5b813562000b4284826020860162000acd565b91505092915050565b600080600080600060a0868803121562000b6a5762000b6962000973565b5b600062000b7a8882890162000997565b955050602062000b8d8882890162000997565b945050604062000ba088828901620009d2565b935050606062000bb388828901620009d2565b925050608086013567ffffffffffffffff81111562000bd75762000bd662000978565b5b62000be58882890162000b18565b9150509295509295909350565b60008115159050919050565b62000c098162000bf2565b82525050565b600060208201905062000c26600083018462000bfe565b92915050565b62000c37816200088f565b82525050565b600060208201905062000c54600083018462000c2c565b92915050565b60006020828403121562000c735762000c7262000973565b5b600062000c8384828501620009d2565b91505092915050565b60006020828403121562000ca55762000ca462000973565b5b600062000cb58482850162000997565b91505092915050565b600081519050919050565b600082825260208201905092915050565b6000819050602082019050919050565b62000cf581620009ae565b82525050565b7f4e487b7100000000000000000000000000000000000000000000000000000000600052602160045260246000fd5b6004811062000d3e5762000d3d62000cfb565b5b50565b600081905062000d518262000d2a565b919050565b600062000d638262000d41565b9050919050565b62000d758162000d56565b82525050565b60c08201600082015162000d936000850182620008a3565b50602082015162000da86020850182620008a3565b50604082015162000dbd6040850182620008a3565b50606082015162000dd2606085018262000cea565b50608082015162000de7608085018262000cea565b5060a082015162000dfc60a085018262000d6a565b50505050565b600062000e10838362000d7b565b60c08301905092915050565b6000602082019050919050565b600062000e368262000cbe565b62000e42818562000cc9565b935062000e4f8362000cda565b8060005b8381101562000e8657815162000e6a888262000e02565b975062000e778362000e1c565b92505060018101905062000e53565b5085935050505092915050565b6000602082019050818103600083015262000eaf818462000e29565b905092915050565b600082825260208201905092915050565b7f746f74616c5072696365206d7573742062652067726561746572207468616e2060008201527f7a65726f00000000000000000000000000000000000000000000000000000000602082015250565b600062000f2660248362000eb7565b915062000f338262000ec8565b604082019050919050565b6000602082019050818103600083015262000f598162000f17565b9050919050565b62000f6b81620009ae565b82525050565b600060808201905062000f88600083018762000c2c565b62000f97602083018662000c2c565b62000fa6604083018562000f60565b62000fb5606083018462000f60565b95945050505050565b60008151905062000fcf816200097d565b92915050565b60006020828403121562000fee5762000fed62000973565b5b600062000ffe8482850162000fbe565b91505092915050565b600081519050919050565b60005b838110156200103257808201518184015260208101905062001015565b60008484015250505050565b60006200104b8262001007565b62001057818562000eb7565b93506200106981856020860162001012565b6200107481620009f3565b840191505092915050565b600060c08201905062001096600083018962000c2c565b620010a5602083018862000c2c565b620010b4604083018762000c2c565b620010c3606083018662000f60565b620010d2608083018562000f60565b81810360a0830152620010e681846200103e565b9050979650505050505050565b7f4e487b7100000000000000000000000000000000000000000000000000000000600052603260045260246000fd5b7f4e487b7100000000000000000000000000000000000000000000000000000000600052601160045260246000fd5b60006200115e82620009ae565b91507fffffffffffffffffffffffffffffffffffffffffffffffffffffffffffffffff820362001193576200119262001122565b5b600182019050919050565b600080fd5b600081519050620011b481620009b8565b92915050565b60048110620011c857600080fd5b50565b600081519050620011dc81620011ba565b92915050565b600060c08284031215620011fb57620011fa6200119e565b5b6200120760c062000a69565b90506000620012198482850162000fbe565b60008301525060206200122f8482850162000fbe565b6020830152506040620012458482850162000fbe565b60408301525060606200125b84828501620011a3565b60608301525060806200127184828501620011a3565b60808301525060a06200128784828501620011cb565b60a08301525092915050565b600060c08284031215620012ac57620012ab62000973565b5b6000620012bc84828501620011e2565b9150509291505056fe60806040523480156200001157600080fd5b5060405162001635380380620016358339818101604052810190620000379190620001a3565b836000806101000a81548173ffffffffffffffffffffffffffffffffffffffff021916908373ffffffffffffffffffffffffffffffffffffffff16021790555082600160006101000a81548173ffffffffffffffffffffffffffffffffffffffff021916908373ffffffffffffffffffffffffffffffffffffffff16021790555081600281905550806003819055506000600960006101000a81548160ff02191690836003811115620000ef57620000ee62000215565b5b02179055505050505062000244565b600080fd5b600073ffffffffffffffffffffffffffffffffffffffff82169050919050565b6000620001308262000103565b9050919050565b620001428162000123565b81146200014e57600080fd5b50565b600081519050620001628162000137565b92915050565b6000819050919050565b6200017d8162000168565b81146200018957600080fd5b50565b6000815190506200019d8162000172565b92915050565b60008060008060808587031215620001c057620001bf620000fe565b5b6000620001d08782880162000151565b9450506020620001e38782880162000151565b9350506040620001f6878288016200018c565b925050606062000209878288016200018c565b91505092959194509250565b7f4e487b7100000000000000000000000000000000000000000000000000000000600052602160045260246000fd5b6113e180620002546000396000f3fe6080604052600436106100e85760003560e01c806372e94f221161008a578063b1988acf11610059578063b1988acf146102b9578063c19d93fb146102c3578063d6960697146102ee578063ff408833146102f8576100e8565b806372e94f22146101f95780639856836614610238578063a911715c14610263578063ab0d92dd1461028e576100e8565b80631325e9b8116100c65780631325e9b81461016e578063365ace611461019957806338cc4831146101a3578063566bceef146101ce576100e8565b806301efb6c8146100ed5780630419677c1461011857806312065fe014610143575b600080fd5b3480156100f957600080fd5b50610102610302565b60405161010f9190610feb565b60405180910390f35b34801561012457600080fd5b5061012d6103ec565b60405161013a9190611015565b60405180910390f35b34801561014f57600080fd5b506101586103f2565b6040516101659190611015565b60405180910390f35b34801561017a57600080fd5b506101836103fa565b6040516101909190611015565b60405180910390f35b6101a1610400565b005b3480156101af57600080fd5b506101b86105bc565b6040516101c5919061103f565b60405180910390f35b3480156101da57600080fd5b506101e36105c4565b6040516101f09190611015565b60405180910390f35b34801561020557600080fd5b50610220600480360381019061021b919061108b565b6105ca565b60405161022f939291906110b8565b60405180910390f35b34801561024457600080fd5b5061024d610624565b60405161025a9190611015565b60405180910390f35b34801561026f57600080fd5b5061027861062a565b6040516102859190611015565b60405180910390f35b34801561029a57600080fd5b506102a3610630565b6040516102b09190611015565b60405180910390f35b6102c1610636565b005b3480156102cf57600080fd5b506102d86108e9565b6040516102e591906110fe565b60405180910390f35b6102f66108fc565b005b610300610b66565b005b61030a610e15565b6040518060c0016040528061031d6105bc565b73ffffffffffffffffffffffffffffffffffffffff16815260200160008054906101000a900473ffffffffffffffffffffffffffffffffffffffff1673ffffffffffffffffffffffffffffffffffffffff168152602001600160009054906101000a900473ffffffffffffffffffffffffffffffffffffffff1673ffffffffffffffffffffffffffffffffffffffff16815260200160025481526020016003548152602001600960009054906101000a900460ff1660038111156103e4576103e3610ef9565b5b815250905090565b60045481565b600047905090565b60075481565b60008054906101000a900473ffffffffffffffffffffffffffffffffffffffff1673ffffffffffffffffffffffffffffffffffffffff163373ffffffffffffffffffffffffffffffffffffffff161461048e576040517f08c379a000000000000000000000000000000000000000000000000000000000815260040161048590611176565b60405180910390fd5b6001600960006101000a81548160ff021916908360038111156104b4576104b3610ef9565b5b021790555042600581905550600060405180606001604052803373ffffffffffffffffffffffffffffffffffffffff168152602001600081526020016005548152509050600881908060018154018082558091505060019003906000526020600020906003020160009091909190915060008201518160000160006101000a81548173ffffffffffffffffffffffffffffffffffffffff021916908373ffffffffffffffffffffffffffffffffffffffff160217905550602082015181600101556040820151816002015550507facca1bfa13be050eb725ae7a93cb25004ee04e61475ec23f75c143ee54e4939f60016040516105b191906110fe565b60405180910390a150565b600030905090565b60035481565b600881815481106105da57600080fd5b90600052602060002090600302016000915090508060000160009054906101000a900473ffffffffffffffffffffffffffffffffffffffff16908060010154908060020154905083565b60055481565b60065481565b60025481565b60008054906101000a900473ffffffffffffffffffffffffffffffffffffffff1673ffffffffffffffffffffffffffffffffffffffff163373ffffffffffffffffffffffffffffffffffffffff16146106c4576040517f08c379a00000000000000000000000000000000000000000000000000000000081526004016106bb90611176565b60405180910390fd5b60004711610707576040517f08c379a00000000000000000000000000000000000000000000000000000000081526004016106fe906111e2565b60405180910390fd5b600160009054906101000a900473ffffffffffffffffffffffffffffffffffffffff1673ffffffffffffffffffffffffffffffffffffffff166108fc479081150290604051600060405180830381858888f1935050505015801561076f573d6000803e3d6000fd5b506002600960006101000a81548160ff0219169083600381111561079657610795610ef9565b5b02179055504260048190555060006040518060600160405280600160009054906101000a900473ffffffffffffffffffffffffffffffffffffffff1673ffffffffffffffffffffffffffffffffffffffff1681526020014781526020016004548152509050600881908060018154018082558091505060019003906000526020600020906003020160009091909190915060008201518160000160006101000a81548173ffffffffffffffffffffffffffffffffffffffff021916908373ffffffffffffffffffffffffffffffffffffffff160217905550602082015181600101556040820151816002015550507fce244a866e4105e01f5daf8b8de5810a6fdd632afd98f0d08499423441c1a31630600160009054906101000a900473ffffffffffffffffffffffffffffffffffffffff1660025460026040516108de9493929190611223565b60405180910390a150565b600960009054906101000a900460ff1681565b60008054906101000a900473ffffffffffffffffffffffffffffffffffffffff1673ffffffffffffffffffffffffffffffffffffffff163373ffffffffffffffffffffffffffffffffffffffff161461098a576040517f08c379a000000000000000000000000000000000000000000000000000000000815260040161098190611176565b60405180910390fd5b6000600381111561099e5761099d610ef9565b5b600960009054906101000a900460ff1660038111156109c0576109bf610ef9565b5b14610a00576040517f08c379a00000000000000000000000000000000000000000000000000000000081526004016109f7906112da565b60405180910390fd5b343373ffffffffffffffffffffffffffffffffffffffff163111610a59576040517f08c379a0000000000000000000000000000000000000000000000000000000008152600401610a5090611346565b60405180910390fd5b60006040518060600160405280610a6e6105bc565b73ffffffffffffffffffffffffffffffffffffffff168152602001348152602001428152509050600881908060018154018082558091505060019003906000526020600020906003020160009091909190915060008201518160000160006101000a81548173ffffffffffffffffffffffffffffffffffffffff021916908373ffffffffffffffffffffffffffffffffffffffff160217905550602082015181600101556040820151816002015550507fc20bc9ac6bb8fd7d3c66da8c0a5b5828a145aca18b25f4b2843562a2146650d233610b486105bc565b346000604051610b5b9493929190611366565b60405180910390a150565b600160009054906101000a900473ffffffffffffffffffffffffffffffffffffffff1673ffffffffffffffffffffffffffffffffffffffff163373ffffffffffffffffffffffffffffffffffffffff1614610bf6576040517f08c379a0000000000000000000000000000000000000000000000000000000008152600401610bed90611176565b60405180910390fd5b60004711610c39576040517f08c379a0000000000000000000000000000000000000000000000000000000008152600401610c30906111e2565b60405180910390fd5b60008054906101000a900473ffffffffffffffffffffffffffffffffffffffff1673ffffffffffffffffffffffffffffffffffffffff166108fc479081150290604051600060405180830381858888f19350505050158015610c9f573d6000803e3d6000fd5b506003600960006101000a81548160ff02191690836003811115610cc657610cc5610ef9565b5b0217905550426006819055506000604051806060016040528060008054906101000a900473ffffffffffffffffffffffffffffffffffffffff1673ffffffffffffffffffffffffffffffffffffffff1681526020014781526020016004548152509050600881908060018154018082558091505060019003906000526020600020906003020160009091909190915060008201518160000160006101000a81548173ffffffffffffffffffffffffffffffffffffffff021916908373ffffffffffffffffffffffffffffffffffffffff160217905550602082015181600101556040820151816002015550507f7ae9f96b79f09efde094247ad4506ada398b84c64f2bf7df593d3e3484c38a3b3060008054906101000a900473ffffffffffffffffffffffffffffffffffffffff166002546003604051610e0a9493929190611223565b60405180910390a150565b6040518060c00160405280600073ffffffffffffffffffffffffffffffffffffffff168152602001600073ffffffffffffffffffffffffffffffffffffffff168152602001600073ffffffffffffffffffffffffffffffffffffffff168152602001600081526020016000815260200160006003811115610e9957610e98610ef9565b5b81525090565b600073ffffffffffffffffffffffffffffffffffffffff82169050919050565b6000610eca82610e9f565b9050919050565b610eda81610ebf565b82525050565b6000819050919050565b610ef381610ee0565b82525050565b7f4e487b7100000000000000000000000000000000000000000000000000000000600052602160045260246000fd5b60048110610f3957610f38610ef9565b5b50565b6000819050610f4a82610f28565b919050565b6000610f5a82610f3c565b9050919050565b610f6a81610f4f565b82525050565b60c082016000820151610f866000850182610ed1565b506020820151610f996020850182610ed1565b506040820151610fac6040850182610ed1565b506060820151610fbf6060850182610eea565b506080820151610fd26080850182610eea565b5060a0820151610fe560a0850182610f61565b50505050565b600060c0820190506110006000830184610f70565b92915050565b61100f81610ee0565b82525050565b600060208201905061102a6000830184611006565b92915050565b61103981610ebf565b82525050565b60006020820190506110546000830184611030565b92915050565b600080fd5b61106881610ee0565b811461107357600080fd5b50565b6000813590506110858161105f565b92915050565b6000602082840312156110a1576110a061105a565b5b60006110af84828501611076565b91505092915050565b60006060820190506110cd6000830186611030565b6110da6020830185611006565b6110e76040830184611006565b949350505050565b6110f881610f4f565b82525050565b600060208201905061111360008301846110ef565b92915050565b600082825260208201905092915050565b7f4e6f74207065726d697373696f6e000000000000000000000000000000000000600082015250565b6000611160600e83611119565b915061116b8261112a565b602082019050919050565b6000602082019050818103600083015261118f81611153565b9050919050565b7f42616c616e6365206f66206f72646572206973206e6f7420656e6f7567680000600082015250565b60006111cc601e83611119565b91506111d782611196565b602082019050919050565b600060208201905081810360008301526111fb816111bf565b9050919050565b600061120d82610e9f565b9050919050565b61121d81611202565b82525050565b60006080820190506112386000830187611030565b6112456020830186611214565b6112526040830185611006565b61125f60608301846110ef565b95945050505050565b7f4f7264657220737461747573206d757374206265207374617475732050454e4460008201527f494e470000000000000000000000000000000000000000000000000000000000602082015250565b60006112c4602383611119565b91506112cf82611268565b604082019050919050565b600060208201905081810360008301526112f3816112b7565b9050919050565b7f42616c616e6365206f66206163636f756e74206973206e6f7420656e6f756768600082015250565b6000611330602083611119565b915061133b826112fa565b602082019050919050565b6000602082019050818103600083015261135f81611323565b9050919050565b600060808201905061137b6000830187611030565b6113886020830186611030565b6113956040830185611006565b6113a260608301846110ef565b9594505050505056fea2646970667358221220f69c0e4c4edc53c2172cb7d20574b4c1e17de42b7d277f5bec306a4fa6efd8f264736f6c63430008110033a26469706673582212203213fd7c0a9d37c6490f4acb7daac86e35c9dcb1db31424a5875f208973f27a964736f6c63430008110033",
  "immutableReferences": {},
  "source": "// SPDX-License-Identifier: GPL-3.0\r\n\r\npragma solidity >=0.7.0 <0.9.0;\r\nimport \"./Order.sol\";\r\n\r\ncontract Warehouse {\r\n    address[] public listOrder;\r\n    address public owner;\r\n\r\n    constructor() payable {\r\n        owner = msg.sender;\r\n    }\r\n\r\n    event createOrder(\r\n        address orderAddress, \r\n        address owner,\r\n        address seller,\r\n        uint256 totalPrice,\r\n        uint256 totalProduct,\r\n        string details\r\n    );\r\n\r\n    function getOwner() public view returns (address) {\r\n        return owner;\r\n    }\r\n\r\n    function addOrder(address buyer, address seller, uint256 totalPrice, uint256 totalProduct, string memory details) public payable returns (bool) {\r\n        require(totalPrice > 0, \"totalPrice must be greater than zero\");\r\n        Order order = new Order(buyer, seller, totalPrice, totalProduct);\r\n        listOrder.push(address(order));\r\n        emit createOrder(\r\n            order.getAddress(),\r\n            msg.sender,\r\n            seller,\r\n            totalPrice,\r\n            totalProduct,\r\n            details\r\n        );\r\n        return true;\r\n    }\r\n\r\n    function getAllOrder() public view returns (address[] memory) {\r\n        return listOrder;\r\n    }\r\n\r\n    function getOrderInfo(address _address)\r\n        private\r\n        view\r\n        returns (Order.OrderInfo memory)\r\n    {\r\n        Order order = Order(_address);\r\n        return order.getOrderInfo();\r\n    }\r\n\r\n    function getOrderPerCompany(address _addressCompany) public view returns (Order.OrderInfo[] memory) {\r\n        uint256 totalResult;\r\n        uint256 totalOrder = listOrder.length;\r\n\r\n        for (uint256 i = 0; i < totalOrder; i++) {\r\n            Order.OrderInfo memory orderDetail;\r\n            orderDetail = getOrderInfo(listOrder[i]);\r\n            if(orderDetail.seller == _addressCompany || orderDetail.buyer == _addressCompany) {\r\n                totalResult++; \r\n            }\r\n        }\r\n        Order.OrderInfo[] memory orderPerCompany = new Order.OrderInfo[](totalResult);\r\n        uint256 j;\r\n        for (uint256 i = 0; i < totalOrder; i++) {\r\n            Order.OrderInfo memory orderDetail;\r\n            orderDetail = getOrderInfo(listOrder[i]);\r\n            if(orderDetail.seller == _addressCompany || orderDetail.buyer == _addressCompany) {\r\n                orderPerCompany[j] = orderDetail;\r\n                j++;\r\n            }\r\n        }\r\n\r\n        return orderPerCompany;\r\n    }\r\n}",
  "sourcePath": "E:\\ATN-2022\\Warehouse-Protection\\warehouse-fe-blockchain\\contracts\\Warehouse.sol",
  "compiler": {
    "name": "solc",
    "version": "0.8.17+commit.8df45f5f.Emscripten.clang"
  },
  "schemaVersion": "3.4.10",
  "updatedAt": "2022-11-26T16:50:03.710Z",
  "networkType": "ethereum",
  "devdoc": {
    "kind": "dev",
    "methods": {},
    "version": 1
  },
  "userdoc": {
    "kind": "user",
    "methods": {},
    "version": 1
  }
}