{
  "contractName": "Warehouse",
  "abi": [
    {
      "inputs": [],
      "stateMutability": "payable",
      "type": "constructor",
      "payable": true
    },
    {
      "anonymous": false,
      "inputs": [
        {
          "indexed": false,
          "internalType": "address",
          "name": "orderAddress",
          "type": "address"
        },
        {
          "indexed": false,
          "internalType": "address",
          "name": "owner",
          "type": "address"
        },
        {
          "indexed": false,
          "internalType": "address",
          "name": "seller",
          "type": "address"
        },
        {
          "indexed": false,
          "internalType": "uint256",
          "name": "totalPrice",
          "type": "uint256"
        },
        {
          "indexed": false,
          "internalType": "uint256",
          "name": "totalProduct",
          "type": "uint256"
        }
      ],
      "name": "createOrder",
      "type": "event"
    },
    {
      "inputs": [
        {
          "internalType": "uint256",
          "name": "",
          "type": "uint256"
        }
      ],
      "name": "listOrder",
      "outputs": [
        {
          "internalType": "address",
          "name": "",
          "type": "address"
        }
      ],
      "stateMutability": "view",
      "type": "function",
      "constant": true
    },
    {
      "inputs": [],
      "name": "owner",
      "outputs": [
        {
          "internalType": "address",
          "name": "",
          "type": "address"
        }
      ],
      "stateMutability": "view",
      "type": "function",
      "constant": true
    },
    {
      "inputs": [],
      "name": "getOwner",
      "outputs": [
        {
          "internalType": "address",
          "name": "",
          "type": "address"
        }
      ],
      "stateMutability": "view",
      "type": "function",
      "constant": true
    },
    {
      "inputs": [
        {
          "internalType": "address",
          "name": "seller",
          "type": "address"
        },
        {
          "internalType": "uint256",
          "name": "totalPrice",
          "type": "uint256"
        },
        {
          "internalType": "uint256",
          "name": "totalProduct",
          "type": "uint256"
        }
      ],
      "name": "addOrder",
      "outputs": [
        {
          "internalType": "bool",
          "name": "",
          "type": "bool"
        }
      ],
      "stateMutability": "payable",
      "type": "function",
      "payable": true
    },
    {
      "inputs": [],
      "name": "getAllOrder",
      "outputs": [
        {
          "internalType": "address[]",
          "name": "",
          "type": "address[]"
        }
      ],
      "stateMutability": "view",
      "type": "function",
      "constant": true
    },
    {
      "inputs": [
        {
          "internalType": "address",
          "name": "_address",
          "type": "address"
        }
      ],
      "name": "getOrderInfo",
      "outputs": [
        {
          "components": [
            {
              "internalType": "address",
              "name": "orderAddress",
              "type": "address"
            },
            {
              "internalType": "address",
              "name": "buyer",
              "type": "address"
            },
            {
              "internalType": "address",
              "name": "seller",
              "type": "address"
            },
            {
              "internalType": "uint256",
              "name": "totalPrice",
              "type": "uint256"
            },
            {
              "internalType": "uint256",
              "name": "totalProduct",
              "type": "uint256"
            }
          ],
          "internalType": "struct Order.OrderInfo",
          "name": "",
          "type": "tuple"
        }
      ],
      "stateMutability": "view",
      "type": "function",
      "constant": true
    }
  ],
  "bytecode": "0x608060405233600160006101000a81548173ffffffffffffffffffffffffffffffffffffffff021916908373ffffffffffffffffffffffffffffffffffffffff160217905550611870806100546000396000f3fe6080604052600436106200005c5760003560e01c80630d20c7501462000061578063194d2fe214620000a55780633dfbbad414620000db578063893d20e8146200010b5780638aa11361146200013b5780638da5cb5b146200017f575b600080fd5b3480156200006e57600080fd5b506200008d6004803603810190620000879190620005f6565b620001af565b6040516200009c9190620006c6565b60405180910390f35b620000c36004803603810190620000bd919062000714565b62000238565b604051620000d291906200078d565b60405180910390f35b348015620000e857600080fd5b50620000f3620003e3565b60405162000102919062000867565b60405180910390f35b3480156200011857600080fd5b506200012362000473565b6040516200013291906200089c565b60405180910390f35b3480156200014857600080fd5b50620001676004803603810190620001619190620008b9565b6200049d565b6040516200017691906200089c565b60405180910390f35b3480156200018c57600080fd5b5062000197620004dd565b604051620001a691906200089c565b60405180910390f35b620001b962000503565b60008290508073ffffffffffffffffffffffffffffffffffffffff166301efb6c86040518163ffffffff1660e01b815260040160a060405180830381865afa1580156200020a573d6000803e3d6000fd5b505050506040513d601f19601f8201168201806040525081019062000230919062000a4e565b915050919050565b60008083116200027f576040517f08c379a0000000000000000000000000000000000000000000000000000000008152600401620002769062000b07565b60405180910390fd5b600033858585604051620002939062000574565b620002a2949392919062000b3a565b604051809103906000f080158015620002bf573d6000803e3d6000fd5b5090506000819080600181540180825580915050600190039060005260206000200160009091909190916101000a81548173ffffffffffffffffffffffffffffffffffffffff021916908373ffffffffffffffffffffffffffffffffffffffff1602179055507f1a8596d5cd50ca33d9e7087843897256b0fbc81037604ca6b30f68a48fb553b18173ffffffffffffffffffffffffffffffffffffffff166338cc48316040518163ffffffff1660e01b8152600401602060405180830381865afa15801562000392573d6000803e3d6000fd5b505050506040513d601f19601f82011682018060405250810190620003b8919062000b87565b33878787604051620003cf95949392919062000bb9565b60405180910390a160019150509392505050565b606060008054806020026020016040519081016040528092919081815260200182805480156200046957602002820191906000526020600020905b8160009054906101000a900473ffffffffffffffffffffffffffffffffffffffff1673ffffffffffffffffffffffffffffffffffffffff16815260200190600101908083116200041e575b5050505050905090565b6000600160009054906101000a900473ffffffffffffffffffffffffffffffffffffffff16905090565b60008181548110620004ae57600080fd5b906000526020600020016000915054906101000a900473ffffffffffffffffffffffffffffffffffffffff1681565b600160009054906101000a900473ffffffffffffffffffffffffffffffffffffffff1681565b6040518060a00160405280600073ffffffffffffffffffffffffffffffffffffffff168152602001600073ffffffffffffffffffffffffffffffffffffffff168152602001600073ffffffffffffffffffffffffffffffffffffffff16815260200160008152602001600081525090565b610c248062000c1783390190565b6000604051905090565b600080fd5b600073ffffffffffffffffffffffffffffffffffffffff82169050919050565b6000620005be8262000591565b9050919050565b620005d081620005b1565b8114620005dc57600080fd5b50565b600081359050620005f081620005c5565b92915050565b6000602082840312156200060f576200060e6200058c565b5b60006200061f84828501620005df565b91505092915050565b6200063381620005b1565b82525050565b6000819050919050565b6200064e8162000639565b82525050565b60a0820160008201516200066c600085018262000628565b50602082015162000681602085018262000628565b50604082015162000696604085018262000628565b506060820151620006ab606085018262000643565b506080820151620006c0608085018262000643565b50505050565b600060a082019050620006dd600083018462000654565b92915050565b620006ee8162000639565b8114620006fa57600080fd5b50565b6000813590506200070e81620006e3565b92915050565b60008060006060848603121562000730576200072f6200058c565b5b60006200074086828701620005df565b93505060206200075386828701620006fd565b92505060406200076686828701620006fd565b9150509250925092565b60008115159050919050565b620007878162000770565b82525050565b6000602082019050620007a460008301846200077c565b92915050565b600081519050919050565b600082825260208201905092915050565b6000819050602082019050919050565b6000620007e4838362000628565b60208301905092915050565b6000602082019050919050565b60006200080a82620007aa565b620008168185620007b5565b93506200082383620007c6565b8060005b838110156200085a5781516200083e8882620007d6565b97506200084b83620007f0565b92505060018101905062000827565b5085935050505092915050565b60006020820190508181036000830152620008838184620007fd565b905092915050565b6200089681620005b1565b82525050565b6000602082019050620008b360008301846200088b565b92915050565b600060208284031215620008d257620008d16200058c565b5b6000620008e284828501620006fd565b91505092915050565b600080fd5b6000601f19601f8301169050919050565b7f4e487b7100000000000000000000000000000000000000000000000000000000600052604160045260246000fd5b6200093b82620008f0565b810181811067ffffffffffffffff821117156200095d576200095c62000901565b5b80604052505050565b60006200097262000582565b905062000980828262000930565b919050565b6000815190506200099681620005c5565b92915050565b600081519050620009ad81620006e3565b92915050565b600060a08284031215620009cc57620009cb620008eb565b5b620009d860a062000966565b90506000620009ea8482850162000985565b600083015250602062000a008482850162000985565b602083015250604062000a168482850162000985565b604083015250606062000a2c848285016200099c565b606083015250608062000a42848285016200099c565b60808301525092915050565b600060a0828403121562000a675762000a666200058c565b5b600062000a7784828501620009b3565b91505092915050565b600082825260208201905092915050565b7f746f74616c5072696365206d7573742062652067726561746572207468616e2060008201527f7a65726f00000000000000000000000000000000000000000000000000000000602082015250565b600062000aef60248362000a80565b915062000afc8262000a91565b604082019050919050565b6000602082019050818103600083015262000b228162000ae0565b9050919050565b62000b348162000639565b82525050565b600060808201905062000b5160008301876200088b565b62000b6060208301866200088b565b62000b6f604083018562000b29565b62000b7e606083018462000b29565b95945050505050565b60006020828403121562000ba05762000b9f6200058c565b5b600062000bb08482850162000985565b91505092915050565b600060a08201905062000bd060008301886200088b565b62000bdf60208301876200088b565b62000bee60408301866200088b565b62000bfd606083018562000b29565b62000c0c608083018462000b29565b969550505050505056fe60806040523480156200001157600080fd5b5060405162000c2438038062000c248339818101604052810190620000379190620001a3565b836000806101000a81548173ffffffffffffffffffffffffffffffffffffffff021916908373ffffffffffffffffffffffffffffffffffffffff16021790555082600160006101000a81548173ffffffffffffffffffffffffffffffffffffffff021916908373ffffffffffffffffffffffffffffffffffffffff16021790555081600281905550806003819055506000600760006101000a81548160ff02191690836002811115620000ef57620000ee62000215565b5b02179055505050505062000244565b600080fd5b600073ffffffffffffffffffffffffffffffffffffffff82169050919050565b6000620001308262000103565b9050919050565b620001428162000123565b81146200014e57600080fd5b50565b600081519050620001628162000137565b92915050565b6000819050919050565b6200017d8162000168565b81146200018957600080fd5b50565b6000815190506200019d8162000172565b92915050565b60008060008060808587031215620001c057620001bf620000fe565b5b6000620001d08782880162000151565b9450506020620001e38782880162000151565b9350506040620001f6878288016200018c565b925050606062000209878288016200018c565b91505092959194509250565b7f4e487b7100000000000000000000000000000000000000000000000000000000600052602160045260246000fd5b6109d080620002546000396000f3fe6080604052600436106100a75760003560e01c806363c9717e1161006457806363c9717e146101ae578063908087e1146101b85780639e0cd599146101cf578063a911715c146101e6578063ab0d92dd14610211578063c19d93fb1461023c576100a7565b806301efb6c8146100ac5780630419677c146100d757806312065fe0146101025780631325e9b81461012d57806338cc483114610158578063566bceef14610183575b600080fd5b3480156100b857600080fd5b506100c1610267565b6040516100ce91906107b6565b60405180910390f35b3480156100e357600080fd5b506100ec61032a565b6040516100f991906107e0565b60405180910390f35b34801561010e57600080fd5b50610117610330565b60405161012491906107e0565b60405180910390f35b34801561013957600080fd5b50610142610338565b60405161014f91906107e0565b60405180910390f35b34801561016457600080fd5b5061016d61033e565b60405161017a919061080a565b60405180910390f35b34801561018f57600080fd5b50610198610346565b6040516101a591906107e0565b60405180910390f35b6101b661034c565b005b3480156101c457600080fd5b506101cd61034e565b005b3480156101db57600080fd5b506101e46104db565b005b3480156101f257600080fd5b506101fb610664565b60405161020891906107e0565b60405180910390f35b34801561021d57600080fd5b5061022661066a565b60405161023391906107e0565b60405180910390f35b34801561024857600080fd5b50610251610670565b60405161025e919061089c565b60405180910390f35b61026f610683565b6040518060a0016040528061028261033e565b73ffffffffffffffffffffffffffffffffffffffff16815260200160008054906101000a900473ffffffffffffffffffffffffffffffffffffffff1673ffffffffffffffffffffffffffffffffffffffff168152602001600160009054906101000a900473ffffffffffffffffffffffffffffffffffffffff1673ffffffffffffffffffffffffffffffffffffffff1681526020016002548152602001600354815250905090565b60045481565b600047905090565b60065481565b600030905090565b60035481565b565b60008054906101000a900473ffffffffffffffffffffffffffffffffffffffff1673ffffffffffffffffffffffffffffffffffffffff163373ffffffffffffffffffffffffffffffffffffffff16146103dc576040517f08c379a00000000000000000000000000000000000000000000000000000000081526004016103d390610914565b60405180910390fd5b600160009054906101000a900473ffffffffffffffffffffffffffffffffffffffff1673ffffffffffffffffffffffffffffffffffffffff166108fc479081150290604051600060405180830381858888f19350505050158015610444573d6000803e3d6000fd5b506001600760006101000a81548160ff0219169083600281111561046b5761046a610825565b5b0217905550426004819055507f93896f6557f98b3ef25ef74326ae597b365304080197f8556634338a12c164a330600160009054906101000a900473ffffffffffffffffffffffffffffffffffffffff1660025460016040516104d19493929190610955565b60405180910390a1565b60008054906101000a900473ffffffffffffffffffffffffffffffffffffffff1673ffffffffffffffffffffffffffffffffffffffff163373ffffffffffffffffffffffffffffffffffffffff1614610569576040517f08c379a000000000000000000000000000000000000000000000000000000000815260040161056090610914565b60405180910390fd5b60008054906101000a900473ffffffffffffffffffffffffffffffffffffffff1673ffffffffffffffffffffffffffffffffffffffff166108fc479081150290604051600060405180830381858888f193505050501580156105cf573d6000803e3d6000fd5b506002600760006101000a81548160ff021916908360028111156105f6576105f5610825565b5b0217905550426005819055507f93896f6557f98b3ef25ef74326ae597b365304080197f8556634338a12c164a33060008054906101000a900473ffffffffffffffffffffffffffffffffffffffff16600254600260405161065a9493929190610955565b60405180910390a1565b60055481565b60025481565b600760009054906101000a900460ff1681565b6040518060a00160405280600073ffffffffffffffffffffffffffffffffffffffff168152602001600073ffffffffffffffffffffffffffffffffffffffff168152602001600073ffffffffffffffffffffffffffffffffffffffff16815260200160008152602001600081525090565b600073ffffffffffffffffffffffffffffffffffffffff82169050919050565b600061071f826106f4565b9050919050565b61072f81610714565b82525050565b6000819050919050565b61074881610735565b82525050565b60a0820160008201516107646000850182610726565b5060208201516107776020850182610726565b50604082015161078a6040850182610726565b50606082015161079d606085018261073f565b5060808201516107b0608085018261073f565b50505050565b600060a0820190506107cb600083018461074e565b92915050565b6107da81610735565b82525050565b60006020820190506107f560008301846107d1565b92915050565b61080481610714565b82525050565b600060208201905061081f60008301846107fb565b92915050565b7f4e487b7100000000000000000000000000000000000000000000000000000000600052602160045260246000fd5b6003811061086557610864610825565b5b50565b600081905061087682610854565b919050565b600061088682610868565b9050919050565b6108968161087b565b82525050565b60006020820190506108b1600083018461088d565b92915050565b600082825260208201905092915050565b7f4e6f74207065726d697373696f6e000000000000000000000000000000000000600082015250565b60006108fe600e836108b7565b9150610909826108c8565b602082019050919050565b6000602082019050818103600083015261092d816108f1565b9050919050565b600061093f826106f4565b9050919050565b61094f81610934565b82525050565b600060808201905061096a60008301876107fb565b6109776020830186610946565b61098460408301856107d1565b610991606083018461088d565b9594505050505056fea2646970667358221220797771d38e807357ccf9901a642eaaa2ac8efc2fa15425069889034ef8e154b964736f6c63430008110033a2646970667358221220b1417a1aa1a466b4a6af36680c10bd2415e86034f508f2a0b012804d9748e8c164736f6c63430008110033",
  "immutableReferences": {},
  "source": "// SPDX-License-Identifier: GPL-3.0\r\n\r\npragma solidity >=0.7.0 <0.9.0;\r\nimport \"./Order.sol\";\r\n\r\ncontract Warehouse {\r\n    address[] public listOrder;\r\n    address public owner;\r\n\r\n    constructor() payable {\r\n        owner = msg.sender;\r\n    }\r\n\r\n    event createOrder(\r\n        address orderAddress, \r\n        address owner,\r\n        address seller,\r\n        uint256 totalPrice,\r\n        uint256 totalProduct\r\n    );\r\n\r\n    function getOwner() public view returns (address) {\r\n        return owner;\r\n    }\r\n\r\n    function addOrder(address seller, uint256 totalPrice, uint256 totalProduct) public payable returns (bool) {\r\n        require(totalPrice > 0, \"totalPrice must be greater than zero\");\r\n        Order order = new Order(msg.sender, seller, totalPrice, totalProduct);\r\n        listOrder.push(address(order));\r\n        emit createOrder(\r\n            order.getAddress(),\r\n            msg.sender,\r\n            seller,\r\n            totalPrice,\r\n            totalProduct\r\n        );\r\n        return true;\r\n    }\r\n\r\n    function getAllOrder() public view returns (address[] memory) {\r\n        return listOrder;\r\n    }\r\n\r\n    function getOrderInfo(address _address)\r\n        public\r\n        view\r\n        returns (Order.OrderInfo memory)\r\n    {\r\n        Order order = Order(_address);\r\n        return order.getOrderInfo();\r\n    }\r\n}",
  "sourcePath": "E:\\ATN-2022\\Warehouse-Protection\\warehouse-fe-blockchain\\contracts\\Warehouse.sol",
  "compiler": {
    "name": "solc",
    "version": "0.8.17+commit.8df45f5f.Emscripten.clang"
  },
  "schemaVersion": "3.4.10",
  "updatedAt": "2022-11-24T07:26:38.901Z",
  "networkType": "ethereum",
  "devdoc": {
    "kind": "dev",
    "methods": {},
    "version": 1
  },
  "userdoc": {
    "kind": "user",
    "methods": {},
    "version": 1
  }
}