{
  "contractName": "Warehouse",
  "abi": [
    {
      "inputs": [],
      "stateMutability": "payable",
      "type": "constructor",
      "payable": true
    },
    {
      "anonymous": false,
      "inputs": [
        {
          "indexed": false,
          "internalType": "address",
          "name": "orderAddress",
          "type": "address"
        },
        {
          "indexed": false,
          "internalType": "address",
          "name": "owner",
          "type": "address"
        },
        {
          "indexed": false,
          "internalType": "address",
          "name": "seller",
          "type": "address"
        },
        {
          "indexed": false,
          "internalType": "uint256",
          "name": "totalPrice",
          "type": "uint256"
        },
        {
          "indexed": false,
          "internalType": "uint256",
          "name": "totalProduct",
          "type": "uint256"
        },
        {
          "indexed": false,
          "internalType": "uint256",
          "name": "dealine",
          "type": "uint256"
        }
      ],
      "name": "createOrder",
      "type": "event"
    },
    {
      "inputs": [
        {
          "internalType": "uint256",
          "name": "",
          "type": "uint256"
        }
      ],
      "name": "listOrder",
      "outputs": [
        {
          "internalType": "address",
          "name": "",
          "type": "address"
        }
      ],
      "stateMutability": "view",
      "type": "function",
      "constant": true
    },
    {
      "inputs": [],
      "name": "owner",
      "outputs": [
        {
          "internalType": "address",
          "name": "",
          "type": "address"
        }
      ],
      "stateMutability": "view",
      "type": "function",
      "constant": true
    },
    {
      "inputs": [],
      "name": "getOwner",
      "outputs": [
        {
          "internalType": "address",
          "name": "",
          "type": "address"
        }
      ],
      "stateMutability": "view",
      "type": "function",
      "constant": true
    },
    {
      "inputs": [
        {
          "internalType": "address",
          "name": "buyer",
          "type": "address"
        },
        {
          "internalType": "address",
          "name": "seller",
          "type": "address"
        },
        {
          "internalType": "uint256",
          "name": "totalPrice",
          "type": "uint256"
        },
        {
          "internalType": "uint256",
          "name": "totalProduct",
          "type": "uint256"
        },
        {
          "internalType": "uint256",
          "name": "deadline",
          "type": "uint256"
        }
      ],
      "name": "addOrder",
      "outputs": [
        {
          "internalType": "bool",
          "name": "",
          "type": "bool"
        }
      ],
      "stateMutability": "payable",
      "type": "function",
      "payable": true
    },
    {
      "inputs": [],
      "name": "getAllOrder",
      "outputs": [
        {
          "internalType": "address[]",
          "name": "",
          "type": "address[]"
        }
      ],
      "stateMutability": "view",
      "type": "function",
      "constant": true
    },
    {
      "inputs": [
        {
          "internalType": "address",
          "name": "_addressCompany",
          "type": "address"
        }
      ],
      "name": "getOrderPerCompany",
      "outputs": [
        {
          "components": [
            {
              "internalType": "address",
              "name": "orderAddress",
              "type": "address"
            },
            {
              "internalType": "address",
              "name": "buyer",
              "type": "address"
            },
            {
              "internalType": "address",
              "name": "seller",
              "type": "address"
            },
            {
              "internalType": "uint256",
              "name": "totalPrice",
              "type": "uint256"
            },
            {
              "internalType": "uint256",
              "name": "totalProduct",
              "type": "uint256"
            },
            {
              "internalType": "enum Order.order_status",
              "name": "state",
              "type": "uint8"
            },
            {
              "internalType": "uint256",
              "name": "purchaseTime",
              "type": "uint256"
            },
            {
              "internalType": "uint256",
              "name": "confirmedTime",
              "type": "uint256"
            },
            {
              "internalType": "uint256",
              "name": "cancelTime",
              "type": "uint256"
            },
            {
              "internalType": "uint256",
              "name": "paymentTime",
              "type": "uint256"
            },
            {
              "internalType": "uint256",
              "name": "returnTime",
              "type": "uint256"
            },
            {
              "internalType": "uint256",
              "name": "returnedTime",
              "type": "uint256"
            },
            {
              "internalType": "uint256",
              "name": "dealine",
              "type": "uint256"
            }
          ],
          "internalType": "struct Order.OrderInfo[]",
          "name": "",
          "type": "tuple[]"
        }
      ],
      "stateMutability": "view",
      "type": "function",
      "constant": true
    }
  ],
  "bytecode": "0x608060405233600160006101000a81548173ffffffffffffffffffffffffffffffffffffffff021916908373ffffffffffffffffffffffffffffffffffffffff160217905550613807806100546000396000f3fe6080604052600436106200005c5760003560e01c80633dfbbad4146200006157806342d5ab291462000091578063893d20e814620000c75780638aa1136114620000f75780638da5cb5b146200013b578063b1296627146200016b575b600080fd5b3480156200006e57600080fd5b5062000079620001af565b6040516200008891906200097a565b60405180910390f35b620000af6004803603810190620000a9919062000a19565b6200023f565b604051620000be919062000abe565b60405180910390f35b348015620000d457600080fd5b50620000df620003f0565b604051620000ee919062000aec565b60405180910390f35b3480156200010457600080fd5b506200012360048036038101906200011d919062000b09565b6200041a565b60405162000132919062000aec565b60405180910390f35b3480156200014857600080fd5b50620001536200045a565b60405162000162919062000aec565b60405180910390f35b3480156200017857600080fd5b5062000197600480360381019062000191919062000b3b565b62000480565b604051620001a6919062000de1565b60405180910390f35b606060008054806020026020016040519081016040528092919081815260200182805480156200023557602002820191906000526020600020905b8160009054906101000a900473ffffffffffffffffffffffffffffffffffffffff1673ffffffffffffffffffffffffffffffffffffffff1681526020019060010190808311620001ea575b5050505050905090565b600080841162000286576040517f08c379a00000000000000000000000000000000000000000000000000000000081526004016200027d9062000e8c565b60405180910390fd5b600086868686866040516200029b90620007ab565b620002ab95949392919062000ebf565b604051809103906000f080158015620002c8573d6000803e3d6000fd5b5090506000819080600181540180825580915050600190039060005260206000200160009091909190916101000a81548173ffffffffffffffffffffffffffffffffffffffff021916908373ffffffffffffffffffffffffffffffffffffffff1602179055507f75bca9237f6ffc15259b422b8e25e5fd8ecd7f5e1c7a48e04841929eb477419e8173ffffffffffffffffffffffffffffffffffffffff166338cc48316040518163ffffffff1660e01b8152600401602060405180830381865afa1580156200039b573d6000803e3d6000fd5b505050506040513d601f19601f82011682018060405250810190620003c1919062000f33565b3388888888604051620003da9695949392919062000f65565b60405180910390a1600191505095945050505050565b6000600160009054906101000a900473ffffffffffffffffffffffffffffffffffffffff16905090565b600081815481106200042b57600080fd5b906000526020600020016000915054906101000a900473ffffffffffffffffffffffffffffffffffffffff1681565b600160009054906101000a900473ffffffffffffffffffffffffffffffffffffffff1681565b6060600080600080549050905060005b818110156200058d57620004a3620007b9565b620004ef60008381548110620004be57620004bd62000fd2565b5b9060005260206000200160009054906101000a900473ffffffffffffffffffffffffffffffffffffffff1662000721565b90508573ffffffffffffffffffffffffffffffffffffffff16816040015173ffffffffffffffffffffffffffffffffffffffff1614806200055f57508573ffffffffffffffffffffffffffffffffffffffff16816020015173ffffffffffffffffffffffffffffffffffffffff16145b1562000576578380620005729062001030565b9450505b508080620005849062001030565b91505062000490565b5060008267ffffffffffffffff811115620005ad57620005ac6200107d565b5b604051908082528060200260200182016040528015620005ea57816020015b620005d6620007b9565b815260200190600190039081620005cc5790505b509050600080600090505b83811015620007145762000608620007b9565b620006546000838154811062000623576200062262000fd2565b5b9060005260206000200160009054906101000a900473ffffffffffffffffffffffffffffffffffffffff1662000721565b90508773ffffffffffffffffffffffffffffffffffffffff16816040015173ffffffffffffffffffffffffffffffffffffffff161480620006c457508773ffffffffffffffffffffffffffffffffffffffff16816020015173ffffffffffffffffffffffffffffffffffffffff16145b15620006fd5780848481518110620006e157620006e062000fd2565b5b60200260200101819052508280620006f99062001030565b9350505b5080806200070b9062001030565b915050620005f5565b5081945050505050919050565b6200072b620007b9565b60008290508073ffffffffffffffffffffffffffffffffffffffff166301efb6c86040518163ffffffff1660e01b81526004016101a060405180830381865afa1580156200077d573d6000803e3d6000fd5b505050506040513d601f19601f82011682018060405250810190620007a39190620012ad565b915050919050565b6124f180620012e183390190565b604051806101a00160405280600073ffffffffffffffffffffffffffffffffffffffff168152602001600073ffffffffffffffffffffffffffffffffffffffff168152602001600073ffffffffffffffffffffffffffffffffffffffff16815260200160008152602001600081526020016000600581111562000841576200084062000baa565b5b8152602001600081526020016000815260200160008152602001600081526020016000815260200160008152602001600081525090565b600081519050919050565b600082825260208201905092915050565b6000819050602082019050919050565b600073ffffffffffffffffffffffffffffffffffffffff82169050919050565b6000620008d182620008a4565b9050919050565b620008e381620008c4565b82525050565b6000620008f78383620008d8565b60208301905092915050565b6000602082019050919050565b60006200091d8262000878565b62000929818562000883565b9350620009368362000894565b8060005b838110156200096d578151620009518882620008e9565b97506200095e8362000903565b9250506001810190506200093a565b5085935050505092915050565b6000602082019050818103600083015262000996818462000910565b905092915050565b6000604051905090565b600080fd5b620009b881620008c4565b8114620009c457600080fd5b50565b600081359050620009d881620009ad565b92915050565b6000819050919050565b620009f381620009de565b8114620009ff57600080fd5b50565b60008135905062000a1381620009e8565b92915050565b600080600080600060a0868803121562000a385762000a37620009a8565b5b600062000a4888828901620009c7565b955050602062000a5b88828901620009c7565b945050604062000a6e8882890162000a02565b935050606062000a818882890162000a02565b925050608062000a948882890162000a02565b9150509295509295909350565b60008115159050919050565b62000ab88162000aa1565b82525050565b600060208201905062000ad5600083018462000aad565b92915050565b62000ae681620008c4565b82525050565b600060208201905062000b03600083018462000adb565b92915050565b60006020828403121562000b225762000b21620009a8565b5b600062000b328482850162000a02565b91505092915050565b60006020828403121562000b545762000b53620009a8565b5b600062000b6484828501620009c7565b91505092915050565b600081519050919050565b600082825260208201905092915050565b6000819050602082019050919050565b62000ba481620009de565b82525050565b7f4e487b7100000000000000000000000000000000000000000000000000000000600052602160045260246000fd5b6006811062000bed5762000bec62000baa565b5b50565b600081905062000c008262000bd9565b919050565b600062000c128262000bf0565b9050919050565b62000c248162000c05565b82525050565b6101a08201600082015162000c436000850182620008d8565b50602082015162000c586020850182620008d8565b50604082015162000c6d6040850182620008d8565b50606082015162000c82606085018262000b99565b50608082015162000c97608085018262000b99565b5060a082015162000cac60a085018262000c19565b5060c082015162000cc160c085018262000b99565b5060e082015162000cd660e085018262000b99565b5061010082015162000ced61010085018262000b99565b5061012082015162000d0461012085018262000b99565b5061014082015162000d1b61014085018262000b99565b5061016082015162000d3261016085018262000b99565b5061018082015162000d4961018085018262000b99565b50505050565b600062000d5d838362000c2a565b6101a08301905092915050565b6000602082019050919050565b600062000d848262000b6d565b62000d90818562000b78565b935062000d9d8362000b89565b8060005b8381101562000dd457815162000db8888262000d4f565b975062000dc58362000d6a565b92505060018101905062000da1565b5085935050505092915050565b6000602082019050818103600083015262000dfd818462000d77565b905092915050565b600082825260208201905092915050565b7f746f74616c5072696365206d7573742062652067726561746572207468616e2060008201527f7a65726f00000000000000000000000000000000000000000000000000000000602082015250565b600062000e7460248362000e05565b915062000e818262000e16565b604082019050919050565b6000602082019050818103600083015262000ea78162000e65565b9050919050565b62000eb981620009de565b82525050565b600060a08201905062000ed6600083018862000adb565b62000ee5602083018762000adb565b62000ef4604083018662000eae565b62000f03606083018562000eae565b62000f12608083018462000eae565b9695505050505050565b60008151905062000f2d81620009ad565b92915050565b60006020828403121562000f4c5762000f4b620009a8565b5b600062000f5c8482850162000f1c565b91505092915050565b600060c08201905062000f7c600083018962000adb565b62000f8b602083018862000adb565b62000f9a604083018762000adb565b62000fa9606083018662000eae565b62000fb8608083018562000eae565b62000fc760a083018462000eae565b979650505050505050565b7f4e487b7100000000000000000000000000000000000000000000000000000000600052603260045260246000fd5b7f4e487b7100000000000000000000000000000000000000000000000000000000600052601160045260246000fd5b60006200103d82620009de565b91507fffffffffffffffffffffffffffffffffffffffffffffffffffffffffffffffff820362001072576200107162001001565b5b600182019050919050565b7f4e487b7100000000000000000000000000000000000000000000000000000000600052604160045260246000fd5b600080fd5b6000601f19601f8301169050919050565b620010cd82620010b1565b810181811067ffffffffffffffff82111715620010ef57620010ee6200107d565b5b80604052505050565b6000620011046200099e565b9050620011128282620010c2565b919050565b6000815190506200112881620009e8565b92915050565b600681106200113c57600080fd5b50565b60008151905062001150816200112e565b92915050565b60006101a0828403121562001170576200116f620010ac565b5b6200117d6101a0620010f8565b905060006200118f8482850162000f1c565b6000830152506020620011a58482850162000f1c565b6020830152506040620011bb8482850162000f1c565b6040830152506060620011d18482850162001117565b6060830152506080620011e78482850162001117565b60808301525060a0620011fd848285016200113f565b60a08301525060c0620012138482850162001117565b60c08301525060e0620012298482850162001117565b60e083015250610100620012408482850162001117565b61010083015250610120620012588482850162001117565b61012083015250610140620012708482850162001117565b61014083015250610160620012888482850162001117565b61016083015250610180620012a08482850162001117565b6101808301525092915050565b60006101a08284031215620012c757620012c6620009a8565b5b6000620012d78482850162001156565b9150509291505056fe60806040523480156200001157600080fd5b50604051620024f1380380620024f18339818101604052810190620000379190620001ab565b846000806101000a81548173ffffffffffffffffffffffffffffffffffffffff021916908373ffffffffffffffffffffffffffffffffffffffff16021790555083600160006101000a81548173ffffffffffffffffffffffffffffffffffffffff021916908373ffffffffffffffffffffffffffffffffffffffff160217905550826002819055508160038190555080600a819055506000600c60006101000a81548160ff02191690836005811115620000f657620000f562000233565b5b0217905550505050505062000262565b600080fd5b600073ffffffffffffffffffffffffffffffffffffffff82169050919050565b600062000138826200010b565b9050919050565b6200014a816200012b565b81146200015657600080fd5b50565b6000815190506200016a816200013f565b92915050565b6000819050919050565b620001858162000170565b81146200019157600080fd5b50565b600081519050620001a5816200017a565b92915050565b600080600080600060a08688031215620001ca57620001c962000106565b5b6000620001da8882890162000159565b9550506020620001ed8882890162000159565b9450506040620002008882890162000194565b9350506060620002138882890162000194565b9250506080620002268882890162000194565b9150509295509295909350565b7f4e487b7100000000000000000000000000000000000000000000000000000000600052602160045260246000fd5b61227f80620002726000396000f3fe60806040526004361061012a5760003560e01c8063921862a6116100ab578063ab0d92dd1161006f578063ab0d92dd14610351578063b1988acf1461037c578063c19d93fb14610386578063d6960697146103b1578063f710809b146103bb578063ff408833146103fb5761012a565b8063921862a61461029b57806398568366146102c6578063a00f198a146102f1578063a6854f8e146102fb578063a911715c146103265761012a565b806338cc4831116100f257806338cc4831146101e55780634e3cc1fe14610210578063566bceef1461023b578063826ebf76146102665780638e4b7010146102705761012a565b806301efb6c81461012f5780630419677c1461015a57806312065fe0146101855780631325e9b8146101b0578063365ace61146101db575b600080fd5b34801561013b57600080fd5b50610144610405565b6040516101519190611bc4565b60405180910390f35b34801561016657600080fd5b5061016f610528565b60405161017c9190611bef565b60405180910390f35b34801561019157600080fd5b5061019a61052e565b6040516101a79190611bef565b60405180910390f35b3480156101bc57600080fd5b506101c5610536565b6040516101d29190611bef565b60405180910390f35b6101e361053c565b005b3480156101f157600080fd5b506101fa6107c5565b6040516102079190611c19565b60405180910390f35b34801561021c57600080fd5b506102256107cd565b6040516102329190611bef565b60405180910390f35b34801561024757600080fd5b506102506107d3565b60405161025d9190611bef565b60405180910390f35b61026e6107d9565b005b34801561027c57600080fd5b50610285610b57565b6040516102929190611bef565b60405180910390f35b3480156102a757600080fd5b506102b0610b5d565b6040516102bd9190611d38565b60405180910390f35b3480156102d257600080fd5b506102db610c67565b6040516102e89190611bef565b60405180910390f35b6102f9610c6d565b005b34801561030757600080fd5b50610310610ef8565b60405161031d9190611bef565b60405180910390f35b34801561033257600080fd5b5061033b610efe565b6040516103489190611bef565b60405180910390f35b34801561035d57600080fd5b50610366610f04565b6040516103739190611bef565b60405180910390f35b610384610f0a565b005b34801561039257600080fd5b5061039b61128c565b6040516103a89190611d69565b60405180910390f35b6103b961129f565b005b3480156103c757600080fd5b506103e260048036038101906103dd9190611db5565b6115ac565b6040516103f29493929190611de2565b60405180910390f35b610403611619565b005b61040d61192c565b604051806101a001604052806104216107c5565b73ffffffffffffffffffffffffffffffffffffffff16815260200160008054906101000a900473ffffffffffffffffffffffffffffffffffffffff1673ffffffffffffffffffffffffffffffffffffffff168152602001600160009054906101000a900473ffffffffffffffffffffffffffffffffffffffff1673ffffffffffffffffffffffffffffffffffffffff16815260200160025481526020016003548152602001600c60009054906101000a900460ff1660058111156104e8576104e7611a42565b5b8152602001600454815260200160055481526020016006548152602001600754815260200160085481526020016009548152602001600a54815250905090565b60075481565b600047905090565b600a5481565b60008054906101000a900473ffffffffffffffffffffffffffffffffffffffff1673ffffffffffffffffffffffffffffffffffffffff163373ffffffffffffffffffffffffffffffffffffffff16146105ca576040517f08c379a00000000000000000000000000000000000000000000000000000000081526004016105c190611e84565b60405180910390fd5b600160058111156105de576105dd611a42565b5b600c60009054906101000a900460ff166005811115610600576105ff611a42565b5b14610640576040517f08c379a000000000000000000000000000000000000000000000000000000000815260040161063790611f16565b60405180910390fd5b6004600c60006101000a81548160ff0219169083600581111561066657610665611a42565b5b021790555042600881905550600060405180608001604052803373ffffffffffffffffffffffffffffffffffffffff16815260200160008152602001600c60009054906101000a900460ff1660058111156106c4576106c3611a42565b5b81526020016008548152509050600b81908060018154018082558091505060019003906000526020600020906004020160009091909190915060008201518160000160006101000a81548173ffffffffffffffffffffffffffffffffffffffff021916908373ffffffffffffffffffffffffffffffffffffffff1602179055506020820151816001015560408201518160020160006101000a81548160ff0219169083600581111561077957610778611a42565b5b02179055506060820151816003015550507facca1bfa13be050eb725ae7a93cb25004ee04e61475ec23f75c143ee54e4939f60046040516107ba9190611d69565b60405180910390a150565b600030905090565b60095481565b60035481565b600160009054906101000a900473ffffffffffffffffffffffffffffffffffffffff1673ffffffffffffffffffffffffffffffffffffffff163373ffffffffffffffffffffffffffffffffffffffff1614610869576040517f08c379a000000000000000000000000000000000000000000000000000000000815260040161086090611e84565b60405180910390fd5b600047116108ac576040517f08c379a00000000000000000000000000000000000000000000000000000000081526004016108a390611f82565b60405180910390fd5b600460058111156108c0576108bf611a42565b5b600c60009054906101000a900460ff1660058111156108e2576108e1611a42565b5b14610922576040517f08c379a000000000000000000000000000000000000000000000000000000000815260040161091990612014565b60405180910390fd5b60008054906101000a900473ffffffffffffffffffffffffffffffffffffffff1673ffffffffffffffffffffffffffffffffffffffff166108fc479081150290604051600060405180830381858888f19350505050158015610988573d6000803e3d6000fd5b506005600c60006101000a81548160ff021916908360058111156109af576109ae611a42565b5b0217905550426009819055506000604051806080016040528060008054906101000a900473ffffffffffffffffffffffffffffffffffffffff1673ffffffffffffffffffffffffffffffffffffffff1681526020016002548152602001600c60009054906101000a900460ff166005811115610a2e57610a2d611a42565b5b81526020016009548152509050600b81908060018154018082558091505060019003906000526020600020906004020160009091909190915060008201518160000160006101000a81548173ffffffffffffffffffffffffffffffffffffffff021916908373ffffffffffffffffffffffffffffffffffffffff1602179055506020820151816001015560408201518160020160006101000a81548160ff02191690836005811115610ae357610ae2611a42565b5b02179055506060820151816003015550507fded8d5f46dace09aa062abd5e7ac91c623b98556f15418511a9dd0de699701313060008054906101000a900473ffffffffffffffffffffffffffffffffffffffff166002546005604051610b4c9493929190612055565b60405180910390a150565b60045481565b60606000600b805480602002602001604051908101604052809291908181526020016000905b82821015610c5a57838290600052602060002090600402016040518060800160405290816000820160009054906101000a900473ffffffffffffffffffffffffffffffffffffffff1673ffffffffffffffffffffffffffffffffffffffff1673ffffffffffffffffffffffffffffffffffffffff168152602001600182015481526020016002820160009054906101000a900460ff166005811115610c2b57610c2a611a42565b5b6005811115610c3d57610c3c611a42565b5b815260200160038201548152505081526020019060010190610b83565b5050505090508091505090565b60085481565b600160009054906101000a900473ffffffffffffffffffffffffffffffffffffffff1673ffffffffffffffffffffffffffffffffffffffff163373ffffffffffffffffffffffffffffffffffffffff1614610cfd576040517f08c379a0000000000000000000000000000000000000000000000000000000008152600401610cf490611e84565b60405180910390fd5b60006005811115610d1157610d10611a42565b5b600c60009054906101000a900460ff166005811115610d3357610d32611a42565b5b14610d73576040517f08c379a0000000000000000000000000000000000000000000000000000000008152600401610d6a9061210c565b60405180910390fd5b6001600c60006101000a81548160ff02191690836005811115610d9957610d98611a42565b5b021790555042600581905550600060405180608001604052803373ffffffffffffffffffffffffffffffffffffffff16815260200160008152602001600c60009054906101000a900460ff166005811115610df757610df6611a42565b5b81526020016005548152509050600b81908060018154018082558091505060019003906000526020600020906004020160009091909190915060008201518160000160006101000a81548173ffffffffffffffffffffffffffffffffffffffff021916908373ffffffffffffffffffffffffffffffffffffffff1602179055506020820151816001015560408201518160020160006101000a81548160ff02191690836005811115610eac57610eab611a42565b5b02179055506060820151816003015550507f9da956bcab8fa91336320efb87c683b4536b21e701ba93b99780cd10c11d0dcd6001604051610eed9190611d69565b60405180910390a150565b60055481565b60065481565b60025481565b60008054906101000a900473ffffffffffffffffffffffffffffffffffffffff1673ffffffffffffffffffffffffffffffffffffffff163373ffffffffffffffffffffffffffffffffffffffff1614610f98576040517f08c379a0000000000000000000000000000000000000000000000000000000008152600401610f8f90611e84565b60405180910390fd5b60004711610fdb576040517f08c379a0000000000000000000000000000000000000000000000000000000008152600401610fd290611f82565b60405180910390fd5b60016005811115610fef57610fee611a42565b5b600c60009054906101000a900460ff16600581111561101157611010611a42565b5b14611051576040517f08c379a000000000000000000000000000000000000000000000000000000000815260040161104890611f16565b60405180910390fd5b600160009054906101000a900473ffffffffffffffffffffffffffffffffffffffff1673ffffffffffffffffffffffffffffffffffffffff166108fc479081150290604051600060405180830381858888f193505050501580156110b9573d6000803e3d6000fd5b506003600c60006101000a81548160ff021916908360058111156110e0576110df611a42565b5b02179055504260078190555060006040518060800160405280600160009054906101000a900473ffffffffffffffffffffffffffffffffffffffff1673ffffffffffffffffffffffffffffffffffffffff1681526020016002548152602001600c60009054906101000a900460ff16600581111561116157611160611a42565b5b81526020016007548152509050600b81908060018154018082558091505060019003906000526020600020906004020160009091909190915060008201518160000160006101000a81548173ffffffffffffffffffffffffffffffffffffffff021916908373ffffffffffffffffffffffffffffffffffffffff1602179055506020820151816001015560408201518160020160006101000a81548160ff0219169083600581111561121657611215611a42565b5b02179055506060820151816003015550507fce244a866e4105e01f5daf8b8de5810a6fdd632afd98f0d08499423441c1a31630600160009054906101000a900473ffffffffffffffffffffffffffffffffffffffff1660025460036040516112819493929190612055565b60405180910390a150565b600c60009054906101000a900460ff1681565b60008054906101000a900473ffffffffffffffffffffffffffffffffffffffff1673ffffffffffffffffffffffffffffffffffffffff163373ffffffffffffffffffffffffffffffffffffffff161461132d576040517f08c379a000000000000000000000000000000000000000000000000000000000815260040161132490611e84565b60405180910390fd5b6000600581111561134157611340611a42565b5b600c60009054906101000a900460ff16600581111561136357611362611a42565b5b146113a3576040517f08c379a000000000000000000000000000000000000000000000000000000000815260040161139a9061210c565b60405180910390fd5b600034116113e6576040517f08c379a00000000000000000000000000000000000000000000000000000000081526004016113dd90612178565b60405180910390fd5b343373ffffffffffffffffffffffffffffffffffffffff16311161143f576040517f08c379a0000000000000000000000000000000000000000000000000000000008152600401611436906121e4565b60405180910390fd5b426004819055506000604051806080016040528061145b6107c5565b73ffffffffffffffffffffffffffffffffffffffff168152602001348152602001600c60009054906101000a900460ff16600581111561149e5761149d611a42565b5b81526020016004548152509050600b81908060018154018082558091505060019003906000526020600020906004020160009091909190915060008201518160000160006101000a81548173ffffffffffffffffffffffffffffffffffffffff021916908373ffffffffffffffffffffffffffffffffffffffff1602179055506020820151816001015560408201518160020160006101000a81548160ff0219169083600581111561155357611552611a42565b5b02179055506060820151816003015550507fc20bc9ac6bb8fd7d3c66da8c0a5b5828a145aca18b25f4b2843562a2146650d23361158e6107c5565b3460006040516115a19493929190612204565b60405180910390a150565b600b81815481106115bc57600080fd5b90600052602060002090600402016000915090508060000160009054906101000a900473ffffffffffffffffffffffffffffffffffffffff16908060010154908060020160009054906101000a900460ff16908060030154905084565b600160009054906101000a900473ffffffffffffffffffffffffffffffffffffffff1673ffffffffffffffffffffffffffffffffffffffff163373ffffffffffffffffffffffffffffffffffffffff16146116a9576040517f08c379a00000000000000000000000000000000000000000000000000000000081526004016116a090611e84565b60405180910390fd5b600060058111156116bd576116bc611a42565b5b600c60009054906101000a900460ff1660058111156116df576116de611a42565b5b1461171f576040517f08c379a00000000000000000000000000000000000000000000000000000000081526004016117169061210c565b60405180910390fd5b60008054906101000a900473ffffffffffffffffffffffffffffffffffffffff1673ffffffffffffffffffffffffffffffffffffffff166108fc479081150290604051600060405180830381858888f19350505050158015611785573d6000803e3d6000fd5b506002600c60006101000a81548160ff021916908360058111156117ac576117ab611a42565b5b0217905550426006819055506000604051806080016040528060008054906101000a900473ffffffffffffffffffffffffffffffffffffffff1673ffffffffffffffffffffffffffffffffffffffff1681526020016002548152602001600c60009054906101000a900460ff16600581111561182b5761182a611a42565b5b81526020016006548152509050600b81908060018154018082558091505060019003906000526020600020906004020160009091909190915060008201518160000160006101000a81548173ffffffffffffffffffffffffffffffffffffffff021916908373ffffffffffffffffffffffffffffffffffffffff1602179055506020820151816001015560408201518160020160006101000a81548160ff021916908360058111156118e0576118df611a42565b5b02179055506060820151816003015550507f39b22c6fe987e72c777e4ce25a6e4e9a473cc255b6a6cc6ff01b6bc56982eea460026040516119219190611d69565b60405180910390a150565b604051806101a00160405280600073ffffffffffffffffffffffffffffffffffffffff168152602001600073ffffffffffffffffffffffffffffffffffffffff168152602001600073ffffffffffffffffffffffffffffffffffffffff1681526020016000815260200160008152602001600060058111156119b1576119b0611a42565b5b8152602001600081526020016000815260200160008152602001600081526020016000815260200160008152602001600081525090565b600073ffffffffffffffffffffffffffffffffffffffff82169050919050565b6000611a13826119e8565b9050919050565b611a2381611a08565b82525050565b6000819050919050565b611a3c81611a29565b82525050565b7f4e487b7100000000000000000000000000000000000000000000000000000000600052602160045260246000fd5b60068110611a8257611a81611a42565b5b50565b6000819050611a9382611a71565b919050565b6000611aa382611a85565b9050919050565b611ab381611a98565b82525050565b6101a082016000820151611ad06000850182611a1a565b506020820151611ae36020850182611a1a565b506040820151611af66040850182611a1a565b506060820151611b096060850182611a33565b506080820151611b1c6080850182611a33565b5060a0820151611b2f60a0850182611aaa565b5060c0820151611b4260c0850182611a33565b5060e0820151611b5560e0850182611a33565b50610100820151611b6a610100850182611a33565b50610120820151611b7f610120850182611a33565b50610140820151611b94610140850182611a33565b50610160820151611ba9610160850182611a33565b50610180820151611bbe610180850182611a33565b50505050565b60006101a082019050611bda6000830184611ab9565b92915050565b611be981611a29565b82525050565b6000602082019050611c046000830184611be0565b92915050565b611c1381611a08565b82525050565b6000602082019050611c2e6000830184611c0a565b92915050565b600081519050919050565b600082825260208201905092915050565b6000819050602082019050919050565b608082016000820151611c766000850182611a1a565b506020820151611c896020850182611a33565b506040820151611c9c6040850182611aaa565b506060820151611caf6060850182611a33565b50505050565b6000611cc18383611c60565b60808301905092915050565b6000602082019050919050565b6000611ce582611c34565b611cef8185611c3f565b9350611cfa83611c50565b8060005b83811015611d2b578151611d128882611cb5565b9750611d1d83611ccd565b925050600181019050611cfe565b5085935050505092915050565b60006020820190508181036000830152611d528184611cda565b905092915050565b611d6381611a98565b82525050565b6000602082019050611d7e6000830184611d5a565b92915050565b600080fd5b611d9281611a29565b8114611d9d57600080fd5b50565b600081359050611daf81611d89565b92915050565b600060208284031215611dcb57611dca611d84565b5b6000611dd984828501611da0565b91505092915050565b6000608082019050611df76000830187611c0a565b611e046020830186611be0565b611e116040830185611d5a565b611e1e6060830184611be0565b95945050505050565b600082825260208201905092915050565b7f4e6f74207065726d697373696f6e000000000000000000000000000000000000600082015250565b6000611e6e600e83611e27565b9150611e7982611e38565b602082019050919050565b60006020820190508181036000830152611e9d81611e61565b9050919050565b7f4f7264657220737461747573206d7573742062652073746174757320434f4e4660008201527f49524d4544000000000000000000000000000000000000000000000000000000602082015250565b6000611f00602583611e27565b9150611f0b82611ea4565b604082019050919050565b60006020820190508181036000830152611f2f81611ef3565b9050919050565b7f42616c616e6365206f66206f72646572206973206e6f7420656e6f7567680000600082015250565b6000611f6c601e83611e27565b9150611f7782611f36565b602082019050919050565b60006020820190508181036000830152611f9b81611f5f565b9050919050565b7f4f7264657220737461747573206d75737420626520737461747573205245545560008201527f524e000000000000000000000000000000000000000000000000000000000000602082015250565b6000611ffe602283611e27565b915061200982611fa2565b604082019050919050565b6000602082019050818103600083015261202d81611ff1565b9050919050565b600061203f826119e8565b9050919050565b61204f81612034565b82525050565b600060808201905061206a6000830187611c0a565b6120776020830186612046565b6120846040830185611be0565b6120916060830184611d5a565b95945050505050565b7f4f7264657220737461747573206d757374206265207374617475732050454e4460008201527f494e470000000000000000000000000000000000000000000000000000000000602082015250565b60006120f6602383611e27565b91506121018261209a565b604082019050919050565b60006020820190508181036000830152612125816120e9565b9050919050565b7f56616c7565206d75737420626520677265617465722030000000000000000000600082015250565b6000612162601783611e27565b915061216d8261212c565b602082019050919050565b6000602082019050818103600083015261219181612155565b9050919050565b7f42616c616e6365206f66206163636f756e74206973206e6f7420656e6f756768600082015250565b60006121ce602083611e27565b91506121d982612198565b602082019050919050565b600060208201905081810360008301526121fd816121c1565b9050919050565b60006080820190506122196000830187611c0a565b6122266020830186611c0a565b6122336040830185611be0565b6122406060830184611d5a565b9594505050505056fea26469706673582212208b5fa65ac167633abbae7da9ed6c3010d102161d1701c7e2d241e0a106cfcb2464736f6c63430008110033a2646970667358221220b197389c902c28eb4abf761ebc1e6e004a1cb91fddadbad32933f450ef98d1e164736f6c63430008110033",
  "immutableReferences": {},
  "source": "// SPDX-License-Identifier: GPL-3.0\r\n\r\npragma solidity >=0.7.0 <0.9.0;\r\nimport \"./Order.sol\";\r\n\r\ncontract Warehouse {\r\n    address[] public listOrder;\r\n    address public owner;\r\n\r\n    constructor() payable {\r\n        owner = msg.sender;\r\n    }\r\n\r\n    event createOrder(\r\n        address orderAddress, \r\n        address owner,\r\n        address seller,\r\n        uint256 totalPrice,\r\n        uint256 totalProduct,\r\n        uint256 dealine\r\n    );\r\n\r\n    function getOwner() public view returns (address) {\r\n        return owner;\r\n    }\r\n\r\n    function addOrder(address buyer, address seller, uint256 totalPrice, uint256 totalProduct, uint256 deadline) public payable returns (bool) {\r\n        require(totalPrice > 0, \"totalPrice must be greater than zero\");\r\n        Order order = new Order(buyer, seller, totalPrice, totalProduct, deadline);\r\n        listOrder.push(address(order));\r\n        emit createOrder(\r\n            order.getAddress(),\r\n            msg.sender,\r\n            seller,\r\n            totalPrice,\r\n            totalProduct,\r\n            deadline\r\n        );\r\n        return true;\r\n    }\r\n\r\n    function getAllOrder() public view returns (address[] memory) {\r\n        return listOrder;\r\n    }\r\n\r\n    function getOrderInfo(address _address)\r\n        private\r\n        view\r\n        returns (Order.OrderInfo memory)\r\n    {\r\n        Order order = Order(_address);\r\n        return order.getOrderInfo();\r\n    }\r\n\r\n    function getOrderPerCompany(address _addressCompany) public view returns (Order.OrderInfo[] memory) {\r\n        uint256 totalResult;\r\n        uint256 totalOrder = listOrder.length;\r\n\r\n        for (uint256 i = 0; i < totalOrder; i++) {\r\n            Order.OrderInfo memory orderDetail;\r\n            orderDetail = getOrderInfo(listOrder[i]);\r\n            if(orderDetail.seller == _addressCompany || orderDetail.buyer == _addressCompany) {\r\n                totalResult++; \r\n            }\r\n        }\r\n        Order.OrderInfo[] memory orderPerCompany = new Order.OrderInfo[](totalResult);\r\n        uint256 j;\r\n        for (uint256 i = 0; i < totalOrder; i++) {\r\n            Order.OrderInfo memory orderDetail;\r\n            orderDetail = getOrderInfo(listOrder[i]);\r\n            if(orderDetail.seller == _addressCompany || orderDetail.buyer == _addressCompany) {\r\n                orderPerCompany[j] = orderDetail;\r\n                j++;\r\n            }\r\n        }\r\n\r\n        return orderPerCompany;\r\n    }\r\n}",
  "sourcePath": "E:\\ATN-2022\\Warehouse-Protection\\warehouse-fe-blockchain\\contracts\\Warehouse.sol",
  "compiler": {
    "name": "solc",
    "version": "0.8.17+commit.8df45f5f.Emscripten.clang"
  },
  "schemaVersion": "3.4.10",
  "updatedAt": "2022-11-29T17:34:26.252Z",
  "networkType": "ethereum",
  "devdoc": {
    "kind": "dev",
    "methods": {},
    "version": 1
  },
  "userdoc": {
    "kind": "user",
    "methods": {},
    "version": 1
  }
}