{
  "contractName": "Warehouse",
  "abi": [
    {
      "inputs": [],
      "stateMutability": "payable",
      "type": "constructor",
      "payable": true
    },
    {
      "anonymous": false,
      "inputs": [
        {
          "indexed": false,
          "internalType": "address",
          "name": "orderAddress",
          "type": "address"
        },
        {
          "indexed": false,
          "internalType": "address",
          "name": "owner",
          "type": "address"
        },
        {
          "indexed": false,
          "internalType": "address",
          "name": "seller",
          "type": "address"
        },
        {
          "indexed": false,
          "internalType": "uint256",
          "name": "totalPrice",
          "type": "uint256"
        },
        {
          "indexed": false,
          "internalType": "uint256",
          "name": "shippingPrice",
          "type": "uint256"
        },
        {
          "indexed": false,
          "internalType": "uint256",
          "name": "totalProduct",
          "type": "uint256"
        },
        {
          "indexed": false,
          "internalType": "uint256",
          "name": "dealine",
          "type": "uint256"
        }
      ],
      "name": "createOrder",
      "type": "event"
    },
    {
      "inputs": [
        {
          "internalType": "uint256",
          "name": "",
          "type": "uint256"
        }
      ],
      "name": "listOrder",
      "outputs": [
        {
          "internalType": "address",
          "name": "",
          "type": "address"
        }
      ],
      "stateMutability": "view",
      "type": "function",
      "constant": true
    },
    {
      "inputs": [],
      "name": "owner",
      "outputs": [
        {
          "internalType": "address",
          "name": "",
          "type": "address"
        }
      ],
      "stateMutability": "view",
      "type": "function",
      "constant": true
    },
    {
      "inputs": [],
      "name": "getOwner",
      "outputs": [
        {
          "internalType": "address",
          "name": "",
          "type": "address"
        }
      ],
      "stateMutability": "view",
      "type": "function",
      "constant": true
    },
    {
      "inputs": [
        {
          "internalType": "address",
          "name": "seller",
          "type": "address"
        },
        {
          "internalType": "uint256",
          "name": "totalPrice",
          "type": "uint256"
        },
        {
          "internalType": "uint256",
          "name": "totalProduct",
          "type": "uint256"
        },
        {
          "internalType": "uint256",
          "name": "shippingPrice",
          "type": "uint256"
        },
        {
          "internalType": "uint256",
          "name": "deadline",
          "type": "uint256"
        }
      ],
      "name": "addOrder",
      "outputs": [
        {
          "internalType": "bool",
          "name": "",
          "type": "bool"
        }
      ],
      "stateMutability": "payable",
      "type": "function",
      "payable": true
    },
    {
      "inputs": [],
      "name": "getAllOrder",
      "outputs": [
        {
          "internalType": "address[]",
          "name": "",
          "type": "address[]"
        }
      ],
      "stateMutability": "view",
      "type": "function",
      "constant": true
    },
    {
      "inputs": [
        {
          "internalType": "address",
          "name": "_addressCompany",
          "type": "address"
        }
      ],
      "name": "getOrderPerCompany",
      "outputs": [
        {
          "components": [
            {
              "internalType": "address",
              "name": "orderAddress",
              "type": "address"
            },
            {
              "internalType": "address",
              "name": "buyer",
              "type": "address"
            },
            {
              "internalType": "address",
              "name": "seller",
              "type": "address"
            },
            {
              "internalType": "uint256",
              "name": "totalPrice",
              "type": "uint256"
            },
            {
              "internalType": "uint256",
              "name": "shippingPrice",
              "type": "uint256"
            },
            {
              "internalType": "uint256",
              "name": "totalProduct",
              "type": "uint256"
            },
            {
              "internalType": "enum Order.order_status",
              "name": "state",
              "type": "uint8"
            },
            {
              "internalType": "uint256",
              "name": "purchaseTime",
              "type": "uint256"
            },
            {
              "internalType": "uint256",
              "name": "confirmedTime",
              "type": "uint256"
            },
            {
              "internalType": "uint256",
              "name": "cancelTime",
              "type": "uint256"
            },
            {
              "internalType": "uint256",
              "name": "paymentTime",
              "type": "uint256"
            },
            {
              "internalType": "uint256",
              "name": "returnTime",
              "type": "uint256"
            },
            {
              "internalType": "uint256",
              "name": "returnedTime",
              "type": "uint256"
            },
            {
              "internalType": "uint256",
              "name": "dealine",
              "type": "uint256"
            },
            {
              "internalType": "uint256",
              "name": "balance",
              "type": "uint256"
            }
          ],
          "internalType": "struct Order.OrderInfo[]",
          "name": "",
          "type": "tuple[]"
        }
      ],
      "stateMutability": "view",
      "type": "function",
      "constant": true
    }
  ],
  "bytecode": "0x608060405233600160006101000a81548173ffffffffffffffffffffffffffffffffffffffff021916908373ffffffffffffffffffffffffffffffffffffffff160217905550614aee806100546000396000f3fe6080604052600436106200005c5760003560e01c80633dfbbad41462000061578063893d20e814620000915780638aa1136114620000c15780638da5cb5b1462000105578063b12966271462000135578063d0ffc4ab1462000179575b600080fd5b3480156200006e57600080fd5b5062000079620001af565b6040516200008891906200098c565b60405180910390f35b3480156200009e57600080fd5b50620000a96200023f565b604051620000b89190620009c1565b60405180910390f35b348015620000ce57600080fd5b50620000ed6004803603810190620000e7919062000a28565b62000269565b604051620000fc9190620009c1565b60405180910390f35b3480156200011257600080fd5b506200011d620002a9565b6040516200012c9190620009c1565b60405180910390f35b3480156200014257600080fd5b506200016160048036038101906200015b919062000a8b565b620002cf565b60405162000170919062000d5f565b60405180910390f35b62000197600480360381019062000191919062000d83565b62000570565b604051620001a6919062000e28565b60405180910390f35b606060008054806020026020016040519081016040528092919081815260200182805480156200023557602002820191906000526020600020905b8160009054906101000a900473ffffffffffffffffffffffffffffffffffffffff1673ffffffffffffffffffffffffffffffffffffffff1681526020019060010190808311620001ea575b5050505050905090565b6000600160009054906101000a900473ffffffffffffffffffffffffffffffffffffffff16905090565b600081815481106200027a57600080fd5b906000526020600020016000915054906101000a900473ffffffffffffffffffffffffffffffffffffffff1681565b600160009054906101000a900473ffffffffffffffffffffffffffffffffffffffff1681565b6060600080600080549050905060005b81811015620003dc57620002f2620007af565b6200033e600083815481106200030d576200030c62000e45565b5b9060005260206000200160009054906101000a900473ffffffffffffffffffffffffffffffffffffffff1662000725565b90508573ffffffffffffffffffffffffffffffffffffffff16816040015173ffffffffffffffffffffffffffffffffffffffff161480620003ae57508573ffffffffffffffffffffffffffffffffffffffff16816020015173ffffffffffffffffffffffffffffffffffffffff16145b15620003c5578380620003c19062000ea3565b9450505b508080620003d39062000ea3565b915050620002df565b5060008267ffffffffffffffff811115620003fc57620003fb62000ef0565b5b6040519080825280602002602001820160405280156200043957816020015b62000425620007af565b8152602001906001900390816200041b5790505b509050600080600090505b83811015620005635762000457620007af565b620004a36000838154811062000472576200047162000e45565b5b9060005260206000200160009054906101000a900473ffffffffffffffffffffffffffffffffffffffff1662000725565b90508773ffffffffffffffffffffffffffffffffffffffff16816040015173ffffffffffffffffffffffffffffffffffffffff1614806200051357508773ffffffffffffffffffffffffffffffffffffffff16816020015173ffffffffffffffffffffffffffffffffffffffff16145b156200054c578084848151811062000530576200052f62000e45565b5b60200260200101819052508280620005489062000ea3565b9350505b5080806200055a9062000ea3565b91505062000444565b5081945050505050919050565b6000808511620005b7576040517f08c379a0000000000000000000000000000000000000000000000000000000008152600401620005ae9062000fa6565b60405180910390fd5b6000338787868887604051620005cd906200087c565b620005de9695949392919062000fd9565b604051809103906000f080158015620005fb573d6000803e3d6000fd5b5090506000819080600181540180825580915050600190039060005260206000200160009091909190916101000a81548173ffffffffffffffffffffffffffffffffffffffff021916908373ffffffffffffffffffffffffffffffffffffffff1602179055507f1e9e420490b37134063e16f1c5253e24b3bbf03285df48b01d9612a7cb799cc28173ffffffffffffffffffffffffffffffffffffffff166338cc48316040518163ffffffff1660e01b8152600401602060405180830381865afa158015620006ce573d6000803e3d6000fd5b505050506040513d601f19601f82011682018060405250810190620006f491906200105d565b338989888a896040516200070f97969594939291906200108f565b60405180910390a1600191505095945050505050565b6200072f620007af565b60008290508073ffffffffffffffffffffffffffffffffffffffff166301efb6c86040518163ffffffff1660e01b81526004016101e060405180830381865afa15801562000781573d6000803e3d6000fd5b505050506040513d601f19601f82011682018060405250810190620007a791906200133d565b915050919050565b604051806101e00160405280600073ffffffffffffffffffffffffffffffffffffffff168152602001600073ffffffffffffffffffffffffffffffffffffffff168152602001600073ffffffffffffffffffffffffffffffffffffffff168152602001600081526020016000815260200160008152602001600060058111156200083e576200083d62000afa565b5b815260200160008152602001600081526020016000815260200160008152602001600081526020016000815260200160008152602001600081525090565b613748806200137183390190565b600081519050919050565b600082825260208201905092915050565b6000819050602082019050919050565b600073ffffffffffffffffffffffffffffffffffffffff82169050919050565b6000620008e382620008b6565b9050919050565b620008f581620008d6565b82525050565b6000620009098383620008ea565b60208301905092915050565b6000602082019050919050565b60006200092f826200088a565b6200093b818562000895565b93506200094883620008a6565b8060005b838110156200097f578151620009638882620008fb565b9750620009708362000915565b9250506001810190506200094c565b5085935050505092915050565b60006020820190508181036000830152620009a8818462000922565b905092915050565b620009bb81620008d6565b82525050565b6000602082019050620009d86000830184620009b0565b92915050565b6000604051905090565b600080fd5b6000819050919050565b62000a0281620009ed565b811462000a0e57600080fd5b50565b60008135905062000a2281620009f7565b92915050565b60006020828403121562000a415762000a40620009e8565b5b600062000a518482850162000a11565b91505092915050565b62000a6581620008d6565b811462000a7157600080fd5b50565b60008135905062000a858162000a5a565b92915050565b60006020828403121562000aa45762000aa3620009e8565b5b600062000ab48482850162000a74565b91505092915050565b600081519050919050565b600082825260208201905092915050565b6000819050602082019050919050565b62000af481620009ed565b82525050565b7f4e487b7100000000000000000000000000000000000000000000000000000000600052602160045260246000fd5b6006811062000b3d5762000b3c62000afa565b5b50565b600081905062000b508262000b29565b919050565b600062000b628262000b40565b9050919050565b62000b748162000b55565b82525050565b6101e08201600082015162000b936000850182620008ea565b50602082015162000ba86020850182620008ea565b50604082015162000bbd6040850182620008ea565b50606082015162000bd2606085018262000ae9565b50608082015162000be7608085018262000ae9565b5060a082015162000bfc60a085018262000ae9565b5060c082015162000c1160c085018262000b69565b5060e082015162000c2660e085018262000ae9565b5061010082015162000c3d61010085018262000ae9565b5061012082015162000c5461012085018262000ae9565b5061014082015162000c6b61014085018262000ae9565b5061016082015162000c8261016085018262000ae9565b5061018082015162000c9961018085018262000ae9565b506101a082015162000cb06101a085018262000ae9565b506101c082015162000cc76101c085018262000ae9565b50505050565b600062000cdb838362000b7a565b6101e08301905092915050565b6000602082019050919050565b600062000d028262000abd565b62000d0e818562000ac8565b935062000d1b8362000ad9565b8060005b8381101562000d5257815162000d36888262000ccd565b975062000d438362000ce8565b92505060018101905062000d1f565b5085935050505092915050565b6000602082019050818103600083015262000d7b818462000cf5565b905092915050565b600080600080600060a0868803121562000da25762000da1620009e8565b5b600062000db28882890162000a74565b955050602062000dc58882890162000a11565b945050604062000dd88882890162000a11565b935050606062000deb8882890162000a11565b925050608062000dfe8882890162000a11565b9150509295509295909350565b60008115159050919050565b62000e228162000e0b565b82525050565b600060208201905062000e3f600083018462000e17565b92915050565b7f4e487b7100000000000000000000000000000000000000000000000000000000600052603260045260246000fd5b7f4e487b7100000000000000000000000000000000000000000000000000000000600052601160045260246000fd5b600062000eb082620009ed565b91507fffffffffffffffffffffffffffffffffffffffffffffffffffffffffffffffff820362000ee55762000ee462000e74565b5b600182019050919050565b7f4e487b7100000000000000000000000000000000000000000000000000000000600052604160045260246000fd5b600082825260208201905092915050565b7f746f74616c5072696365206d7573742062652067726561746572207468616e2060008201527f7a65726f00000000000000000000000000000000000000000000000000000000602082015250565b600062000f8e60248362000f1f565b915062000f9b8262000f30565b604082019050919050565b6000602082019050818103600083015262000fc18162000f7f565b9050919050565b62000fd381620009ed565b82525050565b600060c08201905062000ff06000830189620009b0565b62000fff6020830188620009b0565b6200100e604083018762000fc8565b6200101d606083018662000fc8565b6200102c608083018562000fc8565b6200103b60a083018462000fc8565b979650505050505050565b600081519050620010578162000a5a565b92915050565b600060208284031215620010765762001075620009e8565b5b6000620010868482850162001046565b91505092915050565b600060e082019050620010a6600083018a620009b0565b620010b56020830189620009b0565b620010c46040830188620009b0565b620010d3606083018762000fc8565b620010e2608083018662000fc8565b620010f160a083018562000fc8565b6200110060c083018462000fc8565b98975050505050505050565b600080fd5b6000601f19601f8301169050919050565b6200112d8262001111565b810181811067ffffffffffffffff821117156200114f576200114e62000ef0565b5b80604052505050565b600062001164620009de565b905062001172828262001122565b919050565b6000815190506200118881620009f7565b92915050565b600681106200119c57600080fd5b50565b600081519050620011b0816200118e565b92915050565b60006101e08284031215620011d057620011cf6200110c565b5b620011dd6101e062001158565b90506000620011ef8482850162001046565b6000830152506020620012058482850162001046565b60208301525060406200121b8482850162001046565b6040830152506060620012318482850162001177565b6060830152506080620012478482850162001177565b60808301525060a06200125d8482850162001177565b60a08301525060c062001273848285016200119f565b60c08301525060e0620012898482850162001177565b60e083015250610100620012a08482850162001177565b61010083015250610120620012b88482850162001177565b61012083015250610140620012d08482850162001177565b61014083015250610160620012e88482850162001177565b61016083015250610180620013008482850162001177565b610180830152506101a0620013188482850162001177565b6101a0830152506101c0620013308482850162001177565b6101c08301525092915050565b60006101e08284031215620013575762001356620009e8565b5b60006200136784828501620011b6565b9150509291505056fe60806040523480156200001157600080fd5b506040516200374838038062003748833981810160405281019062000037919062000185565b856000806101000a81548173ffffffffffffffffffffffffffffffffffffffff021916908373ffffffffffffffffffffffffffffffffffffffff16021790555084600160006101000a81548173ffffffffffffffffffffffffffffffffffffffff021916908373ffffffffffffffffffffffffffffffffffffffff16021790555083600281905550826003819055508160048190555080600b8190555050505050505062000221565b600080fd5b600073ffffffffffffffffffffffffffffffffffffffff82169050919050565b60006200011282620000e5565b9050919050565b620001248162000105565b81146200013057600080fd5b50565b600081519050620001448162000119565b92915050565b6000819050919050565b6200015f816200014a565b81146200016b57600080fd5b50565b6000815190506200017f8162000154565b92915050565b60008060008060008060c08789031215620001a557620001a4620000e0565b5b6000620001b589828a0162000133565b9650506020620001c889828a0162000133565b9550506040620001db89828a016200016e565b9450506060620001ee89828a016200016e565b93505060806200020189828a016200016e565b92505060a06200021489828a016200016e565b9150509295509295509295565b61351780620002316000396000f3fe6080604052600436106101665760003560e01c80638ac7d79c116100d1578063ab0d92dd1161008a578063cfe97dc411610064578063cfe97dc414610450578063d69606971461045a578063f710809b14610464578063ff408833146104a457610166565b8063ab0d92dd146103f0578063b1988acf1461041b578063c19d93fb1461042557610166565b80638ac7d79c146102fd5780638e4b701014610319578063921862a614610344578063985683661461036f578063a6854f8e1461039a578063a911715c146103c557610166565b8063566bceef11610123578063566bceef1461026d57806357b36929146102985780636f674685146102b457806370715030146102be57806381e43139146102e9578063826ebf76146102f357610166565b806301efb6c81461016b5780630419677c1461019657806312065fe0146101c157806329dcb0cf146101ec57806338cc4831146102175780634e3cc1fe14610242575b600080fd5b34801561017757600080fd5b506101806104ae565b60405161018d9190612c58565b60405180910390f35b3480156101a257600080fd5b506101ab6105e6565b6040516101b89190612c83565b60405180910390f35b3480156101cd57600080fd5b506101d66105ec565b6040516101e39190612c83565b60405180910390f35b3480156101f857600080fd5b506102016105f4565b60405161020e9190612c83565b60405180910390f35b34801561022357600080fd5b5061022c6105fa565b6040516102399190612cad565b60405180910390f35b34801561024e57600080fd5b50610257610602565b6040516102649190612c83565b60405180910390f35b34801561027957600080fd5b50610282610608565b60405161028f9190612c83565b60405180910390f35b6102b260048036038101906102ad9190612cf9565b61060e565b005b6102bc61089f565b005b3480156102ca57600080fd5b506102d3610c74565b6040516102e09190612c83565b60405180910390f35b6102f1610c7a565b005b6102fb611230565b005b61031760048036038101906103129190612cf9565b611797565b005b34801561032557600080fd5b5061032e611a2a565b60405161033b9190612c83565b60405180910390f35b34801561035057600080fd5b50610359611a30565b6040516103669190612e2a565b60405180910390f35b34801561037b57600080fd5b50610384611b3a565b6040516103919190612c83565b60405180910390f35b3480156103a657600080fd5b506103af611b40565b6040516103bc9190612c83565b60405180910390f35b3480156103d157600080fd5b506103da611b46565b6040516103e79190612c83565b60405180910390f35b3480156103fc57600080fd5b50610405611b4c565b6040516104129190612c83565b60405180910390f35b610423611b52565b005b34801561043157600080fd5b5061043a611ed4565b6040516104479190612e5b565b60405180910390f35b610458611ee7565b005b61046261228c565b005b34801561047057600080fd5b5061048b60048036038101906104869190612cf9565b612608565b60405161049b9493929190612e76565b60405180910390f35b6104ac612675565b005b6104b6612988565b604051806101e001604052806104ca6105fa565b73ffffffffffffffffffffffffffffffffffffffff16815260200160008054906101000a900473ffffffffffffffffffffffffffffffffffffffff1673ffffffffffffffffffffffffffffffffffffffff168152602001600160009054906101000a900473ffffffffffffffffffffffffffffffffffffffff1673ffffffffffffffffffffffffffffffffffffffff168152602001600254815260200160035481526020016004548152602001600d60009054906101000a900460ff16600581111561059957610598612aac565b5b815260200160055481526020016006548152602001600754815260200160085481526020016009548152602001600a548152602001600b5481526020016105de6105ec565b815250905090565b60085481565b600047905090565b600b5481565b600030905090565b600a5481565b60045481565b60008054906101000a900473ffffffffffffffffffffffffffffffffffffffff1673ffffffffffffffffffffffffffffffffffffffff163373ffffffffffffffffffffffffffffffffffffffff161461069c576040517f08c379a000000000000000000000000000000000000000000000000000000000815260040161069390612f18565b60405180910390fd5b600160058111156106b0576106af612aac565b5b600d60009054906101000a900460ff1660058111156106d2576106d1612aac565b5b14610712576040517f08c379a000000000000000000000000000000000000000000000000000000000815260040161070990612faa565b60405180910390fd5b6004600d60006101000a81548160ff0219169083600581111561073857610737612aac565b5b02179055504260098190555080600b81905550600060405180608001604052803373ffffffffffffffffffffffffffffffffffffffff16815260200160008152602001600d60009054906101000a900460ff16600581111561079d5761079c612aac565b5b81526020016009548152509050600c81908060018154018082558091505060019003906000526020600020906004020160009091909190915060008201518160000160006101000a81548173ffffffffffffffffffffffffffffffffffffffff021916908373ffffffffffffffffffffffffffffffffffffffff1602179055506020820151816001015560408201518160020160006101000a81548160ff0219169083600581111561085257610851612aac565b5b02179055506060820151816003015550507facca1bfa13be050eb725ae7a93cb25004ee04e61475ec23f75c143ee54e4939f60046040516108939190612e5b565b60405180910390a15050565b600b546103e8426108b09190612ff9565b116108f0576040517f08c379a00000000000000000000000000000000000000000000000000000000081526004016108e7906130ad565b60405180910390fd5b600160009054906101000a900473ffffffffffffffffffffffffffffffffffffffff1673ffffffffffffffffffffffffffffffffffffffff163373ffffffffffffffffffffffffffffffffffffffff1614610980576040517f08c379a000000000000000000000000000000000000000000000000000000000815260040161097790612f18565b60405180910390fd5b6001600581111561099457610993612aac565b5b600d60009054906101000a900460ff1660058111156109b6576109b5612aac565b5b146109f6576040517f08c379a00000000000000000000000000000000000000000000000000000000081526004016109ed90612faa565b60405180910390fd5b60004711610a39576040517f08c379a0000000000000000000000000000000000000000000000000000000008152600401610a3090613119565b60405180910390fd5b600160009054906101000a900473ffffffffffffffffffffffffffffffffffffffff1673ffffffffffffffffffffffffffffffffffffffff166108fc479081150290604051600060405180830381858888f19350505050158015610aa1573d6000803e3d6000fd5b506003600d60006101000a81548160ff02191690836005811115610ac857610ac7612aac565b5b02179055504260058190555060006040518060800160405280600160009054906101000a900473ffffffffffffffffffffffffffffffffffffffff1673ffffffffffffffffffffffffffffffffffffffff1681526020016002548152602001600d60009054906101000a900460ff166005811115610b4957610b48612aac565b5b81526020016005548152509050600c81908060018154018082558091505060019003906000526020600020906004020160009091909190915060008201518160000160006101000a81548173ffffffffffffffffffffffffffffffffffffffff021916908373ffffffffffffffffffffffffffffffffffffffff1602179055506020820151816001015560408201518160020160006101000a81548160ff02191690836005811115610bfe57610bfd612aac565b5b02179055506060820151816003015550507fce244a866e4105e01f5daf8b8de5810a6fdd632afd98f0d08499423441c1a31630600160009054906101000a900473ffffffffffffffffffffffffffffffffffffffff166002546003604051610c69949392919061315a565b60405180910390a150565b60035481565b600b546103e842610c8b9190612ff9565b11610ccb576040517f08c379a0000000000000000000000000000000000000000000000000000000008152600401610cc2906130ad565b60405180910390fd5b60008054906101000a900473ffffffffffffffffffffffffffffffffffffffff1673ffffffffffffffffffffffffffffffffffffffff163373ffffffffffffffffffffffffffffffffffffffff1614610d59576040517f08c379a0000000000000000000000000000000000000000000000000000000008152600401610d5090612f18565b60405180910390fd5b60046005811115610d6d57610d6c612aac565b5b600d60009054906101000a900460ff166005811115610d8f57610d8e612aac565b5b14610dcf576040517f08c379a0000000000000000000000000000000000000000000000000000000008152600401610dc690613211565b60405180910390fd5b60004711610e12576040517f08c379a0000000000000000000000000000000000000000000000000000000008152600401610e0990613119565b60405180910390fd5b6005600d60006101000a81548160ff02191690836005811115610e3857610e37612aac565b5b021790555042600a8190555060008054906101000a900473ffffffffffffffffffffffffffffffffffffffff1673ffffffffffffffffffffffffffffffffffffffff166108fc60035447610e8c9190613231565b9081150290604051600060405180830381858888f19350505050158015610eb7573d6000803e3d6000fd5b506000604051806080016040528060008054906101000a900473ffffffffffffffffffffffffffffffffffffffff1673ffffffffffffffffffffffffffffffffffffffff1681526020016002548152602001600d60009054906101000a900460ff166005811115610f2b57610f2a612aac565b5b8152602001600a548152509050600c81908060018154018082558091505060019003906000526020600020906004020160009091909190915060008201518160000160006101000a81548173ffffffffffffffffffffffffffffffffffffffff021916908373ffffffffffffffffffffffffffffffffffffffff1602179055506020820151816001015560408201518160020160006101000a81548160ff02191690836005811115610fe057610fdf612aac565b5b0217905550606082015181600301555050600160009054906101000a900473ffffffffffffffffffffffffffffffffffffffff1673ffffffffffffffffffffffffffffffffffffffff166108fc6003549081150290604051600060405180830381858888f1935050505015801561105b573d6000803e3d6000fd5b5060006040518060800160405280600160009054906101000a900473ffffffffffffffffffffffffffffffffffffffff1673ffffffffffffffffffffffffffffffffffffffff1681526020016003548152602001600d60009054906101000a900460ff1660058111156110d1576110d0612aac565b5b8152602001600a548152509050600c81908060018154018082558091505060019003906000526020600020906004020160009091909190915060008201518160000160006101000a81548173ffffffffffffffffffffffffffffffffffffffff021916908373ffffffffffffffffffffffffffffffffffffffff1602179055506020820151816001015560408201518160020160006101000a81548160ff0219169083600581111561118657611185612aac565b5b02179055506060820151816003015550507fab7091e501a850216686bfcc48e21aeb92fd7ad3e559933b25e6b98f4a502e6c3060008054906101000a900473ffffffffffffffffffffffffffffffffffffffff166003546002546111ea9190613231565b600160009054906101000a900473ffffffffffffffffffffffffffffffffffffffff16600354600560405161122496959493929190613265565b60405180910390a15050565b600160009054906101000a900473ffffffffffffffffffffffffffffffffffffffff1673ffffffffffffffffffffffffffffffffffffffff163373ffffffffffffffffffffffffffffffffffffffff16146112c0576040517f08c379a00000000000000000000000000000000000000000000000000000000081526004016112b790612f18565b60405180910390fd5b60004711611303576040517f08c379a00000000000000000000000000000000000000000000000000000000081526004016112fa90613119565b60405180910390fd5b6004600581111561131757611316612aac565b5b600d60009054906101000a900460ff16600581111561133957611338612aac565b5b14611379576040517f08c379a000000000000000000000000000000000000000000000000000000000815260040161137090613211565b60405180910390fd5b6005600d60006101000a81548160ff0219169083600581111561139f5761139e612aac565b5b021790555042600a8190555060008054906101000a900473ffffffffffffffffffffffffffffffffffffffff1673ffffffffffffffffffffffffffffffffffffffff166108fc600354476113f39190613231565b9081150290604051600060405180830381858888f1935050505015801561141e573d6000803e3d6000fd5b506000604051806080016040528060008054906101000a900473ffffffffffffffffffffffffffffffffffffffff1673ffffffffffffffffffffffffffffffffffffffff1681526020016002548152602001600d60009054906101000a900460ff16600581111561149257611491612aac565b5b8152602001600a548152509050600c81908060018154018082558091505060019003906000526020600020906004020160009091909190915060008201518160000160006101000a81548173ffffffffffffffffffffffffffffffffffffffff021916908373ffffffffffffffffffffffffffffffffffffffff1602179055506020820151816001015560408201518160020160006101000a81548160ff0219169083600581111561154757611546612aac565b5b0217905550606082015181600301555050600160009054906101000a900473ffffffffffffffffffffffffffffffffffffffff1673ffffffffffffffffffffffffffffffffffffffff166108fc6003549081150290604051600060405180830381858888f193505050501580156115c2573d6000803e3d6000fd5b5060006040518060800160405280600160009054906101000a900473ffffffffffffffffffffffffffffffffffffffff1673ffffffffffffffffffffffffffffffffffffffff1681526020016003548152602001600d60009054906101000a900460ff16600581111561163857611637612aac565b5b8152602001600a548152509050600c81908060018154018082558091505060019003906000526020600020906004020160009091909190915060008201518160000160006101000a81548173ffffffffffffffffffffffffffffffffffffffff021916908373ffffffffffffffffffffffffffffffffffffffff1602179055506020820151816001015560408201518160020160006101000a81548160ff021916908360058111156116ed576116ec612aac565b5b02179055506060820151816003015550507fab7091e501a850216686bfcc48e21aeb92fd7ad3e559933b25e6b98f4a502e6c3060008054906101000a900473ffffffffffffffffffffffffffffffffffffffff166003546002546117519190613231565b600160009054906101000a900473ffffffffffffffffffffffffffffffffffffffff16600354600560405161178b96959493929190613265565b60405180910390a15050565b600160009054906101000a900473ffffffffffffffffffffffffffffffffffffffff1673ffffffffffffffffffffffffffffffffffffffff163373ffffffffffffffffffffffffffffffffffffffff1614611827576040517f08c379a000000000000000000000000000000000000000000000000000000000815260040161181e90612f18565b60405180910390fd5b6000600581111561183b5761183a612aac565b5b600d60009054906101000a900460ff16600581111561185d5761185c612aac565b5b1461189d576040517f08c379a000000000000000000000000000000000000000000000000000000000815260040161189490613338565b60405180910390fd5b6001600d60006101000a81548160ff021916908360058111156118c3576118c2612aac565b5b02179055504260068190555080600b81905550600060405180608001604052803373ffffffffffffffffffffffffffffffffffffffff16815260200160008152602001600d60009054906101000a900460ff16600581111561192857611927612aac565b5b81526020016006548152509050600c81908060018154018082558091505060019003906000526020600020906004020160009091909190915060008201518160000160006101000a81548173ffffffffffffffffffffffffffffffffffffffff021916908373ffffffffffffffffffffffffffffffffffffffff1602179055506020820151816001015560408201518160020160006101000a81548160ff021916908360058111156119dd576119dc612aac565b5b02179055506060820151816003015550507f9da956bcab8fa91336320efb87c683b4536b21e701ba93b99780cd10c11d0dcd6001604051611a1e9190612e5b565b60405180910390a15050565b60055481565b60606000600c805480602002602001604051908101604052809291908181526020016000905b82821015611b2d57838290600052602060002090600402016040518060800160405290816000820160009054906101000a900473ffffffffffffffffffffffffffffffffffffffff1673ffffffffffffffffffffffffffffffffffffffff1673ffffffffffffffffffffffffffffffffffffffff168152602001600182015481526020016002820160009054906101000a900460ff166005811115611afe57611afd612aac565b5b6005811115611b1057611b0f612aac565b5b815260200160038201548152505081526020019060010190611a56565b5050505090508091505090565b60095481565b60065481565b60075481565b60025481565b60008054906101000a900473ffffffffffffffffffffffffffffffffffffffff1673ffffffffffffffffffffffffffffffffffffffff163373ffffffffffffffffffffffffffffffffffffffff1614611be0576040517f08c379a0000000000000000000000000000000000000000000000000000000008152600401611bd790612f18565b60405180910390fd5b60004711611c23576040517f08c379a0000000000000000000000000000000000000000000000000000000008152600401611c1a90613119565b60405180910390fd5b60016005811115611c3757611c36612aac565b5b600d60009054906101000a900460ff166005811115611c5957611c58612aac565b5b14611c99576040517f08c379a0000000000000000000000000000000000000000000000000000000008152600401611c9090612faa565b60405180910390fd5b600160009054906101000a900473ffffffffffffffffffffffffffffffffffffffff1673ffffffffffffffffffffffffffffffffffffffff166108fc479081150290604051600060405180830381858888f19350505050158015611d01573d6000803e3d6000fd5b506003600d60006101000a81548160ff02191690836005811115611d2857611d27612aac565b5b02179055504260088190555060006040518060800160405280600160009054906101000a900473ffffffffffffffffffffffffffffffffffffffff1673ffffffffffffffffffffffffffffffffffffffff1681526020016002548152602001600d60009054906101000a900460ff166005811115611da957611da8612aac565b5b81526020016008548152509050600c81908060018154018082558091505060019003906000526020600020906004020160009091909190915060008201518160000160006101000a81548173ffffffffffffffffffffffffffffffffffffffff021916908373ffffffffffffffffffffffffffffffffffffffff1602179055506020820151816001015560408201518160020160006101000a81548160ff02191690836005811115611e5e57611e5d612aac565b5b02179055506060820151816003015550507fce244a866e4105e01f5daf8b8de5810a6fdd632afd98f0d08499423441c1a31630600160009054906101000a900473ffffffffffffffffffffffffffffffffffffffff166002546003604051611ec9949392919061315a565b60405180910390a150565b600d60009054906101000a900460ff1681565b600b546103e842611ef89190612ff9565b11611f38576040517f08c379a0000000000000000000000000000000000000000000000000000000008152600401611f2f906130ad565b60405180910390fd5b60008054906101000a900473ffffffffffffffffffffffffffffffffffffffff1673ffffffffffffffffffffffffffffffffffffffff163373ffffffffffffffffffffffffffffffffffffffff1614611fc6576040517f08c379a0000000000000000000000000000000000000000000000000000000008152600401611fbd90612f18565b60405180910390fd5b60006005811115611fda57611fd9612aac565b5b600d60009054906101000a900460ff166005811115611ffc57611ffb612aac565b5b1461203c576040517f08c379a000000000000000000000000000000000000000000000000000000000815260040161203390613338565b60405180910390fd5b6000471161207f576040517f08c379a000000000000000000000000000000000000000000000000000000000815260040161207690613119565b60405180910390fd5b60008054906101000a900473ffffffffffffffffffffffffffffffffffffffff1673ffffffffffffffffffffffffffffffffffffffff166108fc479081150290604051600060405180830381858888f193505050501580156120e5573d6000803e3d6000fd5b506002600d60006101000a81548160ff0219169083600581111561210c5761210b612aac565b5b0217905550426007819055506000604051806080016040528060008054906101000a900473ffffffffffffffffffffffffffffffffffffffff1673ffffffffffffffffffffffffffffffffffffffff1681526020016002548152602001600d60009054906101000a900460ff16600581111561218b5761218a612aac565b5b81526020016007548152509050600c81908060018154018082558091505060019003906000526020600020906004020160009091909190915060008201518160000160006101000a81548173ffffffffffffffffffffffffffffffffffffffff021916908373ffffffffffffffffffffffffffffffffffffffff1602179055506020820151816001015560408201518160020160006101000a81548160ff021916908360058111156122405761223f612aac565b5b02179055506060820151816003015550507f39b22c6fe987e72c777e4ce25a6e4e9a473cc255b6a6cc6ff01b6bc56982eea460026040516122819190612e5b565b60405180910390a150565b60008054906101000a900473ffffffffffffffffffffffffffffffffffffffff1673ffffffffffffffffffffffffffffffffffffffff163373ffffffffffffffffffffffffffffffffffffffff161461231a576040517f08c379a000000000000000000000000000000000000000000000000000000000815260040161231190612f18565b60405180910390fd5b6000600581111561232e5761232d612aac565b5b600d60009054906101000a900460ff1660058111156123505761234f612aac565b5b14612390576040517f08c379a000000000000000000000000000000000000000000000000000000000815260040161238790613338565b60405180910390fd5b600034116123d3576040517f08c379a00000000000000000000000000000000000000000000000000000000081526004016123ca906133a4565b60405180910390fd5b343373ffffffffffffffffffffffffffffffffffffffff16311161242c576040517f08c379a000000000000000000000000000000000000000000000000000000000815260040161242390613410565b60405180910390fd5b6002543414612470576040517f08c379a00000000000000000000000000000000000000000000000000000000081526004016124679061347c565b60405180910390fd5b426005819055506000600d60006101000a81548160ff0219169083600581111561249d5761249c612aac565b5b0217905550600060405180608001604052806124b76105fa565b73ffffffffffffffffffffffffffffffffffffffff168152602001348152602001600d60009054906101000a900460ff1660058111156124fa576124f9612aac565b5b81526020016005548152509050600c81908060018154018082558091505060019003906000526020600020906004020160009091909190915060008201518160000160006101000a81548173ffffffffffffffffffffffffffffffffffffffff021916908373ffffffffffffffffffffffffffffffffffffffff1602179055506020820151816001015560408201518160020160006101000a81548160ff021916908360058111156125af576125ae612aac565b5b02179055506060820151816003015550507fc20bc9ac6bb8fd7d3c66da8c0a5b5828a145aca18b25f4b2843562a2146650d2336125ea6105fa565b3460006040516125fd949392919061349c565b60405180910390a150565b600c818154811061261857600080fd5b90600052602060002090600402016000915090508060000160009054906101000a900473ffffffffffffffffffffffffffffffffffffffff16908060010154908060020160009054906101000a900460ff16908060030154905084565b600160009054906101000a900473ffffffffffffffffffffffffffffffffffffffff1673ffffffffffffffffffffffffffffffffffffffff163373ffffffffffffffffffffffffffffffffffffffff1614612705576040517f08c379a00000000000000000000000000000000000000000000000000000000081526004016126fc90612f18565b60405180910390fd5b6000600581111561271957612718612aac565b5b600d60009054906101000a900460ff16600581111561273b5761273a612aac565b5b1461277b576040517f08c379a000000000000000000000000000000000000000000000000000000000815260040161277290613338565b60405180910390fd5b60008054906101000a900473ffffffffffffffffffffffffffffffffffffffff1673ffffffffffffffffffffffffffffffffffffffff166108fc479081150290604051600060405180830381858888f193505050501580156127e1573d6000803e3d6000fd5b506002600d60006101000a81548160ff0219169083600581111561280857612807612aac565b5b0217905550426007819055506000604051806080016040528060008054906101000a900473ffffffffffffffffffffffffffffffffffffffff1673ffffffffffffffffffffffffffffffffffffffff1681526020016002548152602001600d60009054906101000a900460ff16600581111561288757612886612aac565b5b81526020016007548152509050600c81908060018154018082558091505060019003906000526020600020906004020160009091909190915060008201518160000160006101000a81548173ffffffffffffffffffffffffffffffffffffffff021916908373ffffffffffffffffffffffffffffffffffffffff1602179055506020820151816001015560408201518160020160006101000a81548160ff0219169083600581111561293c5761293b612aac565b5b02179055506060820151816003015550507f39b22c6fe987e72c777e4ce25a6e4e9a473cc255b6a6cc6ff01b6bc56982eea4600260405161297d9190612e5b565b60405180910390a150565b604051806101e00160405280600073ffffffffffffffffffffffffffffffffffffffff168152602001600073ffffffffffffffffffffffffffffffffffffffff168152602001600073ffffffffffffffffffffffffffffffffffffffff16815260200160008152602001600081526020016000815260200160006005811115612a1457612a13612aac565b5b815260200160008152602001600081526020016000815260200160008152602001600081526020016000815260200160008152602001600081525090565b600073ffffffffffffffffffffffffffffffffffffffff82169050919050565b6000612a7d82612a52565b9050919050565b612a8d81612a72565b82525050565b6000819050919050565b612aa681612a93565b82525050565b7f4e487b7100000000000000000000000000000000000000000000000000000000600052602160045260246000fd5b60068110612aec57612aeb612aac565b5b50565b6000819050612afd82612adb565b919050565b6000612b0d82612aef565b9050919050565b612b1d81612b02565b82525050565b6101e082016000820151612b3a6000850182612a84565b506020820151612b4d6020850182612a84565b506040820151612b606040850182612a84565b506060820151612b736060850182612a9d565b506080820151612b866080850182612a9d565b5060a0820151612b9960a0850182612a9d565b5060c0820151612bac60c0850182612b14565b5060e0820151612bbf60e0850182612a9d565b50610100820151612bd4610100850182612a9d565b50610120820151612be9610120850182612a9d565b50610140820151612bfe610140850182612a9d565b50610160820151612c13610160850182612a9d565b50610180820151612c28610180850182612a9d565b506101a0820151612c3d6101a0850182612a9d565b506101c0820151612c526101c0850182612a9d565b50505050565b60006101e082019050612c6e6000830184612b23565b92915050565b612c7d81612a93565b82525050565b6000602082019050612c986000830184612c74565b92915050565b612ca781612a72565b82525050565b6000602082019050612cc26000830184612c9e565b92915050565b600080fd5b612cd681612a93565b8114612ce157600080fd5b50565b600081359050612cf381612ccd565b92915050565b600060208284031215612d0f57612d0e612cc8565b5b6000612d1d84828501612ce4565b91505092915050565b600081519050919050565b600082825260208201905092915050565b6000819050602082019050919050565b608082016000820151612d686000850182612a84565b506020820151612d7b6020850182612a9d565b506040820151612d8e6040850182612b14565b506060820151612da16060850182612a9d565b50505050565b6000612db38383612d52565b60808301905092915050565b6000602082019050919050565b6000612dd782612d26565b612de18185612d31565b9350612dec83612d42565b8060005b83811015612e1d578151612e048882612da7565b9750612e0f83612dbf565b925050600181019050612df0565b5085935050505092915050565b60006020820190508181036000830152612e448184612dcc565b905092915050565b612e5581612b02565b82525050565b6000602082019050612e706000830184612e4c565b92915050565b6000608082019050612e8b6000830187612c9e565b612e986020830186612c74565b612ea56040830185612e4c565b612eb26060830184612c74565b95945050505050565b600082825260208201905092915050565b7f4e6f74207065726d697373696f6e000000000000000000000000000000000000600082015250565b6000612f02600e83612ebb565b9150612f0d82612ecc565b602082019050919050565b60006020820190508181036000830152612f3181612ef5565b9050919050565b7f4f7264657220737461747573206d7573742062652073746174757320434f4e4660008201527f49524d4544000000000000000000000000000000000000000000000000000000602082015250565b6000612f94602583612ebb565b9150612f9f82612f38565b604082019050919050565b60006020820190508181036000830152612fc381612f87565b9050919050565b7f4e487b7100000000000000000000000000000000000000000000000000000000600052601160045260246000fd5b600061300482612a93565b915061300f83612a93565b925082820261301d81612a93565b9150828204841483151761303457613033612fca565b5b5092915050565b7f50726573656e742074696d65206d75737420626520677265617465722064656160008201527f646c696e65000000000000000000000000000000000000000000000000000000602082015250565b6000613097602583612ebb565b91506130a28261303b565b604082019050919050565b600060208201905081810360008301526130c68161308a565b9050919050565b7f42616c616e6365206f66206f72646572206973206e6f7420656e6f7567680000600082015250565b6000613103601e83612ebb565b915061310e826130cd565b602082019050919050565b60006020820190508181036000830152613132816130f6565b9050919050565b600061314482612a52565b9050919050565b61315481613139565b82525050565b600060808201905061316f6000830187612c9e565b61317c602083018661314b565b6131896040830185612c74565b6131966060830184612e4c565b95945050505050565b7f4f7264657220737461747573206d75737420626520737461747573205245545560008201527f524e000000000000000000000000000000000000000000000000000000000000602082015250565b60006131fb602283612ebb565b91506132068261319f565b604082019050919050565b6000602082019050818103600083015261322a816131ee565b9050919050565b600061323c82612a93565b915061324783612a93565b925082820390508181111561325f5761325e612fca565b5b92915050565b600060c08201905061327a6000830189612c9e565b613287602083018861314b565b6132946040830187612c74565b6132a1606083018661314b565b6132ae6080830185612c74565b6132bb60a0830184612e4c565b979650505050505050565b7f4f7264657220737461747573206d757374206265207374617475732050454e4460008201527f494e470000000000000000000000000000000000000000000000000000000000602082015250565b6000613322602383612ebb565b915061332d826132c6565b604082019050919050565b6000602082019050818103600083015261335181613315565b9050919050565b7f56616c7565206d75737420626520677265617465722030000000000000000000600082015250565b600061338e601783612ebb565b915061339982613358565b602082019050919050565b600060208201905081810360008301526133bd81613381565b9050919050565b7f42616c616e6365206f66206163636f756e74206973206e6f7420656e6f756768600082015250565b60006133fa602083612ebb565b9150613405826133c4565b602082019050919050565b60006020820190508181036000830152613429816133ed565b9050919050565b7f56616c7565206d75737420626520657175616c20746f74616c50726963650000600082015250565b6000613466601e83612ebb565b915061347182613430565b602082019050919050565b6000602082019050818103600083015261349581613459565b9050919050565b60006080820190506134b16000830187612c9e565b6134be6020830186612c9e565b6134cb6040830185612c74565b6134d86060830184612e4c565b9594505050505056fea2646970667358221220ba6aa7df490f9b35f6caee5579306cc0ec6df0a8b1005cf31da11b1b2253261464736f6c63430008110033a2646970667358221220ceef6bf521e454419bdd3009324a5b0cf2a26db31706b8666c5b77da443bbc7464736f6c63430008110033",
  "immutableReferences": {},
  "source": "// SPDX-License-Identifier: GPL-3.0\r\n\r\npragma solidity >=0.7.0 <0.9.0;\r\nimport \"./Order.sol\";\r\n\r\ncontract Warehouse {\r\n    address[] public listOrder;\r\n    address public owner;\r\n\r\n    constructor() payable {\r\n        owner = msg.sender;\r\n    }\r\n\r\n    event createOrder(\r\n        address orderAddress, \r\n        address owner,\r\n        address seller,\r\n        uint256 totalPrice,\r\n        uint256 shippingPrice,\r\n        uint256 totalProduct,\r\n        uint256 dealine\r\n    );\r\n\r\n    function getOwner() public view returns (address) {\r\n        return owner;\r\n    }\r\n\r\n    function addOrder(address seller, uint256 totalPrice, uint256 totalProduct, uint256 shippingPrice, uint256 deadline) public payable returns (bool) {\r\n        require(totalPrice > 0, \"totalPrice must be greater than zero\");\r\n        Order order = new Order(msg.sender, seller, totalPrice, shippingPrice, totalProduct, deadline);\r\n        listOrder.push(address(order));\r\n        emit createOrder(\r\n            order.getAddress(),\r\n            msg.sender,\r\n            seller,\r\n            totalPrice, \r\n            shippingPrice,\r\n            totalProduct,\r\n            deadline\r\n        );\r\n        return true;\r\n    }\r\n\r\n    function getAllOrder() public view returns (address[] memory) {\r\n        return listOrder;\r\n    }\r\n\r\n    function getOrderInfo(address _address)\r\n        private\r\n        view\r\n        returns (Order.OrderInfo memory)\r\n    {\r\n        Order order = Order(_address);\r\n        return order.getOrderInfo();\r\n    }\r\n\r\n    function getOrderPerCompany(address _addressCompany) public view returns (Order.OrderInfo[] memory) {\r\n        uint256 totalResult;\r\n        uint256 totalOrder = listOrder.length;\r\n\r\n        for (uint256 i = 0; i < totalOrder; i++) {\r\n            Order.OrderInfo memory orderDetail;\r\n            orderDetail = getOrderInfo(listOrder[i]);\r\n            if(orderDetail.seller == _addressCompany || orderDetail.buyer == _addressCompany) {\r\n                totalResult++; \r\n            }\r\n        }\r\n        Order.OrderInfo[] memory orderPerCompany = new Order.OrderInfo[](totalResult);\r\n        uint256 j;\r\n        for (uint256 i = 0; i < totalOrder; i++) {\r\n            Order.OrderInfo memory orderDetail;\r\n            orderDetail = getOrderInfo(listOrder[i]);\r\n            if(orderDetail.seller == _addressCompany || orderDetail.buyer == _addressCompany) {\r\n                orderPerCompany[j] = orderDetail;\r\n                j++;\r\n            }\r\n        }\r\n\r\n        return orderPerCompany;\r\n    }\r\n}",
  "sourcePath": "E:\\ATN-2022\\Warehouse-Protection\\warehouse-fe-blockchain\\contracts\\Warehouse.sol",
  "compiler": {
    "name": "solc",
    "version": "0.8.17+commit.8df45f5f.Emscripten.clang"
  },
  "schemaVersion": "3.4.10",
  "updatedAt": "2022-12-04T18:58:13.430Z",
  "networkType": "ethereum",
  "devdoc": {
    "kind": "dev",
    "methods": {},
    "version": 1
  },
  "userdoc": {
    "kind": "user",
    "methods": {},
    "version": 1
  }
}