{
  "contractName": "Warehouse",
  "abi": [
    {
      "inputs": [],
      "stateMutability": "payable",
      "type": "constructor",
      "payable": true
    },
    {
      "anonymous": false,
      "inputs": [
        {
          "indexed": false,
          "internalType": "address",
          "name": "orderAddress",
          "type": "address"
        },
        {
          "indexed": false,
          "internalType": "address",
          "name": "owner",
          "type": "address"
        },
        {
          "indexed": false,
          "internalType": "address",
          "name": "seller",
          "type": "address"
        }
      ],
      "name": "createOrder",
      "type": "event"
    },
    {
      "inputs": [
        {
          "internalType": "uint256",
          "name": "",
          "type": "uint256"
        }
      ],
      "name": "listOrder",
      "outputs": [
        {
          "internalType": "address",
          "name": "",
          "type": "address"
        }
      ],
      "stateMutability": "view",
      "type": "function",
      "constant": true
    },
    {
      "inputs": [],
      "name": "owner",
      "outputs": [
        {
          "internalType": "address",
          "name": "",
          "type": "address"
        }
      ],
      "stateMutability": "view",
      "type": "function",
      "constant": true
    },
    {
      "inputs": [],
      "name": "getOwner",
      "outputs": [
        {
          "internalType": "address",
          "name": "",
          "type": "address"
        }
      ],
      "stateMutability": "view",
      "type": "function",
      "constant": true
    },
    {
      "inputs": [
        {
          "internalType": "address",
          "name": "seller",
          "type": "address"
        },
        {
          "internalType": "uint256",
          "name": "totalProduct",
          "type": "uint256"
        },
        {
          "internalType": "uint256",
          "name": "shippingPrice",
          "type": "uint256"
        },
        {
          "internalType": "uint256",
          "name": "deadline",
          "type": "uint256"
        }
      ],
      "name": "addOrder",
      "outputs": [
        {
          "internalType": "bool",
          "name": "",
          "type": "bool"
        }
      ],
      "stateMutability": "nonpayable",
      "type": "function"
    },
    {
      "inputs": [],
      "name": "getAllOrder",
      "outputs": [
        {
          "internalType": "address[]",
          "name": "",
          "type": "address[]"
        }
      ],
      "stateMutability": "view",
      "type": "function",
      "constant": true
    },
    {
      "inputs": [
        {
          "internalType": "address",
          "name": "_addressCompany",
          "type": "address"
        }
      ],
      "name": "getOrderPerCompany",
      "outputs": [
        {
          "components": [
            {
              "internalType": "address",
              "name": "orderAddress",
              "type": "address"
            },
            {
              "internalType": "address",
              "name": "buyer",
              "type": "address"
            },
            {
              "internalType": "address",
              "name": "seller",
              "type": "address"
            },
            {
              "internalType": "uint256",
              "name": "totalPrice",
              "type": "uint256"
            },
            {
              "internalType": "uint256",
              "name": "shippingPrice",
              "type": "uint256"
            },
            {
              "internalType": "uint256",
              "name": "totalProduct",
              "type": "uint256"
            },
            {
              "internalType": "enum Order.order_status",
              "name": "state",
              "type": "uint8"
            },
            {
              "internalType": "uint256",
              "name": "purchaseTime",
              "type": "uint256"
            },
            {
              "internalType": "uint256",
              "name": "confirmedTime",
              "type": "uint256"
            },
            {
              "internalType": "uint256",
              "name": "cancelTime",
              "type": "uint256"
            },
            {
              "internalType": "uint256",
              "name": "paymentTime",
              "type": "uint256"
            },
            {
              "internalType": "uint256",
              "name": "returnTime",
              "type": "uint256"
            },
            {
              "internalType": "uint256",
              "name": "returnedTime",
              "type": "uint256"
            },
            {
              "internalType": "uint256",
              "name": "dealine",
              "type": "uint256"
            },
            {
              "internalType": "uint256",
              "name": "balance",
              "type": "uint256"
            }
          ],
          "internalType": "struct Order.OrderInfo[]",
          "name": "",
          "type": "tuple[]"
        }
      ],
      "stateMutability": "view",
      "type": "function",
      "constant": true
    }
  ],
  "bytecode": "0x608060405233600160006101000a81548173ffffffffffffffffffffffffffffffffffffffff021916908373ffffffffffffffffffffffffffffffffffffffff160217905550614b26806100546000396000f3fe60806040523480156200001157600080fd5b50600436106200006a5760003560e01c80633dfbbad4146200006f578063893d20e814620000915780638aa1136114620000b35780638da5cb5b14620000e9578063980dc482146200010b578063b12966271462000141575b600080fd5b6200007962000177565b604051620000889190620009d5565b60405180910390f35b6200009b62000207565b604051620000aa919062000a0a565b60405180910390f35b620000d16004803603810190620000cb919062000a71565b62000231565b604051620000e0919062000a0a565b60405180910390f35b620000f362000271565b60405162000102919062000a0a565b60405180910390f35b62000129600480360381019062000123919062000ad4565b62000297565b60405162000138919062000b63565b60405180910390f35b6200015f600480360381019062000159919062000b80565b620004cd565b6040516200016e919062000e54565b60405180910390f35b60606000805480602002602001604051908101604052809291908181526020018280548015620001fd57602002820191906000526020600020905b8160009054906101000a900473ffffffffffffffffffffffffffffffffffffffff1673ffffffffffffffffffffffffffffffffffffffff1681526020019060010190808311620001b2575b5050505050905090565b6000600160009054906101000a900473ffffffffffffffffffffffffffffffffffffffff16905090565b600081815481106200024257600080fd5b906000526020600020016000915054906101000a900473ffffffffffffffffffffffffffffffffffffffff1681565b600160009054906101000a900473ffffffffffffffffffffffffffffffffffffffff1681565b6000808411620002de576040517f08c379a0000000000000000000000000000000000000000000000000000000008152600401620002d59062000eff565b60405180910390fd5b6000831162000324576040517f08c379a00000000000000000000000000000000000000000000000000000000081526004016200031b9062000f97565b60405180910390fd5b600082116200036a576040517f08c379a0000000000000000000000000000000000000000000000000000000008152600401620003619062000eff565b60405180910390fd5b600033868587866040516200037f90620007f8565b6200038f95949392919062000fca565b604051809103906000f080158015620003ac573d6000803e3d6000fd5b5090506000819080600181540180825580915050600190039060005260206000200160009091909190916101000a81548173ffffffffffffffffffffffffffffffffffffffff021916908373ffffffffffffffffffffffffffffffffffffffff1602179055507f0cd3b2b4dda61e83de32d8fc2aee1fdec98027921248ae4889c27e8ba949cd7a8173ffffffffffffffffffffffffffffffffffffffff166338cc48316040518163ffffffff1660e01b8152600401602060405180830381865afa1580156200047f573d6000803e3d6000fd5b505050506040513d601f19601f82011682018060405250810190620004a591906200103e565b3388604051620004b89392919062001070565b60405180910390a16001915050949350505050565b6060600080600080549050905060005b81811015620005da57620004f062000806565b6200053c600083815481106200050b576200050a620010ad565b5b9060005260206000200160009054906101000a900473ffffffffffffffffffffffffffffffffffffffff166200076e565b90508573ffffffffffffffffffffffffffffffffffffffff16816040015173ffffffffffffffffffffffffffffffffffffffff161480620005ac57508573ffffffffffffffffffffffffffffffffffffffff16816020015173ffffffffffffffffffffffffffffffffffffffff16145b15620005c3578380620005bf906200110b565b9450505b508080620005d1906200110b565b915050620004dd565b5060008267ffffffffffffffff811115620005fa57620005f962001158565b5b6040519080825280602002602001820160405280156200063757816020015b6200062362000806565b815260200190600190039081620006195790505b509050600080600090505b8381101562000761576200065562000806565b620006a16000838154811062000670576200066f620010ad565b5b9060005260206000200160009054906101000a900473ffffffffffffffffffffffffffffffffffffffff166200076e565b90508773ffffffffffffffffffffffffffffffffffffffff16816040015173ffffffffffffffffffffffffffffffffffffffff1614806200071157508773ffffffffffffffffffffffffffffffffffffffff16816020015173ffffffffffffffffffffffffffffffffffffffff16145b156200074a57808484815181106200072e576200072d620010ad565b5b6020026020010181905250828062000746906200110b565b9350505b50808062000758906200110b565b91505062000642565b5081945050505050919050565b6200077862000806565b60008290508073ffffffffffffffffffffffffffffffffffffffff166301efb6c86040518163ffffffff1660e01b81526004016101e060405180830381865afa158015620007ca573d6000803e3d6000fd5b505050506040513d601f19601f82011682018060405250810190620007f09190620013b8565b915050919050565b61370580620013ec83390190565b604051806101e00160405280600073ffffffffffffffffffffffffffffffffffffffff168152602001600073ffffffffffffffffffffffffffffffffffffffff168152602001600073ffffffffffffffffffffffffffffffffffffffff1681526020016000815260200160008152602001600081526020016000600581111562000895576200089462000bef565b5b815260200160008152602001600081526020016000815260200160008152602001600081526020016000815260200160008152602001600081525090565b600081519050919050565b600082825260208201905092915050565b6000819050602082019050919050565b600073ffffffffffffffffffffffffffffffffffffffff82169050919050565b60006200092c82620008ff565b9050919050565b6200093e816200091f565b82525050565b600062000952838362000933565b60208301905092915050565b6000602082019050919050565b60006200097882620008d3565b620009848185620008de565b93506200099183620008ef565b8060005b83811015620009c8578151620009ac888262000944565b9750620009b9836200095e565b92505060018101905062000995565b5085935050505092915050565b60006020820190508181036000830152620009f181846200096b565b905092915050565b62000a04816200091f565b82525050565b600060208201905062000a216000830184620009f9565b92915050565b6000604051905090565b600080fd5b6000819050919050565b62000a4b8162000a36565b811462000a5757600080fd5b50565b60008135905062000a6b8162000a40565b92915050565b60006020828403121562000a8a5762000a8962000a31565b5b600062000a9a8482850162000a5a565b91505092915050565b62000aae816200091f565b811462000aba57600080fd5b50565b60008135905062000ace8162000aa3565b92915050565b6000806000806080858703121562000af15762000af062000a31565b5b600062000b018782880162000abd565b945050602062000b148782880162000a5a565b935050604062000b278782880162000a5a565b925050606062000b3a8782880162000a5a565b91505092959194509250565b60008115159050919050565b62000b5d8162000b46565b82525050565b600060208201905062000b7a600083018462000b52565b92915050565b60006020828403121562000b995762000b9862000a31565b5b600062000ba98482850162000abd565b91505092915050565b600081519050919050565b600082825260208201905092915050565b6000819050602082019050919050565b62000be98162000a36565b82525050565b7f4e487b7100000000000000000000000000000000000000000000000000000000600052602160045260246000fd5b6006811062000c325762000c3162000bef565b5b50565b600081905062000c458262000c1e565b919050565b600062000c578262000c35565b9050919050565b62000c698162000c4a565b82525050565b6101e08201600082015162000c88600085018262000933565b50602082015162000c9d602085018262000933565b50604082015162000cb2604085018262000933565b50606082015162000cc7606085018262000bde565b50608082015162000cdc608085018262000bde565b5060a082015162000cf160a085018262000bde565b5060c082015162000d0660c085018262000c5e565b5060e082015162000d1b60e085018262000bde565b5061010082015162000d3261010085018262000bde565b5061012082015162000d4961012085018262000bde565b5061014082015162000d6061014085018262000bde565b5061016082015162000d7761016085018262000bde565b5061018082015162000d8e61018085018262000bde565b506101a082015162000da56101a085018262000bde565b506101c082015162000dbc6101c085018262000bde565b50505050565b600062000dd0838362000c6f565b6101e08301905092915050565b6000602082019050919050565b600062000df78262000bb2565b62000e03818562000bbd565b935062000e108362000bce565b8060005b8381101562000e4757815162000e2b888262000dc2565b975062000e388362000ddd565b92505060018101905062000e14565b5085935050505092915050565b6000602082019050818103600083015262000e70818462000dea565b905092915050565b600082825260208201905092915050565b7f746f74616c50726f64756374206d75737420626520677265617465722074686160008201527f6e207a65726f0000000000000000000000000000000000000000000000000000602082015250565b600062000ee760268362000e78565b915062000ef48262000e89565b604082019050919050565b6000602082019050818103600083015262000f1a8162000ed8565b9050919050565b7f7368697070696e675072696365206d757374206265206772656174657220746860008201527f616e207a65726f00000000000000000000000000000000000000000000000000602082015250565b600062000f7f60278362000e78565b915062000f8c8262000f21565b604082019050919050565b6000602082019050818103600083015262000fb28162000f70565b9050919050565b62000fc48162000a36565b82525050565b600060a08201905062000fe16000830188620009f9565b62000ff06020830187620009f9565b62000fff604083018662000fb9565b6200100e606083018562000fb9565b6200101d608083018462000fb9565b9695505050505050565b600081519050620010388162000aa3565b92915050565b60006020828403121562001057576200105662000a31565b5b6000620010678482850162001027565b91505092915050565b6000606082019050620010876000830186620009f9565b620010966020830185620009f9565b620010a56040830184620009f9565b949350505050565b7f4e487b7100000000000000000000000000000000000000000000000000000000600052603260045260246000fd5b7f4e487b7100000000000000000000000000000000000000000000000000000000600052601160045260246000fd5b6000620011188262000a36565b91507fffffffffffffffffffffffffffffffffffffffffffffffffffffffffffffffff82036200114d576200114c620010dc565b5b600182019050919050565b7f4e487b7100000000000000000000000000000000000000000000000000000000600052604160045260246000fd5b600080fd5b6000601f19601f8301169050919050565b620011a8826200118c565b810181811067ffffffffffffffff82111715620011ca57620011c962001158565b5b80604052505050565b6000620011df62000a27565b9050620011ed82826200119d565b919050565b600081519050620012038162000a40565b92915050565b600681106200121757600080fd5b50565b6000815190506200122b8162001209565b92915050565b60006101e082840312156200124b576200124a62001187565b5b620012586101e0620011d3565b905060006200126a8482850162001027565b6000830152506020620012808482850162001027565b6020830152506040620012968482850162001027565b6040830152506060620012ac84828501620011f2565b6060830152506080620012c284828501620011f2565b60808301525060a0620012d884828501620011f2565b60a08301525060c0620012ee848285016200121a565b60c08301525060e06200130484828501620011f2565b60e0830152506101006200131b84828501620011f2565b610100830152506101206200133384828501620011f2565b610120830152506101406200134b84828501620011f2565b610140830152506101606200136384828501620011f2565b610160830152506101806200137b84828501620011f2565b610180830152506101a06200139384828501620011f2565b6101a0830152506101c0620013ab84828501620011f2565b6101c08301525092915050565b60006101e08284031215620013d257620013d162000a31565b5b6000620013e28482850162001231565b9150509291505056fe60806040523480156200001157600080fd5b50604051620037053803806200370583398181016040528101906200003791906200017d565b846000806101000a81548173ffffffffffffffffffffffffffffffffffffffff021916908373ffffffffffffffffffffffffffffffffffffffff16021790555083600160006101000a81548173ffffffffffffffffffffffffffffffffffffffff021916908373ffffffffffffffffffffffffffffffffffffffff160217905550826003819055508160048190555080600b81905550505050505062000205565b600080fd5b600073ffffffffffffffffffffffffffffffffffffffff82169050919050565b60006200010a82620000dd565b9050919050565b6200011c81620000fd565b81146200012857600080fd5b50565b6000815190506200013c8162000111565b92915050565b6000819050919050565b620001578162000142565b81146200016357600080fd5b50565b60008151905062000177816200014c565b92915050565b600080600080600060a086880312156200019c576200019b620000d8565b5b6000620001ac888289016200012b565b9550506020620001bf888289016200012b565b9450506040620001d28882890162000166565b9350506060620001e58882890162000166565b9250506080620001f88882890162000166565b9150509295509295909350565b6134f080620002156000396000f3fe6080604052600436106101665760003560e01c80638ac7d79c116100d1578063ab0d92dd1161008a578063cfe97dc411610064578063cfe97dc41461049e578063d6960697146104b5578063f710809b146104bf578063ff408833146104ff57610166565b8063ab0d92dd14610431578063b1988acf1461045c578063c19d93fb1461047357610166565b80638ac7d79c146103315780638e4b70101461035a578063921862a61461038557806398568366146103b0578063a6854f8e146103db578063a911715c1461040657610166565b8063566bceef11610123578063566bceef1461026d57806357b36929146102985780636f674685146102c157806370715030146102d857806381e4313914610303578063826ebf761461031a57610166565b806301efb6c81461016b5780630419677c1461019657806312065fe0146101c157806329dcb0cf146101ec57806338cc4831146102175780634e3cc1fe14610242575b600080fd5b34801561017757600080fd5b50610180610516565b60405161018d9190612c9d565b60405180910390f35b3480156101a257600080fd5b506101ab61064e565b6040516101b89190612cc8565b60405180910390f35b3480156101cd57600080fd5b506101d6610654565b6040516101e39190612cc8565b60405180910390f35b3480156101f857600080fd5b5061020161065c565b60405161020e9190612cc8565b60405180910390f35b34801561022357600080fd5b5061022c610662565b6040516102399190612cf2565b60405180910390f35b34801561024e57600080fd5b5061025761066a565b6040516102649190612cc8565b60405180910390f35b34801561027957600080fd5b50610282610670565b60405161028f9190612cc8565b60405180910390f35b3480156102a457600080fd5b506102bf60048036038101906102ba9190612d3e565b610676565b005b3480156102cd57600080fd5b506102d6610907565b005b3480156102e457600080fd5b506102ed610cdc565b6040516102fa9190612cc8565b60405180910390f35b34801561030f57600080fd5b50610318610ce2565b005b34801561032657600080fd5b5061032f6112a5565b005b34801561033d57600080fd5b5061035860048036038101906103539190612d3e565b611819565b005b34801561036657600080fd5b5061036f611aac565b60405161037c9190612cc8565b60405180910390f35b34801561039157600080fd5b5061039a611ab2565b6040516103a79190612e6f565b60405180910390f35b3480156103bc57600080fd5b506103c5611bbc565b6040516103d29190612cc8565b60405180910390f35b3480156103e757600080fd5b506103f0611bc2565b6040516103fd9190612cc8565b60405180910390f35b34801561041257600080fd5b5061041b611bc8565b6040516104289190612cc8565b60405180910390f35b34801561043d57600080fd5b50610446611bce565b6040516104539190612cc8565b60405180910390f35b34801561046857600080fd5b50610471611bd4565b005b34801561047f57600080fd5b50610488611f56565b6040516104959190612ea0565b60405180910390f35b3480156104aa57600080fd5b506104b3611f69565b005b6104bd61230e565b005b3480156104cb57600080fd5b506104e660048036038101906104e19190612d3e565b61264d565b6040516104f69493929190612ebb565b60405180910390f35b34801561050b57600080fd5b506105146126ba565b005b61051e6129cd565b604051806101e00160405280610532610662565b73ffffffffffffffffffffffffffffffffffffffff16815260200160008054906101000a900473ffffffffffffffffffffffffffffffffffffffff1673ffffffffffffffffffffffffffffffffffffffff168152602001600160009054906101000a900473ffffffffffffffffffffffffffffffffffffffff1673ffffffffffffffffffffffffffffffffffffffff168152602001600254815260200160035481526020016004548152602001600d60009054906101000a900460ff16600581111561060157610600612af1565b5b815260200160055481526020016006548152602001600754815260200160085481526020016009548152602001600a548152602001600b548152602001610646610654565b815250905090565b60085481565b600047905090565b600b5481565b600030905090565b600a5481565b60045481565b60008054906101000a900473ffffffffffffffffffffffffffffffffffffffff1673ffffffffffffffffffffffffffffffffffffffff163373ffffffffffffffffffffffffffffffffffffffff1614610704576040517f08c379a00000000000000000000000000000000000000000000000000000000081526004016106fb90612f5d565b60405180910390fd5b6001600581111561071857610717612af1565b5b600d60009054906101000a900460ff16600581111561073a57610739612af1565b5b1461077a576040517f08c379a000000000000000000000000000000000000000000000000000000000815260040161077190612fef565b60405180910390fd5b6004600d60006101000a81548160ff021916908360058111156107a05761079f612af1565b5b02179055504260098190555080600b81905550600060405180608001604052803373ffffffffffffffffffffffffffffffffffffffff16815260200160008152602001600d60009054906101000a900460ff16600581111561080557610804612af1565b5b81526020016009548152509050600c81908060018154018082558091505060019003906000526020600020906004020160009091909190915060008201518160000160006101000a81548173ffffffffffffffffffffffffffffffffffffffff021916908373ffffffffffffffffffffffffffffffffffffffff1602179055506020820151816001015560408201518160020160006101000a81548160ff021916908360058111156108ba576108b9612af1565b5b02179055506060820151816003015550507facca1bfa13be050eb725ae7a93cb25004ee04e61475ec23f75c143ee54e4939f60046040516108fb9190612ea0565b60405180910390a15050565b600b546103e842610918919061303e565b11610958576040517f08c379a000000000000000000000000000000000000000000000000000000000815260040161094f906130f2565b60405180910390fd5b600160009054906101000a900473ffffffffffffffffffffffffffffffffffffffff1673ffffffffffffffffffffffffffffffffffffffff163373ffffffffffffffffffffffffffffffffffffffff16146109e8576040517f08c379a00000000000000000000000000000000000000000000000000000000081526004016109df90612f5d565b60405180910390fd5b600160058111156109fc576109fb612af1565b5b600d60009054906101000a900460ff166005811115610a1e57610a1d612af1565b5b14610a5e576040517f08c379a0000000000000000000000000000000000000000000000000000000008152600401610a5590612fef565b60405180910390fd5b60004711610aa1576040517f08c379a0000000000000000000000000000000000000000000000000000000008152600401610a989061315e565b60405180910390fd5b600160009054906101000a900473ffffffffffffffffffffffffffffffffffffffff1673ffffffffffffffffffffffffffffffffffffffff166108fc479081150290604051600060405180830381858888f19350505050158015610b09573d6000803e3d6000fd5b506003600d60006101000a81548160ff02191690836005811115610b3057610b2f612af1565b5b02179055504260058190555060006040518060800160405280600160009054906101000a900473ffffffffffffffffffffffffffffffffffffffff1673ffffffffffffffffffffffffffffffffffffffff1681526020016002548152602001600d60009054906101000a900460ff166005811115610bb157610bb0612af1565b5b81526020016005548152509050600c81908060018154018082558091505060019003906000526020600020906004020160009091909190915060008201518160000160006101000a81548173ffffffffffffffffffffffffffffffffffffffff021916908373ffffffffffffffffffffffffffffffffffffffff1602179055506020820151816001015560408201518160020160006101000a81548160ff02191690836005811115610c6657610c65612af1565b5b02179055506060820151816003015550507fce244a866e4105e01f5daf8b8de5810a6fdd632afd98f0d08499423441c1a31630600160009054906101000a900473ffffffffffffffffffffffffffffffffffffffff166002546003604051610cd1949392919061319f565b60405180910390a150565b60035481565b600b546103e842610cf3919061303e565b11610d33576040517f08c379a0000000000000000000000000000000000000000000000000000000008152600401610d2a906130f2565b60405180910390fd5b60008054906101000a900473ffffffffffffffffffffffffffffffffffffffff1673ffffffffffffffffffffffffffffffffffffffff163373ffffffffffffffffffffffffffffffffffffffff1614610dc1576040517f08c379a0000000000000000000000000000000000000000000000000000000008152600401610db890612f5d565b60405180910390fd5b60046005811115610dd557610dd4612af1565b5b600d60009054906101000a900460ff166005811115610df757610df6612af1565b5b14610e37576040517f08c379a0000000000000000000000000000000000000000000000000000000008152600401610e2e90613256565b60405180910390fd5b60004711610e7a576040517f08c379a0000000000000000000000000000000000000000000000000000000008152600401610e719061315e565b60405180910390fd5b6005600d60006101000a81548160ff02191690836005811115610ea057610e9f612af1565b5b021790555042600a81905550600160009054906101000a900473ffffffffffffffffffffffffffffffffffffffff1673ffffffffffffffffffffffffffffffffffffffff166108fc6003549081150290604051600060405180830381858888f19350505050158015610f16573d6000803e3d6000fd5b5060006040518060800160405280600160009054906101000a900473ffffffffffffffffffffffffffffffffffffffff1673ffffffffffffffffffffffffffffffffffffffff1681526020016003548152602001600d60009054906101000a900460ff166005811115610f8c57610f8b612af1565b5b8152602001600a548152509050600c81908060018154018082558091505060019003906000526020600020906004020160009091909190915060008201518160000160006101000a81548173ffffffffffffffffffffffffffffffffffffffff021916908373ffffffffffffffffffffffffffffffffffffffff1602179055506020820151816001015560408201518160020160006101000a81548160ff0219169083600581111561104157611040612af1565b5b021790555060608201518160030155505060008054906101000a900473ffffffffffffffffffffffffffffffffffffffff1673ffffffffffffffffffffffffffffffffffffffff166108fc6003544761109a9190613276565b9081150290604051600060405180830381858888f193505050501580156110c5573d6000803e3d6000fd5b506000604051806080016040528060008054906101000a900473ffffffffffffffffffffffffffffffffffffffff1673ffffffffffffffffffffffffffffffffffffffff16815260200160035460025461111f9190613276565b8152602001600d60009054906101000a900460ff16600581111561114657611145612af1565b5b8152602001600a548152509050600c81908060018154018082558091505060019003906000526020600020906004020160009091909190915060008201518160000160006101000a81548173ffffffffffffffffffffffffffffffffffffffff021916908373ffffffffffffffffffffffffffffffffffffffff1602179055506020820151816001015560408201518160020160006101000a81548160ff021916908360058111156111fb576111fa612af1565b5b02179055506060820151816003015550507fab7091e501a850216686bfcc48e21aeb92fd7ad3e559933b25e6b98f4a502e6c3060008054906101000a900473ffffffffffffffffffffffffffffffffffffffff1660035460025461125f9190613276565b600160009054906101000a900473ffffffffffffffffffffffffffffffffffffffff166003546005604051611299969594939291906132aa565b60405180910390a15050565b600160009054906101000a900473ffffffffffffffffffffffffffffffffffffffff1673ffffffffffffffffffffffffffffffffffffffff163373ffffffffffffffffffffffffffffffffffffffff1614611335576040517f08c379a000000000000000000000000000000000000000000000000000000000815260040161132c90612f5d565b60405180910390fd5b60004711611378576040517f08c379a000000000000000000000000000000000000000000000000000000000815260040161136f9061315e565b60405180910390fd5b6004600581111561138c5761138b612af1565b5b600d60009054906101000a900460ff1660058111156113ae576113ad612af1565b5b146113ee576040517f08c379a00000000000000000000000000000000000000000000000000000000081526004016113e590613256565b60405180910390fd5b6005600d60006101000a81548160ff0219169083600581111561141457611413612af1565b5b021790555042600a81905550600160009054906101000a900473ffffffffffffffffffffffffffffffffffffffff1673ffffffffffffffffffffffffffffffffffffffff166108fc6003549081150290604051600060405180830381858888f1935050505015801561148a573d6000803e3d6000fd5b5060006040518060800160405280600160009054906101000a900473ffffffffffffffffffffffffffffffffffffffff1673ffffffffffffffffffffffffffffffffffffffff1681526020016003548152602001600d60009054906101000a900460ff166005811115611500576114ff612af1565b5b8152602001600a548152509050600c81908060018154018082558091505060019003906000526020600020906004020160009091909190915060008201518160000160006101000a81548173ffffffffffffffffffffffffffffffffffffffff021916908373ffffffffffffffffffffffffffffffffffffffff1602179055506020820151816001015560408201518160020160006101000a81548160ff021916908360058111156115b5576115b4612af1565b5b021790555060608201518160030155505060008054906101000a900473ffffffffffffffffffffffffffffffffffffffff1673ffffffffffffffffffffffffffffffffffffffff166108fc6003544761160e9190613276565b9081150290604051600060405180830381858888f19350505050158015611639573d6000803e3d6000fd5b506000604051806080016040528060008054906101000a900473ffffffffffffffffffffffffffffffffffffffff1673ffffffffffffffffffffffffffffffffffffffff1681526020016003546002546116939190613276565b8152602001600d60009054906101000a900460ff1660058111156116ba576116b9612af1565b5b8152602001600a548152509050600c81908060018154018082558091505060019003906000526020600020906004020160009091909190915060008201518160000160006101000a81548173ffffffffffffffffffffffffffffffffffffffff021916908373ffffffffffffffffffffffffffffffffffffffff1602179055506020820151816001015560408201518160020160006101000a81548160ff0219169083600581111561176f5761176e612af1565b5b02179055506060820151816003015550507fab7091e501a850216686bfcc48e21aeb92fd7ad3e559933b25e6b98f4a502e6c3060008054906101000a900473ffffffffffffffffffffffffffffffffffffffff166003546002546117d39190613276565b600160009054906101000a900473ffffffffffffffffffffffffffffffffffffffff16600354600560405161180d969594939291906132aa565b60405180910390a15050565b600160009054906101000a900473ffffffffffffffffffffffffffffffffffffffff1673ffffffffffffffffffffffffffffffffffffffff163373ffffffffffffffffffffffffffffffffffffffff16146118a9576040517f08c379a00000000000000000000000000000000000000000000000000000000081526004016118a090612f5d565b60405180910390fd5b600060058111156118bd576118bc612af1565b5b600d60009054906101000a900460ff1660058111156118df576118de612af1565b5b1461191f576040517f08c379a00000000000000000000000000000000000000000000000000000000081526004016119169061337d565b60405180910390fd5b6001600d60006101000a81548160ff0219169083600581111561194557611944612af1565b5b02179055504260068190555080600b81905550600060405180608001604052803373ffffffffffffffffffffffffffffffffffffffff16815260200160008152602001600d60009054906101000a900460ff1660058111156119aa576119a9612af1565b5b81526020016006548152509050600c81908060018154018082558091505060019003906000526020600020906004020160009091909190915060008201518160000160006101000a81548173ffffffffffffffffffffffffffffffffffffffff021916908373ffffffffffffffffffffffffffffffffffffffff1602179055506020820151816001015560408201518160020160006101000a81548160ff02191690836005811115611a5f57611a5e612af1565b5b02179055506060820151816003015550507f9da956bcab8fa91336320efb87c683b4536b21e701ba93b99780cd10c11d0dcd6001604051611aa09190612ea0565b60405180910390a15050565b60055481565b60606000600c805480602002602001604051908101604052809291908181526020016000905b82821015611baf57838290600052602060002090600402016040518060800160405290816000820160009054906101000a900473ffffffffffffffffffffffffffffffffffffffff1673ffffffffffffffffffffffffffffffffffffffff1673ffffffffffffffffffffffffffffffffffffffff168152602001600182015481526020016002820160009054906101000a900460ff166005811115611b8057611b7f612af1565b5b6005811115611b9257611b91612af1565b5b815260200160038201548152505081526020019060010190611ad8565b5050505090508091505090565b60095481565b60065481565b60075481565b60025481565b60008054906101000a900473ffffffffffffffffffffffffffffffffffffffff1673ffffffffffffffffffffffffffffffffffffffff163373ffffffffffffffffffffffffffffffffffffffff1614611c62576040517f08c379a0000000000000000000000000000000000000000000000000000000008152600401611c5990612f5d565b60405180910390fd5b60004711611ca5576040517f08c379a0000000000000000000000000000000000000000000000000000000008152600401611c9c9061315e565b60405180910390fd5b60016005811115611cb957611cb8612af1565b5b600d60009054906101000a900460ff166005811115611cdb57611cda612af1565b5b14611d1b576040517f08c379a0000000000000000000000000000000000000000000000000000000008152600401611d1290612fef565b60405180910390fd5b600160009054906101000a900473ffffffffffffffffffffffffffffffffffffffff1673ffffffffffffffffffffffffffffffffffffffff166108fc479081150290604051600060405180830381858888f19350505050158015611d83573d6000803e3d6000fd5b506003600d60006101000a81548160ff02191690836005811115611daa57611da9612af1565b5b02179055504260088190555060006040518060800160405280600160009054906101000a900473ffffffffffffffffffffffffffffffffffffffff1673ffffffffffffffffffffffffffffffffffffffff1681526020016002548152602001600d60009054906101000a900460ff166005811115611e2b57611e2a612af1565b5b81526020016008548152509050600c81908060018154018082558091505060019003906000526020600020906004020160009091909190915060008201518160000160006101000a81548173ffffffffffffffffffffffffffffffffffffffff021916908373ffffffffffffffffffffffffffffffffffffffff1602179055506020820151816001015560408201518160020160006101000a81548160ff02191690836005811115611ee057611edf612af1565b5b02179055506060820151816003015550507fce244a866e4105e01f5daf8b8de5810a6fdd632afd98f0d08499423441c1a31630600160009054906101000a900473ffffffffffffffffffffffffffffffffffffffff166002546003604051611f4b949392919061319f565b60405180910390a150565b600d60009054906101000a900460ff1681565b600b546103e842611f7a919061303e565b11611fba576040517f08c379a0000000000000000000000000000000000000000000000000000000008152600401611fb1906130f2565b60405180910390fd5b60008054906101000a900473ffffffffffffffffffffffffffffffffffffffff1673ffffffffffffffffffffffffffffffffffffffff163373ffffffffffffffffffffffffffffffffffffffff1614612048576040517f08c379a000000000000000000000000000000000000000000000000000000000815260040161203f90612f5d565b60405180910390fd5b6000600581111561205c5761205b612af1565b5b600d60009054906101000a900460ff16600581111561207e5761207d612af1565b5b146120be576040517f08c379a00000000000000000000000000000000000000000000000000000000081526004016120b59061337d565b60405180910390fd5b60004711612101576040517f08c379a00000000000000000000000000000000000000000000000000000000081526004016120f89061315e565b60405180910390fd5b60008054906101000a900473ffffffffffffffffffffffffffffffffffffffff1673ffffffffffffffffffffffffffffffffffffffff166108fc479081150290604051600060405180830381858888f19350505050158015612167573d6000803e3d6000fd5b506002600d60006101000a81548160ff0219169083600581111561218e5761218d612af1565b5b0217905550426007819055506000604051806080016040528060008054906101000a900473ffffffffffffffffffffffffffffffffffffffff1673ffffffffffffffffffffffffffffffffffffffff1681526020016002548152602001600d60009054906101000a900460ff16600581111561220d5761220c612af1565b5b81526020016007548152509050600c81908060018154018082558091505060019003906000526020600020906004020160009091909190915060008201518160000160006101000a81548173ffffffffffffffffffffffffffffffffffffffff021916908373ffffffffffffffffffffffffffffffffffffffff1602179055506020820151816001015560408201518160020160006101000a81548160ff021916908360058111156122c2576122c1612af1565b5b02179055506060820151816003015550507f39b22c6fe987e72c777e4ce25a6e4e9a473cc255b6a6cc6ff01b6bc56982eea460026040516123039190612ea0565b60405180910390a150565b60008054906101000a900473ffffffffffffffffffffffffffffffffffffffff1673ffffffffffffffffffffffffffffffffffffffff163373ffffffffffffffffffffffffffffffffffffffff161461239c576040517f08c379a000000000000000000000000000000000000000000000000000000000815260040161239390612f5d565b60405180910390fd5b600060058111156123b0576123af612af1565b5b600d60009054906101000a900460ff1660058111156123d2576123d1612af1565b5b14612412576040517f08c379a00000000000000000000000000000000000000000000000000000000081526004016124099061337d565b60405180910390fd5b60003411612455576040517f08c379a000000000000000000000000000000000000000000000000000000000815260040161244c906133e9565b60405180910390fd5b343373ffffffffffffffffffffffffffffffffffffffff1631116124ae576040517f08c379a00000000000000000000000000000000000000000000000000000000081526004016124a590613455565b60405180910390fd5b34600281905550426005819055506000600d60006101000a81548160ff021916908360058111156124e2576124e1612af1565b5b0217905550600060405180608001604052806124fc610662565b73ffffffffffffffffffffffffffffffffffffffff168152602001348152602001600d60009054906101000a900460ff16600581111561253f5761253e612af1565b5b81526020016005548152509050600c81908060018154018082558091505060019003906000526020600020906004020160009091909190915060008201518160000160006101000a81548173ffffffffffffffffffffffffffffffffffffffff021916908373ffffffffffffffffffffffffffffffffffffffff1602179055506020820151816001015560408201518160020160006101000a81548160ff021916908360058111156125f4576125f3612af1565b5b02179055506060820151816003015550507fc20bc9ac6bb8fd7d3c66da8c0a5b5828a145aca18b25f4b2843562a2146650d23361262f610662565b3460006040516126429493929190613475565b60405180910390a150565b600c818154811061265d57600080fd5b90600052602060002090600402016000915090508060000160009054906101000a900473ffffffffffffffffffffffffffffffffffffffff16908060010154908060020160009054906101000a900460ff16908060030154905084565b600160009054906101000a900473ffffffffffffffffffffffffffffffffffffffff1673ffffffffffffffffffffffffffffffffffffffff163373ffffffffffffffffffffffffffffffffffffffff161461274a576040517f08c379a000000000000000000000000000000000000000000000000000000000815260040161274190612f5d565b60405180910390fd5b6000600581111561275e5761275d612af1565b5b600d60009054906101000a900460ff1660058111156127805761277f612af1565b5b146127c0576040517f08c379a00000000000000000000000000000000000000000000000000000000081526004016127b79061337d565b60405180910390fd5b60008054906101000a900473ffffffffffffffffffffffffffffffffffffffff1673ffffffffffffffffffffffffffffffffffffffff166108fc479081150290604051600060405180830381858888f19350505050158015612826573d6000803e3d6000fd5b506002600d60006101000a81548160ff0219169083600581111561284d5761284c612af1565b5b0217905550426007819055506000604051806080016040528060008054906101000a900473ffffffffffffffffffffffffffffffffffffffff1673ffffffffffffffffffffffffffffffffffffffff1681526020016002548152602001600d60009054906101000a900460ff1660058111156128cc576128cb612af1565b5b81526020016007548152509050600c81908060018154018082558091505060019003906000526020600020906004020160009091909190915060008201518160000160006101000a81548173ffffffffffffffffffffffffffffffffffffffff021916908373ffffffffffffffffffffffffffffffffffffffff1602179055506020820151816001015560408201518160020160006101000a81548160ff0219169083600581111561298157612980612af1565b5b02179055506060820151816003015550507f39b22c6fe987e72c777e4ce25a6e4e9a473cc255b6a6cc6ff01b6bc56982eea460026040516129c29190612ea0565b60405180910390a150565b604051806101e00160405280600073ffffffffffffffffffffffffffffffffffffffff168152602001600073ffffffffffffffffffffffffffffffffffffffff168152602001600073ffffffffffffffffffffffffffffffffffffffff16815260200160008152602001600081526020016000815260200160006005811115612a5957612a58612af1565b5b815260200160008152602001600081526020016000815260200160008152602001600081526020016000815260200160008152602001600081525090565b600073ffffffffffffffffffffffffffffffffffffffff82169050919050565b6000612ac282612a97565b9050919050565b612ad281612ab7565b82525050565b6000819050919050565b612aeb81612ad8565b82525050565b7f4e487b7100000000000000000000000000000000000000000000000000000000600052602160045260246000fd5b60068110612b3157612b30612af1565b5b50565b6000819050612b4282612b20565b919050565b6000612b5282612b34565b9050919050565b612b6281612b47565b82525050565b6101e082016000820151612b7f6000850182612ac9565b506020820151612b926020850182612ac9565b506040820151612ba56040850182612ac9565b506060820151612bb86060850182612ae2565b506080820151612bcb6080850182612ae2565b5060a0820151612bde60a0850182612ae2565b5060c0820151612bf160c0850182612b59565b5060e0820151612c0460e0850182612ae2565b50610100820151612c19610100850182612ae2565b50610120820151612c2e610120850182612ae2565b50610140820151612c43610140850182612ae2565b50610160820151612c58610160850182612ae2565b50610180820151612c6d610180850182612ae2565b506101a0820151612c826101a0850182612ae2565b506101c0820151612c976101c0850182612ae2565b50505050565b60006101e082019050612cb36000830184612b68565b92915050565b612cc281612ad8565b82525050565b6000602082019050612cdd6000830184612cb9565b92915050565b612cec81612ab7565b82525050565b6000602082019050612d076000830184612ce3565b92915050565b600080fd5b612d1b81612ad8565b8114612d2657600080fd5b50565b600081359050612d3881612d12565b92915050565b600060208284031215612d5457612d53612d0d565b5b6000612d6284828501612d29565b91505092915050565b600081519050919050565b600082825260208201905092915050565b6000819050602082019050919050565b608082016000820151612dad6000850182612ac9565b506020820151612dc06020850182612ae2565b506040820151612dd36040850182612b59565b506060820151612de66060850182612ae2565b50505050565b6000612df88383612d97565b60808301905092915050565b6000602082019050919050565b6000612e1c82612d6b565b612e268185612d76565b9350612e3183612d87565b8060005b83811015612e62578151612e498882612dec565b9750612e5483612e04565b925050600181019050612e35565b5085935050505092915050565b60006020820190508181036000830152612e898184612e11565b905092915050565b612e9a81612b47565b82525050565b6000602082019050612eb56000830184612e91565b92915050565b6000608082019050612ed06000830187612ce3565b612edd6020830186612cb9565b612eea6040830185612e91565b612ef76060830184612cb9565b95945050505050565b600082825260208201905092915050565b7f4e6f74207065726d697373696f6e000000000000000000000000000000000000600082015250565b6000612f47600e83612f00565b9150612f5282612f11565b602082019050919050565b60006020820190508181036000830152612f7681612f3a565b9050919050565b7f4f7264657220737461747573206d7573742062652073746174757320434f4e4660008201527f49524d4544000000000000000000000000000000000000000000000000000000602082015250565b6000612fd9602583612f00565b9150612fe482612f7d565b604082019050919050565b6000602082019050818103600083015261300881612fcc565b9050919050565b7f4e487b7100000000000000000000000000000000000000000000000000000000600052601160045260246000fd5b600061304982612ad8565b915061305483612ad8565b925082820261306281612ad8565b915082820484148315176130795761307861300f565b5b5092915050565b7f50726573656e742074696d65206d75737420626520677265617465722064656160008201527f646c696e65000000000000000000000000000000000000000000000000000000602082015250565b60006130dc602583612f00565b91506130e782613080565b604082019050919050565b6000602082019050818103600083015261310b816130cf565b9050919050565b7f42616c616e6365206f66206f72646572206973206e6f7420656e6f7567680000600082015250565b6000613148601e83612f00565b915061315382613112565b602082019050919050565b600060208201905081810360008301526131778161313b565b9050919050565b600061318982612a97565b9050919050565b6131998161317e565b82525050565b60006080820190506131b46000830187612ce3565b6131c16020830186613190565b6131ce6040830185612cb9565b6131db6060830184612e91565b95945050505050565b7f4f7264657220737461747573206d75737420626520737461747573205245545560008201527f524e000000000000000000000000000000000000000000000000000000000000602082015250565b6000613240602283612f00565b915061324b826131e4565b604082019050919050565b6000602082019050818103600083015261326f81613233565b9050919050565b600061328182612ad8565b915061328c83612ad8565b92508282039050818111156132a4576132a361300f565b5b92915050565b600060c0820190506132bf6000830189612ce3565b6132cc6020830188613190565b6132d96040830187612cb9565b6132e66060830186613190565b6132f36080830185612cb9565b61330060a0830184612e91565b979650505050505050565b7f4f7264657220737461747573206d757374206265207374617475732050454e4460008201527f494e470000000000000000000000000000000000000000000000000000000000602082015250565b6000613367602383612f00565b91506133728261330b565b604082019050919050565b600060208201905081810360008301526133968161335a565b9050919050565b7f56616c7565206d75737420626520677265617465722030000000000000000000600082015250565b60006133d3601783612f00565b91506133de8261339d565b602082019050919050565b60006020820190508181036000830152613402816133c6565b9050919050565b7f42616c616e6365206f66206163636f756e74206973206e6f7420656e6f756768600082015250565b600061343f602083612f00565b915061344a82613409565b602082019050919050565b6000602082019050818103600083015261346e81613432565b9050919050565b600060808201905061348a6000830187612ce3565b6134976020830186612ce3565b6134a46040830185612cb9565b6134b16060830184612e91565b9594505050505056fea2646970667358221220e3b4691c8c58f691536bebcbc66abc1d6bed976833615a6b442a16278e7fc7df64736f6c63430008110033a2646970667358221220891c44a1fc4ef40933bb8ca5fc7c9c55ebec73ad84b6482f0ede836e065e2f2d64736f6c63430008110033",
  "immutableReferences": {},
  "source": "// SPDX-License-Identifier: GPL-3.0\r\n\r\npragma solidity >=0.7.0 <0.9.0;\r\nimport \"./Order.sol\";\r\n\r\ncontract Warehouse {\r\n    address[] public listOrder;\r\n    address public owner;\r\n\r\n    constructor() payable {\r\n        owner = msg.sender;\r\n    }\r\n\r\n    event createOrder(\r\n        address orderAddress, \r\n        address owner,\r\n        address seller\r\n    );\r\n\r\n    function getOwner() public view returns (address) {\r\n        return owner;\r\n    }\r\n\r\n    function addOrder(address seller, uint256 totalProduct, uint256 shippingPrice, uint256 deadline) \r\n        public \r\n        returns \r\n        (bool) \r\n    {\r\n        require(totalProduct > 0, \"totalProduct must be greater than zero\");\r\n        require(shippingPrice > 0, \"shippingPrice must be greater than zero\");\r\n        require(deadline > 0, \"totalProduct must be greater than zero\");\r\n        Order order = new Order(msg.sender, seller, shippingPrice, totalProduct, deadline);\r\n        listOrder.push(address(order));\r\n        emit createOrder(\r\n            order.getAddress(),\r\n            msg.sender,\r\n            seller\r\n        );\r\n        return true;\r\n    }\r\n\r\n    function getAllOrder() public view returns (address[] memory) {\r\n        return listOrder;\r\n    }\r\n\r\n    function getOrderInfo(address _address)\r\n        private\r\n        view\r\n        returns (Order.OrderInfo memory)\r\n    {\r\n        Order order = Order(_address);\r\n        return order.getOrderInfo();\r\n    }\r\n\r\n    function getOrderPerCompany(address _addressCompany) public view returns (Order.OrderInfo[] memory) {\r\n        uint256 totalResult;\r\n        uint256 totalOrder = listOrder.length;\r\n\r\n        for (uint256 i = 0; i < totalOrder; i++) {\r\n            Order.OrderInfo memory orderDetail;\r\n            orderDetail = getOrderInfo(listOrder[i]);\r\n            if(orderDetail.seller == _addressCompany || orderDetail.buyer == _addressCompany) {\r\n                totalResult++; \r\n            }\r\n        }\r\n        Order.OrderInfo[] memory orderPerCompany = new Order.OrderInfo[](totalResult);\r\n        uint256 j;\r\n        for (uint256 i = 0; i < totalOrder; i++) {\r\n            Order.OrderInfo memory orderDetail;\r\n            orderDetail = getOrderInfo(listOrder[i]);\r\n            if(orderDetail.seller == _addressCompany || orderDetail.buyer == _addressCompany) {\r\n                orderPerCompany[j] = orderDetail;\r\n                j++;\r\n            }\r\n        }\r\n\r\n        return orderPerCompany;\r\n    }\r\n}",
  "sourcePath": "E:\\ATN-2022\\Warehouse-Protection\\warehouse-fe-blockchain\\contracts\\Warehouse.sol",
  "compiler": {
    "name": "solc",
    "version": "0.8.17+commit.8df45f5f.Emscripten.clang"
  },
  "schemaVersion": "3.4.10",
  "updatedAt": "2022-12-14T17:07:59.870Z",
  "networkType": "ethereum",
  "devdoc": {
    "kind": "dev",
    "methods": {},
    "version": 1
  },
  "userdoc": {
    "kind": "user",
    "methods": {},
    "version": 1
  }
}